{
  "_format": "hh-sol-artifact-1",
  "contractName": "DripModule",
  "sourceName": "contracts/zero/DripModule.sol",
  "abi": [
    {
      "inputs": [
        {
          "internalType": "address",
          "name": "_controller",
          "type": "address"
        },
        {
          "internalType": "uint256",
          "name": "_capacity",
          "type": "uint256"
        },
        {
          "internalType": "uint256",
          "name": "_blockTimeout",
          "type": "uint256"
        }
      ],
      "stateMutability": "nonpayable",
      "type": "constructor"
    },
    {
      "inputs": [],
      "name": "blockTimeout",
      "outputs": [
        {
          "internalType": "uint256",
          "name": "",
          "type": "uint256"
        }
      ],
      "stateMutability": "view",
      "type": "function"
    },
    {
      "inputs": [],
      "name": "capacity",
      "outputs": [
        {
          "internalType": "uint256",
          "name": "",
          "type": "uint256"
        }
      ],
      "stateMutability": "view",
      "type": "function"
    },
    {
      "inputs": [
        {
          "internalType": "uint256",
          "name": "_in",
          "type": "uint256"
        }
      ],
      "name": "computeReserveRequirement",
      "outputs": [
        {
          "internalType": "uint256",
          "name": "",
          "type": "uint256"
        }
      ],
      "stateMutability": "pure",
      "type": "function"
    },
    {
      "inputs": [],
      "name": "controller",
      "outputs": [
        {
          "internalType": "address",
          "name": "",
          "type": "address"
        }
      ],
      "stateMutability": "view",
      "type": "function"
    },
    {
      "inputs": [
        {
          "internalType": "uint256",
          "name": "_nonce",
          "type": "uint256"
        }
      ],
      "name": "defaultLoan",
      "outputs": [],
      "stateMutability": "nonpayable",
      "type": "function"
    },
    {
      "inputs": [],
      "name": "dripBond",
      "outputs": [
        {
          "internalType": "address",
          "name": "",
          "type": "address"
        }
      ],
      "stateMutability": "view",
      "type": "function"
    },
    {
      "inputs": [],
      "name": "governance",
      "outputs": [
        {
          "internalType": "address",
          "name": "",
          "type": "address"
        }
      ],
      "stateMutability": "view",
      "type": "function"
    },
    {
      "inputs": [
        {
          "internalType": "uint256",
          "name": "",
          "type": "uint256"
        }
      ],
      "name": "outstanding",
      "outputs": [
        {
          "internalType": "uint128",
          "name": "volume",
          "type": "uint128"
        },
        {
          "internalType": "uint128",
          "name": "when",
          "type": "uint128"
        }
      ],
      "stateMutability": "view",
      "type": "function"
    },
    {
      "inputs": [
        {
          "internalType": "address payable",
          "name": "_to",
          "type": "address"
        },
        {
          "internalType": "address",
          "name": "",
          "type": "address"
        },
        {
          "internalType": "uint256",
          "name": "_actual",
          "type": "uint256"
        },
        {
          "internalType": "uint256",
          "name": "_nonce",
          "type": "uint256"
        },
        {
          "internalType": "bytes",
          "name": "_data",
          "type": "bytes"
        }
      ],
      "name": "receiveLoan",
      "outputs": [],
      "stateMutability": "nonpayable",
      "type": "function"
    },
    {
      "inputs": [
        {
          "internalType": "uint256",
          "name": "",
          "type": "uint256"
        }
      ],
      "name": "records",
      "outputs": [
        {
          "internalType": "uint128",
          "name": "volume",
          "type": "uint128"
        },
        {
          "internalType": "uint128",
          "name": "when",
          "type": "uint128"
        }
      ],
      "stateMutability": "view",
      "type": "function"
    },
    {
      "inputs": [],
      "name": "renCrvArbitrum",
      "outputs": [
        {
          "internalType": "address",
          "name": "",
          "type": "address"
        }
      ],
      "stateMutability": "view",
      "type": "function"
    },
    {
      "inputs": [
        {
          "internalType": "address",
          "name": "",
          "type": "address"
        },
        {
          "internalType": "address",
          "name": "",
          "type": "address"
        },
        {
          "internalType": "uint256",
          "name": "",
          "type": "uint256"
        },
        {
          "internalType": "uint256",
          "name": "_nonce",
          "type": "uint256"
        },
        {
          "internalType": "bytes",
          "name": "",
          "type": "bytes"
        }
      ],
      "name": "repayLoan",
      "outputs": [],
      "stateMutability": "nonpayable",
      "type": "function"
    },
    {
      "inputs": [
        {
          "internalType": "uint256",
          "name": "_amount",
          "type": "uint256"
        }
      ],
      "name": "setBlockTimeout",
      "outputs": [],
      "stateMutability": "nonpayable",
      "type": "function"
    },
    {
      "inputs": [],
      "name": "tricryptoArbitrum",
      "outputs": [
        {
          "internalType": "address",
          "name": "",
          "type": "address"
        }
      ],
      "stateMutability": "view",
      "type": "function"
    },
    {
      "inputs": [],
      "name": "want",
      "outputs": [
        {
          "internalType": "address",
          "name": "",
          "type": "address"
        }
      ],
      "stateMutability": "view",
      "type": "function"
    },
    {
      "inputs": [],
      "name": "wbtc",
      "outputs": [
        {
          "internalType": "address",
          "name": "",
          "type": "address"
        }
      ],
      "stateMutability": "view",
      "type": "function"
    },
    {
      "inputs": [],
      "name": "weth",
      "outputs": [
        {
          "internalType": "address",
          "name": "",
          "type": "address"
        }
      ],
      "stateMutability": "view",
      "type": "function"
    },
    {
      "stateMutability": "payable",
      "type": "receive"
    }
  ],
  "bytecode": "0x60a06040523480156200001157600080fd5b506040516200173d3803806200173d8339810160408190526200003491620004bf565b606083901b6001600160601b031916608052600282905560018190556200009873dbf31df14b66535af65aac99c32e9ea844e14501733e01dd8a5e1fb3481f0f589056b428fc308af0fb6001600160fe1b03620000e9602090811b620008e117901c565b620000e0732f2a2543b76a4166549f7aab2e75bef0aefc5b0f73960ea3e3c7fb317332d990873d354e18d76455906001600160fe1b03620000e9602090811b620008e117901c565b505050620005c3565b801580620001775750604051636eb1769f60e11b81523060048201526001600160a01b03838116602483015284169063dd62ed3e9060440160206040518083038186803b1580156200013a57600080fd5b505afa1580156200014f573d6000803e3d6000fd5b505050506040513d601f19601f8201168201806040525081019062000175919062000524565b155b620001ef5760405162461bcd60e51b815260206004820152603660248201527f5361666545524332303a20617070726f76652066726f6d206e6f6e2d7a65726f60448201527f20746f206e6f6e2d7a65726f20616c6c6f77616e63650000000000000000000060648201526084015b60405180910390fd5b604080516001600160a01b038416602482015260448082018490528251808303909101815260649091019091526020810180516001600160e01b0390811663095ea7b360e01b17909152620002479185916200024c16565b505050565b6000620002a8826040518060400160405280602081526020017f5361666545524332303a206c6f772d6c6576656c2063616c6c206661696c6564815250856001600160a01b03166200032a60201b62000a2c179092919060201c565b805190915015620002475780806020019051810190620002c9919062000502565b620002475760405162461bcd60e51b815260206004820152602a60248201527f5361666545524332303a204552433230206f7065726174696f6e20646964206e6044820152691bdd081cdd58d8d9595960b21b6064820152608401620001e6565b60606200033b848460008562000345565b90505b9392505050565b606082471015620003a85760405162461bcd60e51b815260206004820152602660248201527f416464726573733a20696e73756666696369656e742062616c616e636520666f6044820152651c8818d85b1b60d21b6064820152608401620001e6565b6001600160a01b0385163b620004015760405162461bcd60e51b815260206004820152601d60248201527f416464726573733a2063616c6c20746f206e6f6e2d636f6e74726163740000006044820152606401620001e6565b600080866001600160a01b031685876040516200041f91906200053d565b60006040518083038185875af1925050503d80600081146200045e576040519150601f19603f3d011682016040523d82523d6000602084013e62000463565b606091505b5090925090506200047682828662000481565b979650505050505050565b60608315620004925750816200033e565b825115620004a35782518084602001fd5b8160405162461bcd60e51b8152600401620001e691906200055b565b600080600060608486031215620004d4578283fd5b83516001600160a01b0381168114620004eb578384fd5b602085015160409095015190969495509392505050565b60006020828403121562000514578081fd5b815180151581146200033e578182fd5b60006020828403121562000536578081fd5b5051919050565b600082516200055181846020870162000590565b9190910192915050565b60208152600082518060208401526200057c81604085016020870162000590565b601f01601f19169190910160400192915050565b60005b83811015620005ad57818101518382015260200162000593565b83811115620005bd576000848401525b50505050565b60805160601c611146620005f7600039600081816103a00152818161044d015281816106e1015261084a01526111466000f3fe6080604052600436106101025760003560e01c80635b496f751161009557806380e716551161006457806380e716551461030f578063874a0e7314610325578063a7f6ad1414610366578063f77c47911461038e578063fd8e9154146103c257600080fd5b80635b496f75146102835780635cfc1a51146102ab57806367bf61c4146102cf57806373883a2b146102ef57600080fd5b80633cdc5389116100d15780633cdc5389146101f65780633fc8cef31461021e57806355e5b8a2146102465780635aa6e6751461026e57600080fd5b8063086d3c7a1461010e5780631639743b146101305780631f1fcd5114610150578063344610671461019557600080fd5b3661010957005b600080fd5b34801561011a57600080fd5b5061012e610129366004610faf565b6103e2565b005b34801561013c57600080fd5b5061012e61014b366004610f1b565b610442565b34801561015c57600080fd5b5061017873dbf31df14b66535af65aac99c32e9ea844e1450181565b6040516001600160a01b0390911681526020015b60405180910390f35b3480156101a157600080fd5b506101d66101b0366004610faf565b6003602052600090815260409020546001600160801b0380821691600160801b90041682565b604080516001600160801b0393841681529290911660208301520161018c565b34801561020257600080fd5b50610178732f2a2543b76a4166549f7aab2e75bef0aefc5b0f81565b34801561022a57600080fd5b506101787382af49447d8a07e3bd95bd0d56f35241523fbab181565b34801561025257600080fd5b5061017873f16f42daa6b89535909cf9f104b28f79e6fa822481565b34801561027a57600080fd5b506101786106dd565b34801561028f57600080fd5b5061017873960ea3e3c7fb317332d990873d354e18d764559081565b3480156102b757600080fd5b506102c160025481565b60405190815260200161018c565b3480156102db57600080fd5b5061012e6102ea366004610faf565b610775565b3480156102fb57600080fd5b506102c161030a366004610faf565b610813565b34801561031b57600080fd5b506102c160015481565b34801561033157600080fd5b506101d6610340366004610faf565b6000602081905290815260409020546001600160801b0380821691600160801b90041682565b34801561037257600080fd5b50610178733e01dd8a5e1fb3481f0f589056b428fc308af0fb81565b34801561039a57600080fd5b506101787f000000000000000000000000000000000000000000000000000000000000000081565b3480156103ce57600080fd5b5061012e6103dd366004610f1b565b61083f565b6103ea6106dd565b6001600160a01b0316336001600160a01b03161461043d5760405162461bcd60e51b815260206004820152600b60248201526a21676f7665726e616e636560a81b60448201526064015b60405180910390fd5b600155565b336001600160a01b037f000000000000000000000000000000000000000000000000000000000000000016146104a85760405162461bcd60e51b815260206004820152600b60248201526a10b1b7b73a3937b63632b960a91b6044820152606401610434565b6000818060200190518101906104be9190610fc7565b905060006104cb85610a45565b9050600073f16f42daa6b89535909cf9f104b28f79e6fa82246001600160a01b03166306661abd6040518163ffffffff1660e01b815260040160206040518083038186803b15801561051c57600080fd5b505afa158015610530573d6000803e3d6000fd5b505050506040513d601f19601f820116820180604052508101906105549190610fc7565b6040805180820182526001600160801b03808a168252438116602080840191825260008b8152600390915293909320915192518116600160801b029216919091179055905073f16f42daa6b89535909cf9f104b28f79e6fa8224631249c58b6105bd8486610c0c565b6040518263ffffffff1660e01b81526004016020604051808303818588803b1580156105e857600080fd5b505af11580156105fc573d6000803e3d6000fd5b50505050506040513d601f19601f820116820180604052508101906106219190610fc7565b50604051632142170760e11b81523060048201526001600160a01b03891660248201526044810182905273f16f42daa6b89535909cf9f104b28f79e6fa8224906342842e0e90606401600060405180830381600087803b15801561068457600080fd5b505af1158015610698573d6000803e3d6000fd5b50506040516001600160a01b038b16925085156108fc02915085906000818181858888f193505050501580156106d2573d6000803e3d6000fd5b505050505050505050565b60007f00000000000000000000000000000000000000000000000000000000000000006001600160a01b0316635aa6e6756040518163ffffffff1660e01b815260040160206040518083038186803b15801561073857600080fd5b505afa15801561074c573d6000803e3d6000fd5b505050506040513d601f19601f820116820180604052508101906107709190610eff565b905090565b60015460008281526003602052604090205443916107a291600160801b90046001600160801b031661102e565b11156107db5760405162461bcd60e51b815260206004820152600860248201526708595e1c1a5c995960c21b6044820152606401610434565b6000818152600360205260409020546002546107ff916001600160801b0316610c0c565b600255600090815260036020526040812055565b6000610839670de0b6b3a7640000610833846710a741a462780000610c18565b90610c24565b92915050565b336001600160a01b037f000000000000000000000000000000000000000000000000000000000000000016146108a55760405162461bcd60e51b815260206004820152600b60248201526a10b1b7b73a3937b63632b960a91b6044820152606401610434565b6000828152600360205260409020546002546108c9916001600160801b0316610c30565b60025550600090815260036020526040812055505050565b80158061096a5750604051636eb1769f60e11b81523060048201526001600160a01b03838116602483015284169063dd62ed3e9060440160206040518083038186803b15801561093057600080fd5b505afa158015610944573d6000803e3d6000fd5b505050506040513d601f19601f820116820180604052508101906109689190610fc7565b155b6109d55760405162461bcd60e51b815260206004820152603660248201527f5361666545524332303a20617070726f76652066726f6d206e6f6e2d7a65726f60448201527520746f206e6f6e2d7a65726f20616c6c6f77616e636560501b6064820152608401610434565b604080516001600160a01b038416602482015260448082018490528251808303909101815260649091019091526020810180516001600160e01b031663095ea7b360e01b179052610a27908490610c3c565b505050565b6060610a3b8484600085610d0e565b90505b9392505050565b60008082610a54576000610af4565b60405163ddc1f59d60e01b815260016004820152600060248201819052604482018590526064820152306084820152733e01dd8a5e1fb3481f0f589056b428fc308af0fb9063ddc1f59d9060a401602060405180830381600087803b158015610abc57600080fd5b505af1158015610ad0573d6000803e3d6000fd5b505050506040513d601f19601f82011682018060405250810190610af49190610fc7565b90508015610c065760408051600160248201819052600260448301526064820184905260006084830181905260a4808401929092528351808403909201825260c490920183526020810180516001600160e01b031663394747c560e01b1790529151479273960ea3e3c7fb317332d990873d354e18d764559091610b789190610fdf565b6000604051808303816000865af19150503d8060008114610bb5576040519150601f19603f3d011682016040523d82523d6000602084013e610bba565b606091505b5050905080610bf75760405162461bcd60e51b81526020600482015260096024820152682165786368616e676560b81b6044820152606401610434565b610c014783610c0c565b935050505b50919050565b6000610a3e8284611085565b6000610a3e8284611066565b6000610a3e8284611046565b6000610a3e828461102e565b6000610c91826040518060400160405280602081526020017f5361666545524332303a206c6f772d6c6576656c2063616c6c206661696c6564815250856001600160a01b0316610a2c9092919063ffffffff16565b805190915015610a275780806020019051810190610caf9190610f8f565b610a275760405162461bcd60e51b815260206004820152602a60248201527f5361666545524332303a204552433230206f7065726174696f6e20646964206e6044820152691bdd081cdd58d8d9595960b21b6064820152608401610434565b606082471015610d6f5760405162461bcd60e51b815260206004820152602660248201527f416464726573733a20696e73756666696369656e742062616c616e636520666f6044820152651c8818d85b1b60d21b6064820152608401610434565b6001600160a01b0385163b610dc65760405162461bcd60e51b815260206004820152601d60248201527f416464726573733a2063616c6c20746f206e6f6e2d636f6e74726163740000006044820152606401610434565b600080866001600160a01b03168587604051610de29190610fdf565b60006040518083038185875af1925050503d8060008114610e1f576040519150601f19603f3d011682016040523d82523d6000602084013e610e24565b606091505b5091509150610e34828286610e3f565b979650505050505050565b60608315610e4e575081610a3e565b825115610e5e5782518084602001fd5b8160405162461bcd60e51b81526004016104349190610ffb565b600082601f830112610e88578081fd5b813567ffffffffffffffff80821115610ea357610ea36110e2565b604051601f8301601f19908116603f01168101908282118183101715610ecb57610ecb6110e2565b81604052838152866020858801011115610ee3578485fd5b8360208701602083013792830160200193909352509392505050565b600060208284031215610f10578081fd5b8151610a3e816110f8565b600080600080600060a08688031215610f32578081fd5b8535610f3d816110f8565b94506020860135610f4d816110f8565b93506040860135925060608601359150608086013567ffffffffffffffff811115610f76578182fd5b610f8288828901610e78565b9150509295509295909350565b600060208284031215610fa0578081fd5b81518015158114610a3e578182fd5b600060208284031215610fc0578081fd5b5035919050565b600060208284031215610fd8578081fd5b5051919050565b60008251610ff181846020870161109c565b9190910192915050565b602081526000825180602084015261101a81604085016020870161109c565b601f01601f19169190910160400192915050565b60008219821115611041576110416110cc565b500190565b60008261106157634e487b7160e01b81526012600452602481fd5b500490565b6000816000190483118215151615611080576110806110cc565b500290565b600082821015611097576110976110cc565b500390565b60005b838110156110b757818101518382015260200161109f565b838111156110c6576000848401525b50505050565b634e487b7160e01b600052601160045260246000fd5b634e487b7160e01b600052604160045260246000fd5b6001600160a01b038116811461110d57600080fd5b5056fea26469706673582212208b9cb4bcdaf81ad4cd9c5b524ede12df6671e962c8fde52b595d66b1bd3389f564736f6c63430008040033",
  "linkReferences": {},
  "deployedLinkReferences": {}
}