{
  "_format": "hh-sol-artifact-1",
  "contractName": "DRIPMock",
  "sourceName": "contracts/test/DRIPMock.sol",
  "abi": [
    {
      "anonymous": false,
      "inputs": [
        {
          "indexed": true,
          "internalType": "address",
          "name": "owner",
          "type": "address"
        },
        {
          "indexed": true,
          "internalType": "address",
          "name": "spender",
          "type": "address"
        },
        {
          "indexed": false,
          "internalType": "uint256",
          "name": "value",
          "type": "uint256"
        }
      ],
      "name": "Approval",
      "type": "event"
    },
    {
      "anonymous": false,
      "inputs": [
        {
          "indexed": true,
          "internalType": "address",
          "name": "from",
          "type": "address"
        },
        {
          "indexed": true,
          "internalType": "address",
          "name": "to",
          "type": "address"
        },
        {
          "indexed": false,
          "internalType": "uint256",
          "name": "value",
          "type": "uint256"
        }
      ],
      "name": "Transfer",
      "type": "event"
    },
    {
      "inputs": [],
      "name": "DOMAIN_SEPARATOR",
      "outputs": [
        {
          "internalType": "bytes32",
          "name": "",
          "type": "bytes32"
        }
      ],
      "stateMutability": "view",
      "type": "function"
    },
    {
      "inputs": [
        {
          "internalType": "address",
          "name": "owner",
          "type": "address"
        },
        {
          "internalType": "address",
          "name": "spender",
          "type": "address"
        }
      ],
      "name": "allowance",
      "outputs": [
        {
          "internalType": "uint256",
          "name": "",
          "type": "uint256"
        }
      ],
      "stateMutability": "view",
      "type": "function"
    },
    {
      "inputs": [
        {
          "internalType": "address",
          "name": "spender",
          "type": "address"
        },
        {
          "internalType": "uint256",
          "name": "amount",
          "type": "uint256"
        }
      ],
      "name": "approve",
      "outputs": [
        {
          "internalType": "bool",
          "name": "",
          "type": "bool"
        }
      ],
      "stateMutability": "nonpayable",
      "type": "function"
    },
    {
      "inputs": [
        {
          "internalType": "address",
          "name": "account",
          "type": "address"
        }
      ],
      "name": "balanceOf",
      "outputs": [
        {
          "internalType": "uint256",
          "name": "",
          "type": "uint256"
        }
      ],
      "stateMutability": "view",
      "type": "function"
    },
    {
      "inputs": [],
      "name": "decimals",
      "outputs": [
        {
          "internalType": "uint8",
          "name": "",
          "type": "uint8"
        }
      ],
      "stateMutability": "view",
      "type": "function"
    },
    {
      "inputs": [
        {
          "internalType": "address",
          "name": "spender",
          "type": "address"
        },
        {
          "internalType": "uint256",
          "name": "subtractedValue",
          "type": "uint256"
        }
      ],
      "name": "decreaseAllowance",
      "outputs": [
        {
          "internalType": "bool",
          "name": "",
          "type": "bool"
        }
      ],
      "stateMutability": "nonpayable",
      "type": "function"
    },
    {
      "inputs": [
        {
          "internalType": "address",
          "name": "spender",
          "type": "address"
        },
        {
          "internalType": "uint256",
          "name": "addedValue",
          "type": "uint256"
        }
      ],
      "name": "increaseAllowance",
      "outputs": [
        {
          "internalType": "bool",
          "name": "",
          "type": "bool"
        }
      ],
      "stateMutability": "nonpayable",
      "type": "function"
    },
    {
      "inputs": [],
      "name": "initialize",
      "outputs": [],
      "stateMutability": "nonpayable",
      "type": "function"
    },
    {
      "inputs": [],
      "name": "locked",
      "outputs": [
        {
          "internalType": "bool",
          "name": "",
          "type": "bool"
        }
      ],
      "stateMutability": "view",
      "type": "function"
    },
    {
      "inputs": [],
      "name": "name",
      "outputs": [
        {
          "internalType": "string",
          "name": "",
          "type": "string"
        }
      ],
      "stateMutability": "view",
      "type": "function"
    },
    {
      "inputs": [
        {
          "internalType": "address",
          "name": "owner",
          "type": "address"
        }
      ],
      "name": "nonces",
      "outputs": [
        {
          "internalType": "uint256",
          "name": "",
          "type": "uint256"
        }
      ],
      "stateMutability": "view",
      "type": "function"
    },
    {
      "inputs": [
        {
          "internalType": "address",
          "name": "source",
          "type": "address"
        },
        {
          "internalType": "address",
          "name": "target",
          "type": "address"
        },
        {
          "internalType": "uint256",
          "name": "amount",
          "type": "uint256"
        }
      ],
      "name": "permission",
      "outputs": [],
      "stateMutability": "nonpayable",
      "type": "function"
    },
    {
      "inputs": [
        {
          "internalType": "address",
          "name": "owner",
          "type": "address"
        },
        {
          "internalType": "address",
          "name": "spender",
          "type": "address"
        },
        {
          "internalType": "uint256",
          "name": "value",
          "type": "uint256"
        },
        {
          "internalType": "uint256",
          "name": "deadline",
          "type": "uint256"
        },
        {
          "internalType": "uint8",
          "name": "v",
          "type": "uint8"
        },
        {
          "internalType": "bytes32",
          "name": "r",
          "type": "bytes32"
        },
        {
          "internalType": "bytes32",
          "name": "s",
          "type": "bytes32"
        }
      ],
      "name": "permit",
      "outputs": [],
      "stateMutability": "nonpayable",
      "type": "function"
    },
    {
      "inputs": [],
      "name": "symbol",
      "outputs": [
        {
          "internalType": "string",
          "name": "",
          "type": "string"
        }
      ],
      "stateMutability": "view",
      "type": "function"
    },
    {
      "inputs": [],
      "name": "totalSupply",
      "outputs": [
        {
          "internalType": "uint256",
          "name": "",
          "type": "uint256"
        }
      ],
      "stateMutability": "view",
      "type": "function"
    },
    {
      "inputs": [
        {
          "internalType": "address",
          "name": "to",
          "type": "address"
        },
        {
          "internalType": "uint256",
          "name": "amount",
          "type": "uint256"
        }
      ],
      "name": "transfer",
      "outputs": [
        {
          "internalType": "bool",
          "name": "",
          "type": "bool"
        }
      ],
      "stateMutability": "nonpayable",
      "type": "function"
    },
    {
      "inputs": [
        {
          "internalType": "address",
          "name": "from",
          "type": "address"
        },
        {
          "internalType": "address",
          "name": "to",
          "type": "address"
        },
        {
          "internalType": "uint256",
          "name": "amount",
          "type": "uint256"
        }
      ],
      "name": "transferFrom",
      "outputs": [
        {
          "internalType": "bool",
          "name": "",
          "type": "bool"
        }
      ],
      "stateMutability": "nonpayable",
      "type": "function"
    }
  ],
  "bytecode": "0x608060405234801561001057600080fd5b5061131f806100206000396000f3fe608060405234801561001057600080fd5b506004361061010b5760003560e01c806370a08231116100a2578063a457c2d711610071578063a457c2d714610201578063a9059cbb14610214578063cf30901214610227578063d505accf14610234578063dd62ed3e1461024757600080fd5b806370a08231146101b55780637ecebe00146101de5780638129fc1c146101f157806395d89b41146101f957600080fd5b80632bbb502b116100de5780632bbb502b14610176578063313ce5671461018b5780633644e5151461019a57806339509351146101a257600080fd5b806306fdde0314610110578063095ea7b31461012e57806318160ddd1461015157806323b872dd14610163575b600080fd5b610118610280565b60405161012591906111f2565b60405180910390f35b61014161013c3660046111c9565b610312565b6040519015158152602001610125565b6035545b604051908152602001610125565b61014161017136600461111d565b61032a565b61018961018436600461111d565b61034e565b005b60405160128152602001610125565b61015561035e565b6101416101b03660046111c9565b61036d565b6101556101c33660046110ca565b6001600160a01b031660009081526033602052604090205490565b6101556101ec3660046110ca565b6103ac565b6101896103cc565b61011861051a565b61014161020f3660046111c9565b610529565b6101416102223660046111c9565b6105bb565b60cc546101419060ff1681565b610189610242366004611158565b6105c9565b6101556102553660046110eb565b6001600160a01b03918216600090815260346020908152604080832093909416825291909152205490565b60606036805461028f906112b4565b80601f01602080910402602001604051908101604052809291908181526020018280546102bb906112b4565b80156103085780601f106102dd57610100808354040283529160200191610308565b820191906000526020600020905b8154815290600101906020018083116102eb57829003601f168201915b5050505050905090565b60003361032081858561070f565b5060019392505050565b600033610338858285610833565b6103438585856108c5565b506001949350505050565b61035983838361070f565b505050565b6000610368610a93565b905090565b3360008181526034602090815260408083206001600160a01b038716845290915281205490919061032090829086906103a7908790611290565b61070f565b6001600160a01b0381166000908152609960205260408120545b92915050565b600054610100900460ff166103e75760005460ff16156103eb565b303b155b6104535760405162461bcd60e51b815260206004820152602e60248201527f496e697469616c697a61626c653a20636f6e747261637420697320616c72656160448201526d191e481a5b9a5d1a585b1a5e995960921b60648201526084015b60405180910390fd5b600054610100900460ff16158015610475576000805461ffff19166101011790555b61049a604051806040016040528060048152602001630445249560e41b815250610b0e565b6104dc604051806040016040528060048152602001630445249560e41b815250604051806040016040528060048152602001630445249560e41b815250610b5c565b61050573592e10267af60894086d40dcc55fe7684f8420d56a52b7d2dcc80cd2e4000000610baa565b8015610517576000805461ff00191690555b50565b60606037805461028f906112b4565b3360008181526034602090815260408083206001600160a01b0387168452909152812054909190838110156105ae5760405162461bcd60e51b815260206004820152602560248201527f45524332303a2064656372656173656420616c6c6f77616e63652062656c6f77604482015264207a65726f60d81b606482015260840161044a565b610343828686840361070f565b6000336103208185856108c5565b834211156106195760405162461bcd60e51b815260206004820152601d60248201527f45524332305065726d69743a206578706972656420646561646c696e65000000604482015260640161044a565b6000609a5488888861062a8c610c89565b6040805160208101969096526001600160a01b0394851690860152929091166060840152608083015260a082015260c0810186905260e001604051602081830303815290604052805190602001209050600061068582610cb1565b9050600061069582878787610cff565b9050896001600160a01b0316816001600160a01b0316146106f85760405162461bcd60e51b815260206004820152601e60248201527f45524332305065726d69743a20696e76616c6964207369676e61747572650000604482015260640161044a565b6107038a8a8a61070f565b50505050505050505050565b6001600160a01b0383166107715760405162461bcd60e51b8152602060048201526024808201527f45524332303a20617070726f76652066726f6d20746865207a65726f206164646044820152637265737360e01b606482015260840161044a565b6001600160a01b0382166107d25760405162461bcd60e51b815260206004820152602260248201527f45524332303a20617070726f766520746f20746865207a65726f206164647265604482015261737360f01b606482015260840161044a565b6001600160a01b0383811660008181526034602090815260408083209487168084529482529182902085905590518481527f8c5be1e5ebec7d5bd14f71427d1e84f3dd0314c0f7b2291e5b200ac8c7c3b925910160405180910390a3505050565b6001600160a01b0383811660009081526034602090815260408083209386168352929052205460001981146108bf57818110156108b25760405162461bcd60e51b815260206004820152601d60248201527f45524332303a20696e73756666696369656e7420616c6c6f77616e6365000000604482015260640161044a565b6108bf848484840361070f565b50505050565b6001600160a01b0383166109295760405162461bcd60e51b815260206004820152602560248201527f45524332303a207472616e736665722066726f6d20746865207a65726f206164604482015264647265737360d81b606482015260840161044a565b6001600160a01b03821661098b5760405162461bcd60e51b815260206004820152602360248201527f45524332303a207472616e7366657220746f20746865207a65726f206164647260448201526265737360e81b606482015260840161044a565b6001600160a01b03831660009081526033602052604090205481811015610a035760405162461bcd60e51b815260206004820152602660248201527f45524332303a207472616e7366657220616d6f756e7420657863656564732062604482015265616c616e636560d01b606482015260840161044a565b6001600160a01b03808516600090815260336020526040808220858503905591851681529081208054849290610a3a908490611290565b92505081905550826001600160a01b0316846001600160a01b03167fddf252ad1be2c89b69c2b068fc378daa952ba7f163c4a11628f55a4df523b3ef84604051610a8691815260200190565b60405180910390a36108bf565b60006103687f8b73c3c69bb8fe3d512ecc4cf759cc79239f7b179b0ffacaa9a75d522b39400f610ac260655490565b6066546040805160208101859052908101839052606081018290524660808201523060a082015260009060c0016040516020818303038152906040528051906020012090509392505050565b600054610100900460ff16610b355760405162461bcd60e51b815260040161044a90611245565b507f6e71edae12b1b97f4d1f60370fef10105fa2faae0126114a169c64845d6126c9609a55565b600054610100900460ff16610b835760405162461bcd60e51b815260040161044a90611245565b8151610b96906036906020850190611015565b508051610359906037906020840190611015565b6001600160a01b038216610c005760405162461bcd60e51b815260206004820152601f60248201527f45524332303a206d696e7420746f20746865207a65726f206164647265737300604482015260640161044a565b8060356000828254610c129190611290565b90915550506001600160a01b03821660009081526033602052604081208054839290610c3f908490611290565b90915550506040518181526001600160a01b038316906000907fddf252ad1be2c89b69c2b068fc378daa952ba7f163c4a11628f55a4df523b3ef9060200160405180910390a35050565b6001600160a01b03811660009081526099602052604090208054600181018255905b50919050565b60006103c6610cbe610a93565b8360405161190160f01b6020820152602281018390526042810182905260009060620160405160208183030381529060405280519060200120905092915050565b6000806000610d1087878787610d27565b91509150610d1d81610e14565b5095945050505050565b6000807f7fffffffffffffffffffffffffffffff5d576e7357a4501ddfe92f46681b20a0831115610d5e5750600090506003610e0b565b8460ff16601b14158015610d7657508460ff16601c14155b15610d875750600090506004610e0b565b6040805160008082526020820180845289905260ff881692820192909252606081018690526080810185905260019060a0016020604051602081039080840390855afa158015610ddb573d6000803e3d6000fd5b5050604051601f1901519150506001600160a01b038116610e0457600060019250925050610e0b565b9150600090505b94509492505050565b6000816004811115610e3657634e487b7160e01b600052602160045260246000fd5b1415610e3f5750565b6001816004811115610e6157634e487b7160e01b600052602160045260246000fd5b1415610eaf5760405162461bcd60e51b815260206004820152601860248201527f45434453413a20696e76616c6964207369676e61747572650000000000000000604482015260640161044a565b6002816004811115610ed157634e487b7160e01b600052602160045260246000fd5b1415610f1f5760405162461bcd60e51b815260206004820152601f60248201527f45434453413a20696e76616c6964207369676e6174757265206c656e67746800604482015260640161044a565b6003816004811115610f4157634e487b7160e01b600052602160045260246000fd5b1415610f9a5760405162461bcd60e51b815260206004820152602260248201527f45434453413a20696e76616c6964207369676e6174757265202773272076616c604482015261756560f01b606482015260840161044a565b6004816004811115610fbc57634e487b7160e01b600052602160045260246000fd5b14156105175760405162461bcd60e51b815260206004820152602260248201527f45434453413a20696e76616c6964207369676e6174757265202776272076616c604482015261756560f01b606482015260840161044a565b828054611021906112b4565b90600052602060002090601f0160209004810192826110435760008555611089565b82601f1061105c57805160ff1916838001178555611089565b82800160010185558215611089579182015b8281111561108957825182559160200191906001019061106e565b50611095929150611099565b5090565b5b80821115611095576000815560010161109a565b80356001600160a01b03811681146110c557600080fd5b919050565b6000602082840312156110db578081fd5b6110e4826110ae565b9392505050565b600080604083850312156110fd578081fd5b611106836110ae565b9150611114602084016110ae565b90509250929050565b600080600060608486031215611131578081fd5b61113a846110ae565b9250611148602085016110ae565b9150604084013590509250925092565b600080600080600080600060e0888a031215611172578283fd5b61117b886110ae565b9650611189602089016110ae565b95506040880135945060608801359350608088013560ff811681146111ac578384fd5b9699959850939692959460a0840135945060c09093013592915050565b600080604083850312156111db578182fd5b6111e4836110ae565b946020939093013593505050565b6000602080835283518082850152825b8181101561121e57858101830151858201604001528201611202565b8181111561122f5783604083870101525b50601f01601f1916929092016040019392505050565b6020808252602b908201527f496e697469616c697a61626c653a20636f6e7472616374206973206e6f74206960408201526a6e697469616c697a696e6760a81b606082015260800190565b600082198211156112af57634e487b7160e01b81526011600452602481fd5b500190565b600181811c908216806112c857607f821691505b60208210811415610cab57634e487b7160e01b600052602260045260246000fdfea264697066735822122078c39b777a6e970e1747add476e1f31b52557455cdbd0e5fb1da665ac94d823e64736f6c63430008040033",
  "linkReferences": {},
  "deployedLinkReferences": {}
}