{
  "_format": "hh-sol-artifact-1",
  "contractName": "DRIP",
  "sourceName": "contracts/token/DRIP.sol",
  "abi": [
    {
      "anonymous": false,
      "inputs": [
        {
          "indexed": true,
          "internalType": "address",
          "name": "owner",
          "type": "address"
        },
        {
          "indexed": true,
          "internalType": "address",
          "name": "spender",
          "type": "address"
        },
        {
          "indexed": false,
          "internalType": "uint256",
          "name": "value",
          "type": "uint256"
        }
      ],
      "name": "Approval",
      "type": "event"
    },
    {
      "anonymous": false,
      "inputs": [
        {
          "indexed": true,
          "internalType": "address",
          "name": "from",
          "type": "address"
        },
        {
          "indexed": true,
          "internalType": "address",
          "name": "to",
          "type": "address"
        },
        {
          "indexed": false,
          "internalType": "uint256",
          "name": "value",
          "type": "uint256"
        }
      ],
      "name": "Transfer",
      "type": "event"
    },
    {
      "inputs": [],
      "name": "DOMAIN_SEPARATOR",
      "outputs": [
        {
          "internalType": "bytes32",
          "name": "",
          "type": "bytes32"
        }
      ],
      "stateMutability": "view",
      "type": "function"
    },
    {
      "inputs": [
        {
          "internalType": "address",
          "name": "owner",
          "type": "address"
        },
        {
          "internalType": "address",
          "name": "spender",
          "type": "address"
        }
      ],
      "name": "allowance",
      "outputs": [
        {
          "internalType": "uint256",
          "name": "",
          "type": "uint256"
        }
      ],
      "stateMutability": "view",
      "type": "function"
    },
    {
      "inputs": [
        {
          "internalType": "address",
          "name": "spender",
          "type": "address"
        },
        {
          "internalType": "uint256",
          "name": "amount",
          "type": "uint256"
        }
      ],
      "name": "approve",
      "outputs": [
        {
          "internalType": "bool",
          "name": "",
          "type": "bool"
        }
      ],
      "stateMutability": "nonpayable",
      "type": "function"
    },
    {
      "inputs": [
        {
          "internalType": "address",
          "name": "account",
          "type": "address"
        }
      ],
      "name": "balanceOf",
      "outputs": [
        {
          "internalType": "uint256",
          "name": "",
          "type": "uint256"
        }
      ],
      "stateMutability": "view",
      "type": "function"
    },
    {
      "inputs": [],
      "name": "decimals",
      "outputs": [
        {
          "internalType": "uint8",
          "name": "",
          "type": "uint8"
        }
      ],
      "stateMutability": "view",
      "type": "function"
    },
    {
      "inputs": [
        {
          "internalType": "address",
          "name": "spender",
          "type": "address"
        },
        {
          "internalType": "uint256",
          "name": "subtractedValue",
          "type": "uint256"
        }
      ],
      "name": "decreaseAllowance",
      "outputs": [
        {
          "internalType": "bool",
          "name": "",
          "type": "bool"
        }
      ],
      "stateMutability": "nonpayable",
      "type": "function"
    },
    {
      "inputs": [
        {
          "internalType": "address",
          "name": "spender",
          "type": "address"
        },
        {
          "internalType": "uint256",
          "name": "addedValue",
          "type": "uint256"
        }
      ],
      "name": "increaseAllowance",
      "outputs": [
        {
          "internalType": "bool",
          "name": "",
          "type": "bool"
        }
      ],
      "stateMutability": "nonpayable",
      "type": "function"
    },
    {
      "inputs": [],
      "name": "initialize",
      "outputs": [],
      "stateMutability": "nonpayable",
      "type": "function"
    },
    {
      "inputs": [],
      "name": "name",
      "outputs": [
        {
          "internalType": "string",
          "name": "",
          "type": "string"
        }
      ],
      "stateMutability": "view",
      "type": "function"
    },
    {
      "inputs": [
        {
          "internalType": "address",
          "name": "owner",
          "type": "address"
        }
      ],
      "name": "nonces",
      "outputs": [
        {
          "internalType": "uint256",
          "name": "",
          "type": "uint256"
        }
      ],
      "stateMutability": "view",
      "type": "function"
    },
    {
      "inputs": [
        {
          "internalType": "address",
          "name": "owner",
          "type": "address"
        },
        {
          "internalType": "address",
          "name": "spender",
          "type": "address"
        },
        {
          "internalType": "uint256",
          "name": "value",
          "type": "uint256"
        },
        {
          "internalType": "uint256",
          "name": "deadline",
          "type": "uint256"
        },
        {
          "internalType": "uint8",
          "name": "v",
          "type": "uint8"
        },
        {
          "internalType": "bytes32",
          "name": "r",
          "type": "bytes32"
        },
        {
          "internalType": "bytes32",
          "name": "s",
          "type": "bytes32"
        }
      ],
      "name": "permit",
      "outputs": [],
      "stateMutability": "nonpayable",
      "type": "function"
    },
    {
      "inputs": [],
      "name": "symbol",
      "outputs": [
        {
          "internalType": "string",
          "name": "",
          "type": "string"
        }
      ],
      "stateMutability": "view",
      "type": "function"
    },
    {
      "inputs": [],
      "name": "totalSupply",
      "outputs": [
        {
          "internalType": "uint256",
          "name": "",
          "type": "uint256"
        }
      ],
      "stateMutability": "view",
      "type": "function"
    },
    {
      "inputs": [
        {
          "internalType": "address",
          "name": "to",
          "type": "address"
        },
        {
          "internalType": "uint256",
          "name": "amount",
          "type": "uint256"
        }
      ],
      "name": "transfer",
      "outputs": [
        {
          "internalType": "bool",
          "name": "",
          "type": "bool"
        }
      ],
      "stateMutability": "nonpayable",
      "type": "function"
    },
    {
      "inputs": [
        {
          "internalType": "address",
          "name": "from",
          "type": "address"
        },
        {
          "internalType": "address",
          "name": "to",
          "type": "address"
        },
        {
          "internalType": "uint256",
          "name": "amount",
          "type": "uint256"
        }
      ],
      "name": "transferFrom",
      "outputs": [
        {
          "internalType": "bool",
          "name": "",
          "type": "bool"
        }
      ],
      "stateMutability": "nonpayable",
      "type": "function"
    }
  ],
  "bytecode": "0x608060405234801561001057600080fd5b50611190806100206000396000f3fe608060405234801561001057600080fd5b50600436106100f55760003560e01c806370a0823111610097578063a457c2d711610066578063a457c2d7146101d8578063a9059cbb146101eb578063d505accf146101fe578063dd62ed3e1461021157600080fd5b806370a082311461018a5780637ecebe00146101b35780638129fc1c146101c657806395d89b41146101d057600080fd5b806323b872dd116100d357806323b872dd1461014d578063313ce567146101605780633644e5151461016f578063395093511461017757600080fd5b806306fdde03146100fa578063095ea7b31461011857806318160ddd1461013b575b600080fd5b61010261024a565b60405161010f9190611063565b60405180910390f35b61012b61012636600461103a565b6102dc565b604051901515815260200161010f565b6035545b60405190815260200161010f565b61012b61015b366004610f8e565b6102f4565b6040516012815260200161010f565b61013f610318565b61012b61018536600461103a565b610327565b61013f610198366004610f3b565b6001600160a01b031660009081526033602052604090205490565b61013f6101c1366004610f3b565b610366565b6101ce610386565b005b6101026103d6565b61012b6101e636600461103a565b6103e5565b61012b6101f936600461103a565b61047c565b6101ce61020c366004610fc9565b61048a565b61013f61021f366004610f5c565b6001600160a01b03918216600090815260346020908152604080832093909416825291909152205490565b60606036805461025990611125565b80601f016020809104026020016040519081016040528092919081815260200182805461028590611125565b80156102d25780601f106102a7576101008083540402835291602001916102d2565b820191906000526020600020905b8154815290600101906020018083116102b557829003601f168201915b5050505050905090565b6000336102ea8185856105d0565b5060019392505050565b6000336103028582856106f4565b61030d858585610786565b506001949350505050565b6000610322610954565b905090565b3360008181526034602090815260408083206001600160a01b03871684529091528120549091906102ea9082908690610361908790611101565b6105d0565b6001600160a01b0381166000908152609960205260408120545b92915050565b6103ab604051806040016040528060048152602001630445249560e41b8152506109cf565b6103d473592e10267af60894086d40dcc55fe7684f8420d56a52b7d2dcc80cd2e4000000610a25565b565b60606037805461025990611125565b3360008181526034602090815260408083206001600160a01b03871684529091528120549091908381101561046f5760405162461bcd60e51b815260206004820152602560248201527f45524332303a2064656372656173656420616c6c6f77616e63652062656c6f77604482015264207a65726f60d81b60648201526084015b60405180910390fd5b61030d82868684036105d0565b6000336102ea818585610786565b834211156104da5760405162461bcd60e51b815260206004820152601d60248201527f45524332305065726d69743a206578706972656420646561646c696e650000006044820152606401610466565b6000609a548888886104eb8c610b04565b6040805160208101969096526001600160a01b0394851690860152929091166060840152608083015260a082015260c0810186905260e001604051602081830303815290604052805190602001209050600061054682610b2c565b9050600061055682878787610b7a565b9050896001600160a01b0316816001600160a01b0316146105b95760405162461bcd60e51b815260206004820152601e60248201527f45524332305065726d69743a20696e76616c6964207369676e617475726500006044820152606401610466565b6105c48a8a8a6105d0565b50505050505050505050565b6001600160a01b0383166106325760405162461bcd60e51b8152602060048201526024808201527f45524332303a20617070726f76652066726f6d20746865207a65726f206164646044820152637265737360e01b6064820152608401610466565b6001600160a01b0382166106935760405162461bcd60e51b815260206004820152602260248201527f45524332303a20617070726f766520746f20746865207a65726f206164647265604482015261737360f01b6064820152608401610466565b6001600160a01b0383811660008181526034602090815260408083209487168084529482529182902085905590518481527f8c5be1e5ebec7d5bd14f71427d1e84f3dd0314c0f7b2291e5b200ac8c7c3b925910160405180910390a3505050565b6001600160a01b03838116600090815260346020908152604080832093861683529290522054600019811461078057818110156107735760405162461bcd60e51b815260206004820152601d60248201527f45524332303a20696e73756666696369656e7420616c6c6f77616e63650000006044820152606401610466565b61078084848484036105d0565b50505050565b6001600160a01b0383166107ea5760405162461bcd60e51b815260206004820152602560248201527f45524332303a207472616e736665722066726f6d20746865207a65726f206164604482015264647265737360d81b6064820152608401610466565b6001600160a01b03821661084c5760405162461bcd60e51b815260206004820152602360248201527f45524332303a207472616e7366657220746f20746865207a65726f206164647260448201526265737360e81b6064820152608401610466565b6001600160a01b038316600090815260336020526040902054818110156108c45760405162461bcd60e51b815260206004820152602660248201527f45524332303a207472616e7366657220616d6f756e7420657863656564732062604482015265616c616e636560d01b6064820152608401610466565b6001600160a01b038085166000908152603360205260408082208585039055918516815290812080548492906108fb908490611101565b92505081905550826001600160a01b0316846001600160a01b03167fddf252ad1be2c89b69c2b068fc378daa952ba7f163c4a11628f55a4df523b3ef8460405161094791815260200190565b60405180910390a3610780565b60006103227f8b73c3c69bb8fe3d512ecc4cf759cc79239f7b179b0ffacaa9a75d522b39400f61098360655490565b6066546040805160208101859052908101839052606081018290524660808201523060a082015260009060c0016040516020818303038152906040528051906020012090509392505050565b600054610100900460ff166109f65760405162461bcd60e51b8152600401610466906110b6565b610a1981604051806040016040528060018152602001603160f81b815250610ba2565b610a2281610be3565b50565b6001600160a01b038216610a7b5760405162461bcd60e51b815260206004820152601f60248201527f45524332303a206d696e7420746f20746865207a65726f2061646472657373006044820152606401610466565b8060356000828254610a8d9190611101565b90915550506001600160a01b03821660009081526033602052604081208054839290610aba908490611101565b90915550506040518181526001600160a01b038316906000907fddf252ad1be2c89b69c2b068fc378daa952ba7f163c4a11628f55a4df523b3ef9060200160405180910390a35050565b6001600160a01b03811660009081526099602052604090208054600181018255905b50919050565b6000610380610b39610954565b8360405161190160f01b6020820152602281018390526042810182905260009060620160405160208183030381529060405280519060200120905092915050565b6000806000610b8b87878787610c31565b91509150610b9881610d1e565b5095945050505050565b600054610100900460ff16610bc95760405162461bcd60e51b8152600401610466906110b6565b815160209283012081519190920120606591909155606655565b600054610100900460ff16610c0a5760405162461bcd60e51b8152600401610466906110b6565b507f6e71edae12b1b97f4d1f60370fef10105fa2faae0126114a169c64845d6126c9609a55565b6000807f7fffffffffffffffffffffffffffffff5d576e7357a4501ddfe92f46681b20a0831115610c685750600090506003610d15565b8460ff16601b14158015610c8057508460ff16601c14155b15610c915750600090506004610d15565b6040805160008082526020820180845289905260ff881692820192909252606081018690526080810185905260019060a0016020604051602081039080840390855afa158015610ce5573d6000803e3d6000fd5b5050604051601f1901519150506001600160a01b038116610d0e57600060019250925050610d15565b9150600090505b94509492505050565b6000816004811115610d4057634e487b7160e01b600052602160045260246000fd5b1415610d495750565b6001816004811115610d6b57634e487b7160e01b600052602160045260246000fd5b1415610db95760405162461bcd60e51b815260206004820152601860248201527f45434453413a20696e76616c6964207369676e617475726500000000000000006044820152606401610466565b6002816004811115610ddb57634e487b7160e01b600052602160045260246000fd5b1415610e295760405162461bcd60e51b815260206004820152601f60248201527f45434453413a20696e76616c6964207369676e6174757265206c656e677468006044820152606401610466565b6003816004811115610e4b57634e487b7160e01b600052602160045260246000fd5b1415610ea45760405162461bcd60e51b815260206004820152602260248201527f45434453413a20696e76616c6964207369676e6174757265202773272076616c604482015261756560f01b6064820152608401610466565b6004816004811115610ec657634e487b7160e01b600052602160045260246000fd5b1415610a225760405162461bcd60e51b815260206004820152602260248201527f45434453413a20696e76616c6964207369676e6174757265202776272076616c604482015261756560f01b6064820152608401610466565b80356001600160a01b0381168114610f3657600080fd5b919050565b600060208284031215610f4c578081fd5b610f5582610f1f565b9392505050565b60008060408385031215610f6e578081fd5b610f7783610f1f565b9150610f8560208401610f1f565b90509250929050565b600080600060608486031215610fa2578081fd5b610fab84610f1f565b9250610fb960208501610f1f565b9150604084013590509250925092565b600080600080600080600060e0888a031215610fe3578283fd5b610fec88610f1f565b9650610ffa60208901610f1f565b95506040880135945060608801359350608088013560ff8116811461101d578384fd5b9699959850939692959460a0840135945060c09093013592915050565b6000806040838503121561104c578182fd5b61105583610f1f565b946020939093013593505050565b6000602080835283518082850152825b8181101561108f57858101830151858201604001528201611073565b818111156110a05783604083870101525b50601f01601f1916929092016040019392505050565b6020808252602b908201527f496e697469616c697a61626c653a20636f6e7472616374206973206e6f74206960408201526a6e697469616c697a696e6760a81b606082015260800190565b6000821982111561112057634e487b7160e01b81526011600452602481fd5b500190565b600181811c9082168061113957607f821691505b60208210811415610b2657634e487b7160e01b600052602260045260246000fdfea2646970667358221220af3d10476779c2600155ceb5c8e9345a46d0c6d012824d68c653e45525619f8f64736f6c63430008040033",
  "linkReferences": {},
  "deployedLinkReferences": {}
}