{
  "_format": "hh-sol-artifact-1",
  "contractName": "DRIP",
  "sourceName": "contracts/token/DRIP.sol",
  "abi": [
    {
      "anonymous": false,
      "inputs": [
        {
          "indexed": true,
          "internalType": "address",
          "name": "owner",
          "type": "address"
        },
        {
          "indexed": true,
          "internalType": "address",
          "name": "spender",
          "type": "address"
        },
        {
          "indexed": false,
          "internalType": "uint256",
          "name": "value",
          "type": "uint256"
        }
      ],
      "name": "Approval",
      "type": "event"
    },
    {
      "anonymous": false,
      "inputs": [
        {
          "indexed": true,
          "internalType": "address",
          "name": "from",
          "type": "address"
        },
        {
          "indexed": true,
          "internalType": "address",
          "name": "to",
          "type": "address"
        },
        {
          "indexed": false,
          "internalType": "uint256",
          "name": "value",
          "type": "uint256"
        }
      ],
      "name": "Transfer",
      "type": "event"
    },
    {
      "inputs": [],
      "name": "DOMAIN_SEPARATOR",
      "outputs": [
        {
          "internalType": "bytes32",
          "name": "",
          "type": "bytes32"
        }
      ],
      "stateMutability": "view",
      "type": "function"
    },
    {
      "inputs": [
        {
          "internalType": "address",
          "name": "owner",
          "type": "address"
        },
        {
          "internalType": "address",
          "name": "spender",
          "type": "address"
        }
      ],
      "name": "allowance",
      "outputs": [
        {
          "internalType": "uint256",
          "name": "",
          "type": "uint256"
        }
      ],
      "stateMutability": "view",
      "type": "function"
    },
    {
      "inputs": [
        {
          "internalType": "address",
          "name": "spender",
          "type": "address"
        },
        {
          "internalType": "uint256",
          "name": "amount",
          "type": "uint256"
        }
      ],
      "name": "approve",
      "outputs": [
        {
          "internalType": "bool",
          "name": "",
          "type": "bool"
        }
      ],
      "stateMutability": "nonpayable",
      "type": "function"
    },
    {
      "inputs": [
        {
          "internalType": "address",
          "name": "account",
          "type": "address"
        }
      ],
      "name": "balanceOf",
      "outputs": [
        {
          "internalType": "uint256",
          "name": "",
          "type": "uint256"
        }
      ],
      "stateMutability": "view",
      "type": "function"
    },
    {
      "inputs": [],
      "name": "decimals",
      "outputs": [
        {
          "internalType": "uint8",
          "name": "",
          "type": "uint8"
        }
      ],
      "stateMutability": "view",
      "type": "function"
    },
    {
      "inputs": [
        {
          "internalType": "address",
          "name": "spender",
          "type": "address"
        },
        {
          "internalType": "uint256",
          "name": "subtractedValue",
          "type": "uint256"
        }
      ],
      "name": "decreaseAllowance",
      "outputs": [
        {
          "internalType": "bool",
          "name": "",
          "type": "bool"
        }
      ],
      "stateMutability": "nonpayable",
      "type": "function"
    },
    {
      "inputs": [
        {
          "internalType": "address",
          "name": "spender",
          "type": "address"
        },
        {
          "internalType": "uint256",
          "name": "addedValue",
          "type": "uint256"
        }
      ],
      "name": "increaseAllowance",
      "outputs": [
        {
          "internalType": "bool",
          "name": "",
          "type": "bool"
        }
      ],
      "stateMutability": "nonpayable",
      "type": "function"
    },
    {
      "inputs": [],
      "name": "initialize",
      "outputs": [],
      "stateMutability": "nonpayable",
      "type": "function"
    },
    {
      "inputs": [],
      "name": "locked",
      "outputs": [
        {
          "internalType": "bool",
          "name": "",
          "type": "bool"
        }
      ],
      "stateMutability": "view",
      "type": "function"
    },
    {
      "inputs": [],
      "name": "name",
      "outputs": [
        {
          "internalType": "string",
          "name": "",
          "type": "string"
        }
      ],
      "stateMutability": "view",
      "type": "function"
    },
    {
      "inputs": [
        {
          "internalType": "address",
          "name": "owner",
          "type": "address"
        }
      ],
      "name": "nonces",
      "outputs": [
        {
          "internalType": "uint256",
          "name": "",
          "type": "uint256"
        }
      ],
      "stateMutability": "view",
      "type": "function"
    },
    {
      "inputs": [
        {
          "internalType": "address",
          "name": "owner",
          "type": "address"
        },
        {
          "internalType": "address",
          "name": "spender",
          "type": "address"
        },
        {
          "internalType": "uint256",
          "name": "value",
          "type": "uint256"
        },
        {
          "internalType": "uint256",
          "name": "deadline",
          "type": "uint256"
        },
        {
          "internalType": "uint8",
          "name": "v",
          "type": "uint8"
        },
        {
          "internalType": "bytes32",
          "name": "r",
          "type": "bytes32"
        },
        {
          "internalType": "bytes32",
          "name": "s",
          "type": "bytes32"
        }
      ],
      "name": "permit",
      "outputs": [],
      "stateMutability": "nonpayable",
      "type": "function"
    },
    {
      "inputs": [],
      "name": "symbol",
      "outputs": [
        {
          "internalType": "string",
          "name": "",
          "type": "string"
        }
      ],
      "stateMutability": "view",
      "type": "function"
    },
    {
      "inputs": [],
      "name": "totalSupply",
      "outputs": [
        {
          "internalType": "uint256",
          "name": "",
          "type": "uint256"
        }
      ],
      "stateMutability": "view",
      "type": "function"
    },
    {
      "inputs": [
        {
          "internalType": "address",
          "name": "to",
          "type": "address"
        },
        {
          "internalType": "uint256",
          "name": "amount",
          "type": "uint256"
        }
      ],
      "name": "transfer",
      "outputs": [
        {
          "internalType": "bool",
          "name": "",
          "type": "bool"
        }
      ],
      "stateMutability": "nonpayable",
      "type": "function"
    },
    {
      "inputs": [
        {
          "internalType": "address",
          "name": "from",
          "type": "address"
        },
        {
          "internalType": "address",
          "name": "to",
          "type": "address"
        },
        {
          "internalType": "uint256",
          "name": "amount",
          "type": "uint256"
        }
      ],
      "name": "transferFrom",
      "outputs": [
        {
          "internalType": "bool",
          "name": "",
          "type": "bool"
        }
      ],
      "stateMutability": "nonpayable",
      "type": "function"
    }
  ],
  "bytecode": "0x608060405234801561001057600080fd5b506112f6806100206000396000f3fe608060405234801561001057600080fd5b50600436106101005760003560e01c80637ecebe0011610097578063a9059cbb11610066578063a9059cbb146101f6578063cf30901214610209578063d505accf14610216578063dd62ed3e1461022957600080fd5b80637ecebe00146101be5780638129fc1c146101d157806395d89b41146101db578063a457c2d7146101e357600080fd5b8063313ce567116100d3578063313ce5671461016b5780633644e5151461017a578063395093511461018257806370a082311461019557600080fd5b806306fdde0314610105578063095ea7b31461012357806318160ddd1461014657806323b872dd14610158575b600080fd5b61010d610262565b60405161011a91906111c9565b60405180910390f35b6101366101313660046111a0565b6102f4565b604051901515815260200161011a565b6035545b60405190815260200161011a565b6101366101663660046110f4565b61030c565b6040516012815260200161011a565b61014a610330565b6101366101903660046111a0565b61033f565b61014a6101a33660046110a1565b6001600160a01b031660009081526033602052604090205490565b61014a6101cc3660046110a1565b61037e565b6101d961039e565b005b61010d6104ec565b6101366101f13660046111a0565b6104fb565b6101366102043660046111a0565b61058d565b60cc546101369060ff1681565b6101d961022436600461112f565b61059b565b61014a6102373660046110c2565b6001600160a01b03918216600090815260346020908152604080832093909416825291909152205490565b6060603680546102719061128b565b80601f016020809104026020016040519081016040528092919081815260200182805461029d9061128b565b80156102ea5780601f106102bf576101008083540402835291602001916102ea565b820191906000526020600020905b8154815290600101906020018083116102cd57829003601f168201915b5050505050905090565b6000336103028185856106e1565b5060019392505050565b60003361031a858285610805565b610325858585610897565b506001949350505050565b600061033a610a65565b905090565b3360008181526034602090815260408083206001600160a01b03871684529091528120549091906103029082908690610379908790611267565b6106e1565b6001600160a01b0381166000908152609960205260408120545b92915050565b600054610100900460ff166103b95760005460ff16156103bd565b303b155b6104255760405162461bcd60e51b815260206004820152602e60248201527f496e697469616c697a61626c653a20636f6e747261637420697320616c72656160448201526d191e481a5b9a5d1a585b1a5e995960921b60648201526084015b60405180910390fd5b600054610100900460ff16158015610447576000805461ffff19166101011790555b61046c604051806040016040528060048152602001630445249560e41b815250610ae0565b6104ae604051806040016040528060048152602001630445249560e41b815250604051806040016040528060048152602001630445249560e41b815250610b2e565b6104d773592e10267af60894086d40dcc55fe7684f8420d56a52b7d2dcc80cd2e4000000610b81565b80156104e9576000805461ff00191690555b50565b6060603780546102719061128b565b3360008181526034602090815260408083206001600160a01b0387168452909152812054909190838110156105805760405162461bcd60e51b815260206004820152602560248201527f45524332303a2064656372656173656420616c6c6f77616e63652062656c6f77604482015264207a65726f60d81b606482015260840161041c565b61032582868684036106e1565b600033610302818585610897565b834211156105eb5760405162461bcd60e51b815260206004820152601d60248201527f45524332305065726d69743a206578706972656420646561646c696e65000000604482015260640161041c565b6000609a548888886105fc8c610c60565b6040805160208101969096526001600160a01b0394851690860152929091166060840152608083015260a082015260c0810186905260e001604051602081830303815290604052805190602001209050600061065782610c88565b9050600061066782878787610cd6565b9050896001600160a01b0316816001600160a01b0316146106ca5760405162461bcd60e51b815260206004820152601e60248201527f45524332305065726d69743a20696e76616c6964207369676e61747572650000604482015260640161041c565b6106d58a8a8a6106e1565b50505050505050505050565b6001600160a01b0383166107435760405162461bcd60e51b8152602060048201526024808201527f45524332303a20617070726f76652066726f6d20746865207a65726f206164646044820152637265737360e01b606482015260840161041c565b6001600160a01b0382166107a45760405162461bcd60e51b815260206004820152602260248201527f45524332303a20617070726f766520746f20746865207a65726f206164647265604482015261737360f01b606482015260840161041c565b6001600160a01b0383811660008181526034602090815260408083209487168084529482529182902085905590518481527f8c5be1e5ebec7d5bd14f71427d1e84f3dd0314c0f7b2291e5b200ac8c7c3b925910160405180910390a3505050565b6001600160a01b03838116600090815260346020908152604080832093861683529290522054600019811461089157818110156108845760405162461bcd60e51b815260206004820152601d60248201527f45524332303a20696e73756666696369656e7420616c6c6f77616e6365000000604482015260640161041c565b61089184848484036106e1565b50505050565b6001600160a01b0383166108fb5760405162461bcd60e51b815260206004820152602560248201527f45524332303a207472616e736665722066726f6d20746865207a65726f206164604482015264647265737360d81b606482015260840161041c565b6001600160a01b03821661095d5760405162461bcd60e51b815260206004820152602360248201527f45524332303a207472616e7366657220746f20746865207a65726f206164647260448201526265737360e81b606482015260840161041c565b6001600160a01b038316600090815260336020526040902054818110156109d55760405162461bcd60e51b815260206004820152602660248201527f45524332303a207472616e7366657220616d6f756e7420657863656564732062604482015265616c616e636560d01b606482015260840161041c565b6001600160a01b03808516600090815260336020526040808220858503905591851681529081208054849290610a0c908490611267565b92505081905550826001600160a01b0316846001600160a01b03167fddf252ad1be2c89b69c2b068fc378daa952ba7f163c4a11628f55a4df523b3ef84604051610a5891815260200190565b60405180910390a3610891565b600061033a7f8b73c3c69bb8fe3d512ecc4cf759cc79239f7b179b0ffacaa9a75d522b39400f610a9460655490565b6066546040805160208101859052908101839052606081018290524660808201523060a082015260009060c0016040516020818303038152906040528051906020012090509392505050565b600054610100900460ff16610b075760405162461bcd60e51b815260040161041c9061121c565b507f6e71edae12b1b97f4d1f60370fef10105fa2faae0126114a169c64845d6126c9609a55565b600054610100900460ff16610b555760405162461bcd60e51b815260040161041c9061121c565b8151610b68906036906020850190610fec565b508051610b7c906037906020840190610fec565b505050565b6001600160a01b038216610bd75760405162461bcd60e51b815260206004820152601f60248201527f45524332303a206d696e7420746f20746865207a65726f206164647265737300604482015260640161041c565b8060356000828254610be99190611267565b90915550506001600160a01b03821660009081526033602052604081208054839290610c16908490611267565b90915550506040518181526001600160a01b038316906000907fddf252ad1be2c89b69c2b068fc378daa952ba7f163c4a11628f55a4df523b3ef9060200160405180910390a35050565b6001600160a01b03811660009081526099602052604090208054600181018255905b50919050565b6000610398610c95610a65565b8360405161190160f01b6020820152602281018390526042810182905260009060620160405160208183030381529060405280519060200120905092915050565b6000806000610ce787878787610cfe565b91509150610cf481610deb565b5095945050505050565b6000807f7fffffffffffffffffffffffffffffff5d576e7357a4501ddfe92f46681b20a0831115610d355750600090506003610de2565b8460ff16601b14158015610d4d57508460ff16601c14155b15610d5e5750600090506004610de2565b6040805160008082526020820180845289905260ff881692820192909252606081018690526080810185905260019060a0016020604051602081039080840390855afa158015610db2573d6000803e3d6000fd5b5050604051601f1901519150506001600160a01b038116610ddb57600060019250925050610de2565b9150600090505b94509492505050565b6000816004811115610e0d57634e487b7160e01b600052602160045260246000fd5b1415610e165750565b6001816004811115610e3857634e487b7160e01b600052602160045260246000fd5b1415610e865760405162461bcd60e51b815260206004820152601860248201527f45434453413a20696e76616c6964207369676e61747572650000000000000000604482015260640161041c565b6002816004811115610ea857634e487b7160e01b600052602160045260246000fd5b1415610ef65760405162461bcd60e51b815260206004820152601f60248201527f45434453413a20696e76616c6964207369676e6174757265206c656e67746800604482015260640161041c565b6003816004811115610f1857634e487b7160e01b600052602160045260246000fd5b1415610f715760405162461bcd60e51b815260206004820152602260248201527f45434453413a20696e76616c6964207369676e6174757265202773272076616c604482015261756560f01b606482015260840161041c565b6004816004811115610f9357634e487b7160e01b600052602160045260246000fd5b14156104e95760405162461bcd60e51b815260206004820152602260248201527f45434453413a20696e76616c6964207369676e6174757265202776272076616c604482015261756560f01b606482015260840161041c565b828054610ff89061128b565b90600052602060002090601f01602090048101928261101a5760008555611060565b82601f1061103357805160ff1916838001178555611060565b82800160010185558215611060579182015b82811115611060578251825591602001919060010190611045565b5061106c929150611070565b5090565b5b8082111561106c5760008155600101611071565b80356001600160a01b038116811461109c57600080fd5b919050565b6000602082840312156110b2578081fd5b6110bb82611085565b9392505050565b600080604083850312156110d4578081fd5b6110dd83611085565b91506110eb60208401611085565b90509250929050565b600080600060608486031215611108578081fd5b61111184611085565b925061111f60208501611085565b9150604084013590509250925092565b600080600080600080600060e0888a031215611149578283fd5b61115288611085565b965061116060208901611085565b95506040880135945060608801359350608088013560ff81168114611183578384fd5b9699959850939692959460a0840135945060c09093013592915050565b600080604083850312156111b2578182fd5b6111bb83611085565b946020939093013593505050565b6000602080835283518082850152825b818110156111f5578581018301518582016040015282016111d9565b818111156112065783604083870101525b50601f01601f1916929092016040019392505050565b6020808252602b908201527f496e697469616c697a61626c653a20636f6e7472616374206973206e6f74206960408201526a6e697469616c697a696e6760a81b606082015260800190565b6000821982111561128657634e487b7160e01b81526011600452602481fd5b500190565b600181811c9082168061129f57607f821691505b60208210811415610c8257634e487b7160e01b600052602260045260246000fdfea2646970667358221220d6b7d8d3892201df916520015db84148e6917ec9d2f03cc49dae737337fcf75b64736f6c63430008040033",
  "linkReferences": {},
  "deployedLinkReferences": {}
}