{
  "_format": "hh-sol-artifact-1",
  "contractName": "DRIP",
  "sourceName": "contracts/token/DRIP.sol",
  "abi": [
    {
      "anonymous": false,
      "inputs": [
        {
          "indexed": true,
          "internalType": "address",
          "name": "owner",
          "type": "address"
        },
        {
          "indexed": true,
          "internalType": "address",
          "name": "spender",
          "type": "address"
        },
        {
          "indexed": false,
          "internalType": "uint256",
          "name": "value",
          "type": "uint256"
        }
      ],
      "name": "Approval",
      "type": "event"
    },
    {
      "anonymous": false,
      "inputs": [
        {
          "indexed": true,
          "internalType": "address",
          "name": "from",
          "type": "address"
        },
        {
          "indexed": true,
          "internalType": "address",
          "name": "to",
          "type": "address"
        },
        {
          "indexed": false,
          "internalType": "uint256",
          "name": "value",
          "type": "uint256"
        }
      ],
      "name": "Transfer",
      "type": "event"
    },
    {
      "inputs": [],
      "name": "DOMAIN_SEPARATOR",
      "outputs": [
        {
          "internalType": "bytes32",
          "name": "",
          "type": "bytes32"
        }
      ],
      "stateMutability": "view",
      "type": "function"
    },
    {
      "inputs": [
        {
          "internalType": "address",
          "name": "owner",
          "type": "address"
        },
        {
          "internalType": "address",
          "name": "spender",
          "type": "address"
        }
      ],
      "name": "allowance",
      "outputs": [
        {
          "internalType": "uint256",
          "name": "",
          "type": "uint256"
        }
      ],
      "stateMutability": "view",
      "type": "function"
    },
    {
      "inputs": [
        {
          "internalType": "address",
          "name": "spender",
          "type": "address"
        },
        {
          "internalType": "uint256",
          "name": "amount",
          "type": "uint256"
        }
      ],
      "name": "approve",
      "outputs": [
        {
          "internalType": "bool",
          "name": "",
          "type": "bool"
        }
      ],
      "stateMutability": "nonpayable",
      "type": "function"
    },
    {
      "inputs": [
        {
          "internalType": "address",
          "name": "account",
          "type": "address"
        }
      ],
      "name": "balanceOf",
      "outputs": [
        {
          "internalType": "uint256",
          "name": "",
          "type": "uint256"
        }
      ],
      "stateMutability": "view",
      "type": "function"
    },
    {
      "inputs": [],
      "name": "decimals",
      "outputs": [
        {
          "internalType": "uint8",
          "name": "",
          "type": "uint8"
        }
      ],
      "stateMutability": "view",
      "type": "function"
    },
    {
      "inputs": [
        {
          "internalType": "address",
          "name": "spender",
          "type": "address"
        },
        {
          "internalType": "uint256",
          "name": "subtractedValue",
          "type": "uint256"
        }
      ],
      "name": "decreaseAllowance",
      "outputs": [
        {
          "internalType": "bool",
          "name": "",
          "type": "bool"
        }
      ],
      "stateMutability": "nonpayable",
      "type": "function"
    },
    {
      "inputs": [
        {
          "internalType": "address",
          "name": "spender",
          "type": "address"
        },
        {
          "internalType": "uint256",
          "name": "addedValue",
          "type": "uint256"
        }
      ],
      "name": "increaseAllowance",
      "outputs": [
        {
          "internalType": "bool",
          "name": "",
          "type": "bool"
        }
      ],
      "stateMutability": "nonpayable",
      "type": "function"
    },
    {
      "inputs": [],
      "name": "initialize",
      "outputs": [],
      "stateMutability": "nonpayable",
      "type": "function"
    },
    {
      "inputs": [],
      "name": "name",
      "outputs": [
        {
          "internalType": "string",
          "name": "",
          "type": "string"
        }
      ],
      "stateMutability": "view",
      "type": "function"
    },
    {
      "inputs": [
        {
          "internalType": "address",
          "name": "owner",
          "type": "address"
        }
      ],
      "name": "nonces",
      "outputs": [
        {
          "internalType": "uint256",
          "name": "",
          "type": "uint256"
        }
      ],
      "stateMutability": "view",
      "type": "function"
    },
    {
      "inputs": [
        {
          "internalType": "address",
          "name": "owner",
          "type": "address"
        },
        {
          "internalType": "address",
          "name": "spender",
          "type": "address"
        },
        {
          "internalType": "uint256",
          "name": "value",
          "type": "uint256"
        },
        {
          "internalType": "uint256",
          "name": "deadline",
          "type": "uint256"
        },
        {
          "internalType": "uint8",
          "name": "v",
          "type": "uint8"
        },
        {
          "internalType": "bytes32",
          "name": "r",
          "type": "bytes32"
        },
        {
          "internalType": "bytes32",
          "name": "s",
          "type": "bytes32"
        }
      ],
      "name": "permit",
      "outputs": [],
      "stateMutability": "nonpayable",
      "type": "function"
    },
    {
      "inputs": [],
      "name": "symbol",
      "outputs": [
        {
          "internalType": "string",
          "name": "",
          "type": "string"
        }
      ],
      "stateMutability": "view",
      "type": "function"
    },
    {
      "inputs": [],
      "name": "totalSupply",
      "outputs": [
        {
          "internalType": "uint256",
          "name": "",
          "type": "uint256"
        }
      ],
      "stateMutability": "view",
      "type": "function"
    },
    {
      "inputs": [
        {
          "internalType": "address",
          "name": "to",
          "type": "address"
        },
        {
          "internalType": "uint256",
          "name": "amount",
          "type": "uint256"
        }
      ],
      "name": "transfer",
      "outputs": [
        {
          "internalType": "bool",
          "name": "",
          "type": "bool"
        }
      ],
      "stateMutability": "nonpayable",
      "type": "function"
    },
    {
      "inputs": [
        {
          "internalType": "address",
          "name": "from",
          "type": "address"
        },
        {
          "internalType": "address",
          "name": "to",
          "type": "address"
        },
        {
          "internalType": "uint256",
          "name": "amount",
          "type": "uint256"
        }
      ],
      "name": "transferFrom",
      "outputs": [
        {
          "internalType": "bool",
          "name": "",
          "type": "bool"
        }
      ],
      "stateMutability": "nonpayable",
      "type": "function"
    }
  ],
  "bytecode": "0x608060405234801561001057600080fd5b506123a4806100206000396000f3fe608060405234801561001057600080fd5b50600436106100f55760003560e01c806370a0823111610097578063a457c2d711610066578063a457c2d71461028a578063a9059cbb146102ba578063d505accf146102ea578063dd62ed3e14610306576100f5565b806370a08231146102025780637ecebe00146102325780638129fc1c1461026257806395d89b411461026c576100f5565b806323b872dd116100d357806323b872dd14610166578063313ce567146101965780633644e515146101b457806339509351146101d2576100f5565b806306fdde03146100fa578063095ea7b31461011857806318160ddd14610148575b600080fd5b610102610336565b60405161010f9190611b83565b60405180910390f35b610132600480360381019061012d9190611739565b6103c8565b60405161013f9190611a54565b60405180910390f35b6101506103eb565b60405161015d9190611d65565b60405180910390f35b610180600480360381019061017b919061164c565b6103f5565b60405161018d9190611a54565b60405180910390f35b61019e610424565b6040516101ab9190611d80565b60405180910390f35b6101bc61042d565b6040516101c99190611a6f565b60405180910390f35b6101ec60048036038101906101e79190611739565b61043c565b6040516101f99190611a54565b60405180910390f35b61021c600480360381019061021791906115e7565b6104e6565b6040516102299190611d65565b60405180910390f35b61024c600480360381019061024791906115e7565b61052f565b6040516102599190611d65565b60405180910390f35b61026a61057f565b005b6102746105f5565b6040516102819190611b83565b60405180910390f35b6102a4600480360381019061029f9190611739565b610687565b6040516102b19190611a54565b60405180910390f35b6102d460048036038101906102cf9190611739565b610771565b6040516102e19190611a54565b60405180910390f35b61030460048036038101906102ff919061169b565b610794565b005b610320600480360381019061031b9190611610565b6108b8565b60405161032d9190611d65565b60405180910390f35b60606036805461034590611eaa565b80601f016020809104026020016040519081016040528092919081815260200182805461037190611eaa565b80156103be5780601f10610393576101008083540402835291602001916103be565b820191906000526020600020905b8154815290600101906020018083116103a157829003601f168201915b5050505050905090565b6000806103d361093f565b90506103e0818585610947565b600191505092915050565b6000603554905090565b60008061040061093f565b905061040d858285610b12565b610418858585610b9e565b60019150509392505050565b60006012905090565b6000610437610e22565b905090565b60008061044761093f565b90506104db818585603460008673ffffffffffffffffffffffffffffffffffffffff1673ffffffffffffffffffffffffffffffffffffffff16815260200190815260200160002060008973ffffffffffffffffffffffffffffffffffffffff1673ffffffffffffffffffffffffffffffffffffffff168152602001908152602001600020546104d69190611dc2565b610947565b600191505092915050565b6000603360008373ffffffffffffffffffffffffffffffffffffffff1673ffffffffffffffffffffffffffffffffffffffff168152602001908152602001600020549050919050565b6000610578609960008473ffffffffffffffffffffffffffffffffffffffff1673ffffffffffffffffffffffffffffffffffffffff168152602001908152602001600020610e62565b9050919050565b6105f36040518060400160405280600481526020017f44524950000000000000000000000000000000000000000000000000000000008152506040518060400160405280600481526020017f4452495000000000000000000000000000000000000000000000000000000000815250610e70565b565b60606037805461060490611eaa565b80601f016020809104026020016040519081016040528092919081815260200182805461063090611eaa565b801561067d5780601f106106525761010080835404028352916020019161067d565b820191906000526020600020905b81548152906001019060200180831161066057829003601f168201915b5050505050905090565b60008061069261093f565b90506000603460008373ffffffffffffffffffffffffffffffffffffffff1673ffffffffffffffffffffffffffffffffffffffff16815260200190815260200160002060008673ffffffffffffffffffffffffffffffffffffffff1673ffffffffffffffffffffffffffffffffffffffff16815260200190815260200160002054905083811015610758576040517f08c379a000000000000000000000000000000000000000000000000000000000815260040161074f90611d45565b60405180910390fd5b6107658286868403610947565b60019250505092915050565b60008061077c61093f565b9050610789818585610b9e565b600191505092915050565b834211156107d7576040517f08c379a00000000000000000000000000000000000000000000000000000000081526004016107ce90611c45565b60405180910390fd5b6000609a548888886107e88c610ecd565b896040516020016107fe96959493929190611a8a565b604051602081830303815290604052805190602001209050600061082182610f2b565b9050600061083182878787610f45565b90508973ffffffffffffffffffffffffffffffffffffffff168173ffffffffffffffffffffffffffffffffffffffff16146108a1576040517f08c379a000000000000000000000000000000000000000000000000000000000815260040161089890611cc5565b60405180910390fd5b6108ac8a8a8a610947565b50505050505050505050565b6000603460008473ffffffffffffffffffffffffffffffffffffffff1673ffffffffffffffffffffffffffffffffffffffff16815260200190815260200160002060008373ffffffffffffffffffffffffffffffffffffffff1673ffffffffffffffffffffffffffffffffffffffff16815260200190815260200160002054905092915050565b600033905090565b600073ffffffffffffffffffffffffffffffffffffffff168373ffffffffffffffffffffffffffffffffffffffff1614156109b7576040517f08c379a00000000000000000000000000000000000000000000000000000000081526004016109ae90611d05565b60405180910390fd5b600073ffffffffffffffffffffffffffffffffffffffff168273ffffffffffffffffffffffffffffffffffffffff161415610a27576040517f08c379a0000000000000000000000000000000000000000000000000000000008152600401610a1e90611c05565b60405180910390fd5b80603460008573ffffffffffffffffffffffffffffffffffffffff1673ffffffffffffffffffffffffffffffffffffffff16815260200190815260200160002060008473ffffffffffffffffffffffffffffffffffffffff1673ffffffffffffffffffffffffffffffffffffffff168152602001908152602001600020819055508173ffffffffffffffffffffffffffffffffffffffff168373ffffffffffffffffffffffffffffffffffffffff167f8c5be1e5ebec7d5bd14f71427d1e84f3dd0314c0f7b2291e5b200ac8c7c3b92583604051610b059190611d65565b60405180910390a3505050565b6000610b1e84846108b8565b90507fffffffffffffffffffffffffffffffffffffffffffffffffffffffffffffffff8114610b985781811015610b8a576040517f08c379a0000000000000000000000000000000000000000000000000000000008152600401610b8190611c25565b60405180910390fd5b610b978484848403610947565b5b50505050565b600073ffffffffffffffffffffffffffffffffffffffff168373ffffffffffffffffffffffffffffffffffffffff161415610c0e576040517f08c379a0000000000000000000000000000000000000000000000000000000008152600401610c0590611ce5565b60405180910390fd5b600073ffffffffffffffffffffffffffffffffffffffff168273ffffffffffffffffffffffffffffffffffffffff161415610c7e576040517f08c379a0000000000000000000000000000000000000000000000000000000008152600401610c7590611bc5565b60405180910390fd5b610c89838383610f70565b6000603360008573ffffffffffffffffffffffffffffffffffffffff1673ffffffffffffffffffffffffffffffffffffffff16815260200190815260200160002054905081811015610d10576040517f08c379a0000000000000000000000000000000000000000000000000000000008152600401610d0790611c65565b60405180910390fd5b818103603360008673ffffffffffffffffffffffffffffffffffffffff1673ffffffffffffffffffffffffffffffffffffffff1681526020019081526020016000208190555081603360008573ffffffffffffffffffffffffffffffffffffffff1673ffffffffffffffffffffffffffffffffffffffff1681526020019081526020016000206000828254610da59190611dc2565b925050819055508273ffffffffffffffffffffffffffffffffffffffff168473ffffffffffffffffffffffffffffffffffffffff167fddf252ad1be2c89b69c2b068fc378daa952ba7f163c4a11628f55a4df523b3ef84604051610e099190611d65565b60405180910390a3610e1c848484610f75565b50505050565b6000610e5d7f8b73c3c69bb8fe3d512ecc4cf759cc79239f7b179b0ffacaa9a75d522b39400f610e50610f7a565b610e58610f84565b610f8e565b905090565b600081600001549050919050565b600060019054906101000a900460ff16610ebf576040517f08c379a0000000000000000000000000000000000000000000000000000000008152600401610eb690611d25565b60405180910390fd5b610ec98282610fc8565b5050565b600080609960008473ffffffffffffffffffffffffffffffffffffffff1673ffffffffffffffffffffffffffffffffffffffff1681526020019081526020016000209050610f1a81610e62565b9150610f2581611049565b50919050565b6000610f3e610f38610e22565b8361105f565b9050919050565b6000806000610f5687878787611092565b91509150610f638161119f565b8192505050949350505050565b505050565b505050565b6000606554905090565b6000606654905090565b60008383834630604051602001610fa9959493929190611aeb565b6040516020818303038152906040528051906020012090509392505050565b600060019054906101000a900460ff16611017576040517f08c379a000000000000000000000000000000000000000000000000000000000815260040161100e90611d25565b60405180910390fd5b816036908051906020019061102d9291906114f0565b5080603790805190602001906110449291906114f0565b505050565b6001816000016000828254019250508190555050565b60008282604051602001611074929190611a1d565b60405160208183030381529060405280519060200120905092915050565b6000807f7fffffffffffffffffffffffffffffff5d576e7357a4501ddfe92f46681b20a08360001c11156110cd576000600391509150611196565b601b8560ff16141580156110e55750601c8560ff1614155b156110f7576000600491509150611196565b60006001878787876040516000815260200160405260405161111c9493929190611b3e565b6020604051602081039080840390855afa15801561113e573d6000803e3d6000fd5b505050602060405103519050600073ffffffffffffffffffffffffffffffffffffffff168173ffffffffffffffffffffffffffffffffffffffff16141561118d57600060019250925050611196565b80600092509250505b94509492505050565b600060048111156111d9577f4e487b7100000000000000000000000000000000000000000000000000000000600052602160045260246000fd5b816004811115611212577f4e487b7100000000000000000000000000000000000000000000000000000000600052602160045260246000fd5b141561121d576114ed565b60016004811115611257577f4e487b7100000000000000000000000000000000000000000000000000000000600052602160045260246000fd5b816004811115611290577f4e487b7100000000000000000000000000000000000000000000000000000000600052602160045260246000fd5b14156112d1576040517f08c379a00000000000000000000000000000000000000000000000000000000081526004016112c890611ba5565b60405180910390fd5b6002600481111561130b577f4e487b7100000000000000000000000000000000000000000000000000000000600052602160045260246000fd5b816004811115611344577f4e487b7100000000000000000000000000000000000000000000000000000000600052602160045260246000fd5b1415611385576040517f08c379a000000000000000000000000000000000000000000000000000000000815260040161137c90611be5565b60405180910390fd5b600360048111156113bf577f4e487b7100000000000000000000000000000000000000000000000000000000600052602160045260246000fd5b8160048111156113f8577f4e487b7100000000000000000000000000000000000000000000000000000000600052602160045260246000fd5b1415611439576040517f08c379a000000000000000000000000000000000000000000000000000000000815260040161143090611c85565b60405180910390fd5b600480811115611472577f4e487b7100000000000000000000000000000000000000000000000000000000600052602160045260246000fd5b8160048111156114ab577f4e487b7100000000000000000000000000000000000000000000000000000000600052602160045260246000fd5b14156114ec576040517f08c379a00000000000000000000000000000000000000000000000000000000081526004016114e390611ca5565b60405180910390fd5b5b50565b8280546114fc90611eaa565b90600052602060002090601f01602090048101928261151e5760008555611565565b82601f1061153757805160ff1916838001178555611565565b82800160010185558215611565579182015b82811115611564578251825591602001919060010190611549565b5b5090506115729190611576565b5090565b5b8082111561158f576000816000905550600101611577565b5090565b6000813590506115a281612312565b92915050565b6000813590506115b781612329565b92915050565b6000813590506115cc81612340565b92915050565b6000813590506115e181612357565b92915050565b6000602082840312156115f957600080fd5b600061160784828501611593565b91505092915050565b6000806040838503121561162357600080fd5b600061163185828601611593565b925050602061164285828601611593565b9150509250929050565b60008060006060848603121561166157600080fd5b600061166f86828701611593565b935050602061168086828701611593565b9250506040611691868287016115bd565b9150509250925092565b600080600080600080600060e0888a0312156116b657600080fd5b60006116c48a828b01611593565b97505060206116d58a828b01611593565b96505060406116e68a828b016115bd565b95505060606116f78a828b016115bd565b94505060806117088a828b016115d2565b93505060a06117198a828b016115a8565b92505060c061172a8a828b016115a8565b91505092959891949750929550565b6000806040838503121561174c57600080fd5b600061175a85828601611593565b925050602061176b858286016115bd565b9150509250929050565b61177e81611e18565b82525050565b61178d81611e2a565b82525050565b61179c81611e36565b82525050565b6117b36117ae82611e36565b611edc565b82525050565b60006117c482611d9b565b6117ce8185611da6565b93506117de818560208601611e77565b6117e781611f44565b840191505092915050565b60006117ff601883611da6565b915061180a82611f55565b602082019050919050565b6000611822602383611da6565b915061182d82611f7e565b604082019050919050565b6000611845601f83611da6565b915061185082611fcd565b602082019050919050565b6000611868602283611da6565b915061187382611ff6565b604082019050919050565b600061188b600283611db7565b915061189682612045565b600282019050919050565b60006118ae601d83611da6565b91506118b98261206e565b602082019050919050565b60006118d1601d83611da6565b91506118dc82612097565b602082019050919050565b60006118f4602683611da6565b91506118ff826120c0565b604082019050919050565b6000611917602283611da6565b91506119228261210f565b604082019050919050565b600061193a602283611da6565b91506119458261215e565b604082019050919050565b600061195d601e83611da6565b9150611968826121ad565b602082019050919050565b6000611980602583611da6565b915061198b826121d6565b604082019050919050565b60006119a3602483611da6565b91506119ae82612225565b604082019050919050565b60006119c6602b83611da6565b91506119d182612274565b604082019050919050565b60006119e9602583611da6565b91506119f4826122c3565b604082019050919050565b611a0881611e60565b82525050565b611a1781611e6a565b82525050565b6000611a288261187e565b9150611a3482856117a2565b602082019150611a4482846117a2565b6020820191508190509392505050565b6000602082019050611a696000830184611784565b92915050565b6000602082019050611a846000830184611793565b92915050565b600060c082019050611a9f6000830189611793565b611aac6020830188611775565b611ab96040830187611775565b611ac660608301866119ff565b611ad360808301856119ff565b611ae060a08301846119ff565b979650505050505050565b600060a082019050611b006000830188611793565b611b0d6020830187611793565b611b1a6040830186611793565b611b2760608301856119ff565b611b346080830184611775565b9695505050505050565b6000608082019050611b536000830187611793565b611b606020830186611a0e565b611b6d6040830185611793565b611b7a6060830184611793565b95945050505050565b60006020820190508181036000830152611b9d81846117b9565b905092915050565b60006020820190508181036000830152611bbe816117f2565b9050919050565b60006020820190508181036000830152611bde81611815565b9050919050565b60006020820190508181036000830152611bfe81611838565b9050919050565b60006020820190508181036000830152611c1e8161185b565b9050919050565b60006020820190508181036000830152611c3e816118a1565b9050919050565b60006020820190508181036000830152611c5e816118c4565b9050919050565b60006020820190508181036000830152611c7e816118e7565b9050919050565b60006020820190508181036000830152611c9e8161190a565b9050919050565b60006020820190508181036000830152611cbe8161192d565b9050919050565b60006020820190508181036000830152611cde81611950565b9050919050565b60006020820190508181036000830152611cfe81611973565b9050919050565b60006020820190508181036000830152611d1e81611996565b9050919050565b60006020820190508181036000830152611d3e816119b9565b9050919050565b60006020820190508181036000830152611d5e816119dc565b9050919050565b6000602082019050611d7a60008301846119ff565b92915050565b6000602082019050611d956000830184611a0e565b92915050565b600081519050919050565b600082825260208201905092915050565b600081905092915050565b6000611dcd82611e60565b9150611dd883611e60565b9250827fffffffffffffffffffffffffffffffffffffffffffffffffffffffffffffffff03821115611e0d57611e0c611ee6565b5b828201905092915050565b6000611e2382611e40565b9050919050565b60008115159050919050565b6000819050919050565b600073ffffffffffffffffffffffffffffffffffffffff82169050919050565b6000819050919050565b600060ff82169050919050565b60005b83811015611e95578082015181840152602081019050611e7a565b83811115611ea4576000848401525b50505050565b60006002820490506001821680611ec257607f821691505b60208210811415611ed657611ed5611f15565b5b50919050565b6000819050919050565b7f4e487b7100000000000000000000000000000000000000000000000000000000600052601160045260246000fd5b7f4e487b7100000000000000000000000000000000000000000000000000000000600052602260045260246000fd5b6000601f19601f8301169050919050565b7f45434453413a20696e76616c6964207369676e61747572650000000000000000600082015250565b7f45524332303a207472616e7366657220746f20746865207a65726f206164647260008201527f6573730000000000000000000000000000000000000000000000000000000000602082015250565b7f45434453413a20696e76616c6964207369676e6174757265206c656e67746800600082015250565b7f45524332303a20617070726f766520746f20746865207a65726f20616464726560008201527f7373000000000000000000000000000000000000000000000000000000000000602082015250565b7f1901000000000000000000000000000000000000000000000000000000000000600082015250565b7f45524332303a20696e73756666696369656e7420616c6c6f77616e6365000000600082015250565b7f45524332305065726d69743a206578706972656420646561646c696e65000000600082015250565b7f45524332303a207472616e7366657220616d6f756e742065786365656473206260008201527f616c616e63650000000000000000000000000000000000000000000000000000602082015250565b7f45434453413a20696e76616c6964207369676e6174757265202773272076616c60008201527f7565000000000000000000000000000000000000000000000000000000000000602082015250565b7f45434453413a20696e76616c6964207369676e6174757265202776272076616c60008201527f7565000000000000000000000000000000000000000000000000000000000000602082015250565b7f45524332305065726d69743a20696e76616c6964207369676e61747572650000600082015250565b7f45524332303a207472616e736665722066726f6d20746865207a65726f20616460008201527f6472657373000000000000000000000000000000000000000000000000000000602082015250565b7f45524332303a20617070726f76652066726f6d20746865207a65726f2061646460008201527f7265737300000000000000000000000000000000000000000000000000000000602082015250565b7f496e697469616c697a61626c653a20636f6e7472616374206973206e6f74206960008201527f6e697469616c697a696e67000000000000000000000000000000000000000000602082015250565b7f45524332303a2064656372656173656420616c6c6f77616e63652062656c6f7760008201527f207a65726f000000000000000000000000000000000000000000000000000000602082015250565b61231b81611e18565b811461232657600080fd5b50565b61233281611e36565b811461233d57600080fd5b50565b61234981611e60565b811461235457600080fd5b50565b61236081611e6a565b811461236b57600080fd5b5056fea2646970667358221220ae46b0a1ee568dc7f839db45158caf6e2f96f687777023abc0c9aad4fa3e0aef64736f6c63430008040033",
  "linkReferences": {},
  "deployedLinkReferences": {}
}