{
  "_format": "hh-sol-artifact-1",
  "contractName": "DRIP",
  "sourceName": "contracts/Drip.sol",
  "abi": [
    {
      "inputs": [],
      "stateMutability": "nonpayable",
      "type": "constructor"
    },
    {
      "anonymous": false,
      "inputs": [
        {
          "indexed": true,
          "internalType": "address",
          "name": "owner",
          "type": "address"
        },
        {
          "indexed": true,
          "internalType": "address",
          "name": "spender",
          "type": "address"
        },
        {
          "indexed": false,
          "internalType": "uint256",
          "name": "value",
          "type": "uint256"
        }
      ],
      "name": "Approval",
      "type": "event"
    },
    {
      "anonymous": false,
      "inputs": [
        {
          "indexed": true,
          "internalType": "address",
          "name": "caller",
          "type": "address"
        },
        {
          "indexed": true,
          "internalType": "address",
          "name": "owner",
          "type": "address"
        },
        {
          "indexed": false,
          "internalType": "uint256",
          "name": "assets",
          "type": "uint256"
        },
        {
          "indexed": false,
          "internalType": "uint256",
          "name": "shares",
          "type": "uint256"
        }
      ],
      "name": "Deposit",
      "type": "event"
    },
    {
      "anonymous": false,
      "inputs": [
        {
          "indexed": true,
          "internalType": "address",
          "name": "from",
          "type": "address"
        },
        {
          "indexed": true,
          "internalType": "address",
          "name": "to",
          "type": "address"
        },
        {
          "indexed": false,
          "internalType": "uint256",
          "name": "value",
          "type": "uint256"
        }
      ],
      "name": "Transfer",
      "type": "event"
    },
    {
      "anonymous": false,
      "inputs": [
        {
          "indexed": true,
          "internalType": "address",
          "name": "caller",
          "type": "address"
        },
        {
          "indexed": true,
          "internalType": "address",
          "name": "receiver",
          "type": "address"
        },
        {
          "indexed": true,
          "internalType": "address",
          "name": "owner",
          "type": "address"
        },
        {
          "indexed": false,
          "internalType": "uint256",
          "name": "assets",
          "type": "uint256"
        },
        {
          "indexed": false,
          "internalType": "uint256",
          "name": "shares",
          "type": "uint256"
        }
      ],
      "name": "Withdraw",
      "type": "event"
    },
    {
      "inputs": [
        {
          "internalType": "address",
          "name": "owner",
          "type": "address"
        },
        {
          "internalType": "address",
          "name": "spender",
          "type": "address"
        }
      ],
      "name": "allowance",
      "outputs": [
        {
          "internalType": "uint256",
          "name": "",
          "type": "uint256"
        }
      ],
      "stateMutability": "view",
      "type": "function"
    },
    {
      "inputs": [
        {
          "internalType": "address",
          "name": "spender",
          "type": "address"
        },
        {
          "internalType": "uint256",
          "name": "amount",
          "type": "uint256"
        }
      ],
      "name": "approve",
      "outputs": [
        {
          "internalType": "bool",
          "name": "",
          "type": "bool"
        }
      ],
      "stateMutability": "nonpayable",
      "type": "function"
    },
    {
      "inputs": [],
      "name": "asset",
      "outputs": [
        {
          "internalType": "address",
          "name": "",
          "type": "address"
        }
      ],
      "stateMutability": "view",
      "type": "function"
    },
    {
      "inputs": [
        {
          "internalType": "address",
          "name": "account",
          "type": "address"
        }
      ],
      "name": "balanceOf",
      "outputs": [
        {
          "internalType": "uint256",
          "name": "",
          "type": "uint256"
        }
      ],
      "stateMutability": "view",
      "type": "function"
    },
    {
      "inputs": [
        {
          "internalType": "uint256",
          "name": "shares",
          "type": "uint256"
        }
      ],
      "name": "convertToAssets",
      "outputs": [
        {
          "internalType": "uint256",
          "name": "assets",
          "type": "uint256"
        }
      ],
      "stateMutability": "view",
      "type": "function"
    },
    {
      "inputs": [
        {
          "internalType": "uint256",
          "name": "assets",
          "type": "uint256"
        }
      ],
      "name": "convertToShares",
      "outputs": [
        {
          "internalType": "uint256",
          "name": "shares",
          "type": "uint256"
        }
      ],
      "stateMutability": "view",
      "type": "function"
    },
    {
      "inputs": [],
      "name": "decimals",
      "outputs": [
        {
          "internalType": "uint8",
          "name": "",
          "type": "uint8"
        }
      ],
      "stateMutability": "view",
      "type": "function"
    },
    {
      "inputs": [
        {
          "internalType": "address",
          "name": "spender",
          "type": "address"
        },
        {
          "internalType": "uint256",
          "name": "subtractedValue",
          "type": "uint256"
        }
      ],
      "name": "decreaseAllowance",
      "outputs": [
        {
          "internalType": "bool",
          "name": "",
          "type": "bool"
        }
      ],
      "stateMutability": "nonpayable",
      "type": "function"
    },
    {
      "inputs": [
        {
          "internalType": "uint256",
          "name": "assets",
          "type": "uint256"
        },
        {
          "internalType": "address",
          "name": "receiver",
          "type": "address"
        }
      ],
      "name": "deposit",
      "outputs": [
        {
          "internalType": "uint256",
          "name": "",
          "type": "uint256"
        }
      ],
      "stateMutability": "nonpayable",
      "type": "function"
    },
    {
      "inputs": [
        {
          "internalType": "uint256",
          "name": "assets",
          "type": "uint256"
        },
        {
          "internalType": "address",
          "name": "receiver",
          "type": "address"
        },
        {
          "internalType": "uint256",
          "name": "minOut",
          "type": "uint256"
        }
      ],
      "name": "deposit",
      "outputs": [
        {
          "internalType": "uint256",
          "name": "result",
          "type": "uint256"
        }
      ],
      "stateMutability": "nonpayable",
      "type": "function"
    },
    {
      "inputs": [
        {
          "internalType": "address",
          "name": "spender",
          "type": "address"
        },
        {
          "internalType": "uint256",
          "name": "addedValue",
          "type": "uint256"
        }
      ],
      "name": "increaseAllowance",
      "outputs": [
        {
          "internalType": "bool",
          "name": "",
          "type": "bool"
        }
      ],
      "stateMutability": "nonpayable",
      "type": "function"
    },
    {
      "inputs": [
        {
          "internalType": "address",
          "name": "",
          "type": "address"
        }
      ],
      "name": "maxDeposit",
      "outputs": [
        {
          "internalType": "uint256",
          "name": "",
          "type": "uint256"
        }
      ],
      "stateMutability": "view",
      "type": "function"
    },
    {
      "inputs": [
        {
          "internalType": "address",
          "name": "",
          "type": "address"
        }
      ],
      "name": "maxMint",
      "outputs": [
        {
          "internalType": "uint256",
          "name": "",
          "type": "uint256"
        }
      ],
      "stateMutability": "view",
      "type": "function"
    },
    {
      "inputs": [
        {
          "internalType": "address",
          "name": "owner",
          "type": "address"
        }
      ],
      "name": "maxRedeem",
      "outputs": [
        {
          "internalType": "uint256",
          "name": "",
          "type": "uint256"
        }
      ],
      "stateMutability": "view",
      "type": "function"
    },
    {
      "inputs": [
        {
          "internalType": "address",
          "name": "owner",
          "type": "address"
        }
      ],
      "name": "maxWithdraw",
      "outputs": [
        {
          "internalType": "uint256",
          "name": "",
          "type": "uint256"
        }
      ],
      "stateMutability": "view",
      "type": "function"
    },
    {
      "inputs": [
        {
          "internalType": "uint256",
          "name": "shares",
          "type": "uint256"
        },
        {
          "internalType": "address",
          "name": "receiver",
          "type": "address"
        },
        {
          "internalType": "uint256",
          "name": "minOut",
          "type": "uint256"
        }
      ],
      "name": "mint",
      "outputs": [
        {
          "internalType": "uint256",
          "name": "result",
          "type": "uint256"
        }
      ],
      "stateMutability": "nonpayable",
      "type": "function"
    },
    {
      "inputs": [
        {
          "internalType": "uint256",
          "name": "shares",
          "type": "uint256"
        },
        {
          "internalType": "address",
          "name": "receiver",
          "type": "address"
        }
      ],
      "name": "mint",
      "outputs": [
        {
          "internalType": "uint256",
          "name": "",
          "type": "uint256"
        }
      ],
      "stateMutability": "nonpayable",
      "type": "function"
    },
    {
      "inputs": [],
      "name": "name",
      "outputs": [
        {
          "internalType": "string",
          "name": "",
          "type": "string"
        }
      ],
      "stateMutability": "view",
      "type": "function"
    },
    {
      "inputs": [
        {
          "internalType": "uint256",
          "name": "assets",
          "type": "uint256"
        }
      ],
      "name": "previewDeposit",
      "outputs": [
        {
          "internalType": "uint256",
          "name": "",
          "type": "uint256"
        }
      ],
      "stateMutability": "view",
      "type": "function"
    },
    {
      "inputs": [
        {
          "internalType": "uint256",
          "name": "shares",
          "type": "uint256"
        }
      ],
      "name": "previewMint",
      "outputs": [
        {
          "internalType": "uint256",
          "name": "",
          "type": "uint256"
        }
      ],
      "stateMutability": "view",
      "type": "function"
    },
    {
      "inputs": [
        {
          "internalType": "uint256",
          "name": "shares",
          "type": "uint256"
        }
      ],
      "name": "previewRedeem",
      "outputs": [
        {
          "internalType": "uint256",
          "name": "",
          "type": "uint256"
        }
      ],
      "stateMutability": "view",
      "type": "function"
    },
    {
      "inputs": [
        {
          "internalType": "uint256",
          "name": "assets",
          "type": "uint256"
        }
      ],
      "name": "previewWithdraw",
      "outputs": [
        {
          "internalType": "uint256",
          "name": "",
          "type": "uint256"
        }
      ],
      "stateMutability": "view",
      "type": "function"
    },
    {
      "inputs": [
        {
          "internalType": "uint256",
          "name": "shares",
          "type": "uint256"
        },
        {
          "internalType": "address",
          "name": "receiver",
          "type": "address"
        },
        {
          "internalType": "address",
          "name": "owner",
          "type": "address"
        },
        {
          "internalType": "uint256",
          "name": "minOut",
          "type": "uint256"
        }
      ],
      "name": "redeem",
      "outputs": [
        {
          "internalType": "uint256",
          "name": "result",
          "type": "uint256"
        }
      ],
      "stateMutability": "nonpayable",
      "type": "function"
    },
    {
      "inputs": [
        {
          "internalType": "uint256",
          "name": "shares",
          "type": "uint256"
        },
        {
          "internalType": "address",
          "name": "receiver",
          "type": "address"
        },
        {
          "internalType": "address",
          "name": "owner",
          "type": "address"
        }
      ],
      "name": "redeem",
      "outputs": [
        {
          "internalType": "uint256",
          "name": "",
          "type": "uint256"
        }
      ],
      "stateMutability": "nonpayable",
      "type": "function"
    },
    {
      "inputs": [],
      "name": "symbol",
      "outputs": [
        {
          "internalType": "string",
          "name": "",
          "type": "string"
        }
      ],
      "stateMutability": "view",
      "type": "function"
    },
    {
      "inputs": [],
      "name": "totalAssets",
      "outputs": [
        {
          "internalType": "uint256",
          "name": "",
          "type": "uint256"
        }
      ],
      "stateMutability": "view",
      "type": "function"
    },
    {
      "inputs": [],
      "name": "totalSupply",
      "outputs": [
        {
          "internalType": "uint256",
          "name": "",
          "type": "uint256"
        }
      ],
      "stateMutability": "view",
      "type": "function"
    },
    {
      "inputs": [
        {
          "internalType": "address",
          "name": "to",
          "type": "address"
        },
        {
          "internalType": "uint256",
          "name": "amount",
          "type": "uint256"
        }
      ],
      "name": "transfer",
      "outputs": [
        {
          "internalType": "bool",
          "name": "",
          "type": "bool"
        }
      ],
      "stateMutability": "nonpayable",
      "type": "function"
    },
    {
      "inputs": [
        {
          "internalType": "address",
          "name": "from",
          "type": "address"
        },
        {
          "internalType": "address",
          "name": "to",
          "type": "address"
        },
        {
          "internalType": "uint256",
          "name": "amount",
          "type": "uint256"
        }
      ],
      "name": "transferFrom",
      "outputs": [
        {
          "internalType": "bool",
          "name": "",
          "type": "bool"
        }
      ],
      "stateMutability": "nonpayable",
      "type": "function"
    },
    {
      "inputs": [
        {
          "internalType": "uint256",
          "name": "assets",
          "type": "uint256"
        },
        {
          "internalType": "address",
          "name": "receiver",
          "type": "address"
        },
        {
          "internalType": "address",
          "name": "owner",
          "type": "address"
        },
        {
          "internalType": "uint256",
          "name": "minOut",
          "type": "uint256"
        }
      ],
      "name": "withdraw",
      "outputs": [
        {
          "internalType": "uint256",
          "name": "result",
          "type": "uint256"
        }
      ],
      "stateMutability": "nonpayable",
      "type": "function"
    },
    {
      "inputs": [
        {
          "internalType": "uint256",
          "name": "assets",
          "type": "uint256"
        },
        {
          "internalType": "address",
          "name": "receiver",
          "type": "address"
        },
        {
          "internalType": "address",
          "name": "owner",
          "type": "address"
        }
      ],
      "name": "withdraw",
      "outputs": [
        {
          "internalType": "uint256",
          "name": "",
          "type": "uint256"
        }
      ],
      "stateMutability": "nonpayable",
      "type": "function"
    }
  ],
  "bytecode": "0x60a06040523480156200001157600080fd5b506040805180820182526004808252630445249560e41b60208084018281528551808701909652928552840152815173eb4c2781e4eba804ce9a9803c67d0893436bb27d9391620000669160039190620001df565b5080516200007c906004906020840190620001df565b50505060601b6001600160601b03191660805260405163095ea7b360e01b81527393054188d876f558f4a66b2ef1d97d16edf0895b6004820152600019602482015273eb4c2781e4eba804ce9a9803c67d0893436bb27d9063095ea7b390604401602060405180830381600087803b158015620000f857600080fd5b505af11580156200010d573d6000803e3d6000fd5b505050506040513d601f19601f8201168201806040525081019062000133919062000285565b5060405163095ea7b360e01b815273d51a44d3fae010294c616388b506acda1bfaae4660048201526000196024820152732260fac5e5542a773aa44fbcfedf7c193bc2c5999063095ea7b390604401602060405180830381600087803b1580156200019d57600080fd5b505af1158015620001b2573d6000803e3d6000fd5b505050506040513d601f19601f82011682018060405250810190620001d8919062000285565b50620002eb565b828054620001ed90620002ae565b90600052602060002090601f0160209004810192826200021157600085556200025c565b82601f106200022c57805160ff19168380011785556200025c565b828001600101855582156200025c579182015b828111156200025c5782518255916020019190600101906200023f565b506200026a9291506200026e565b5090565b5b808211156200026a57600081556001016200026f565b60006020828403121562000297578081fd5b81518015158114620002a7578182fd5b9392505050565b600181811c90821680620002c357607f821691505b60208210811415620002e557634e487b7160e01b600052602260045260246000fd5b50919050565b60805160601c612312620003266000396000818161029a01528181610cf101528181610f00015281816111f801526117fc01526123126000f3fe608060405234801561001057600080fd5b50600436106101e55760003560e01c806394bf804d1161010f578063ba087652116100a2578063ce96cb7711610071578063ce96cb7714610414578063d905777e14610427578063dd62ed3e1461043a578063ef8b30f71461040157600080fd5b8063ba087652146103c6578063bc157ac1146103d9578063c63d75b6146103ec578063c6e6f5921461040157600080fd5b8063a457c2d7116100de578063a457c2d71461037a578063a9059cbb1461038d578063b3d7f6b9146103a0578063b460af94146103b357600080fd5b806394bf804d1461033957806395d89b411461034c5780639f40a7b314610354578063a318c1a41461036757600080fd5b8063313ce567116101875780634cdad506116101565780634cdad5061461021a5780636e553f65146102ea57806370a08231146102fd578063836a10401461032657600080fd5b8063313ce5671461027e57806338d52e0f1461028d57806339509351146102c4578063402d267d146102d757600080fd5b8063095ea7b3116101c3578063095ea7b31461022d5780630a28a4771461025057806318160ddd1461026357806323b872dd1461026b57600080fd5b806301e1d114146101ea57806306fdde031461020557806307a2d13a1461021a575b600080fd5b6101f261044d565b6040519081526020015b60405180910390f35b61020d6105ff565b6040516101fc91906120d0565b6101f2610228366004611f64565b610691565b61024061023b366004611f1b565b6106a4565b60405190151581526020016101fc565b6101f261025e366004611f64565b6106bc565b6002546101f2565b610240610279366004611ee0565b6106c9565b604051601281526020016101fc565b6040516001600160a01b037f00000000000000000000000000000000000000000000000000000000000000001681526020016101fc565b6102406102d2366004611f1b565b6106ef565b6101f26102e5366004611e94565b610711565b6101f26102f8366004611f94565b61072f565b6101f261030b366004611e94565b6001600160a01b031660009081526020819052604090205490565b6101f2610334366004612034565b6107a7565b6101f2610347366004611f94565b610845565b61020d61085f565b6101f2610362366004611ff1565b61086e565b6101f2610375366004611ff1565b6109f4565b610240610388366004611f1b565b610a91565b61024061039b366004611f1b565b610b17565b6101f26103ae366004611f64565b610b25565b6101f26103c1366004611fb6565b610b32565b6101f26103d4366004611fb6565b610bae565b6101f26103e7366004612034565b610c22565b6101f26103fa366004611e94565b5060001990565b6101f261040f366004611f64565b610c45565b6101f2610422366004611e94565b610c52565b6101f2610435366004611e94565b610c76565b6101f2610448366004611eae565b610c94565b6040516370a0823160e01b8152306004820152600090819073c4ad29ba4b3c580e6d59105fff484999997675ff906370a082319060240160206040518083038186803b15801561049c57600080fd5b505afa1580156104b0573d6000803e3d6000fd5b505050506040513d601f19601f820116820180604052508101906104d49190611f7c565b6040516327d8462f60e11b8152600481018290526001602482015290915060009073d51a44d3fae010294c616388b506acda1bfaae4690634fb08c5e9060440160206040518083038186803b15801561052c57600080fd5b505afa158015610540573d6000803e3d6000fd5b505050506040513d601f19601f820116820180604052508101906105649190611f7c565b604051635e0d443f60e01b81526001600482015260006024820152604481018290529091507349849c98ae39fff122806c06791fa73784fb367590635e0d443f9060640160206040518083038186803b1580156105c057600080fd5b505afa1580156105d4573d6000803e3d6000fd5b505050506040513d601f19601f820116820180604052508101906105f89190611f7c565b9250505090565b60606003805461060e9061228b565b80601f016020809104026020016040519081016040528092919081815260200182805461063a9061228b565b80156106875780601f1061065c57610100808354040283529160200191610687565b820191906000526020600020905b81548152906001019060200180831161066a57829003601f168201915b5050505050905090565b600061069e826000610cbf565b92915050565b6000336106b2818585610da2565b5060019392505050565b600061069e826001610ec6565b6000336106d7858285610f8f565b6106e2858585611009565b60019150505b9392505050565b6000336106b28185856107028383610c94565b61070c9190612103565b610da2565b600061071b6111d7565b61072657600061069e565b60001992915050565b600061073a82610711565b83111561078e5760405162461bcd60e51b815260206004820152601e60248201527f455243343632363a206465706f736974206d6f7265207468616e206d6178000060448201526064015b60405180910390fd5b600061079984610c45565b90506106e8338486846111f3565b6001600160a01b0382166000908152602081905260408120546107ca8585610845565b50806107eb856001600160a01b031660009081526020819052604090205490565b6107f59190612248565b91508282101561083d5760405162461bcd60e51b8152602060048201526013602482015272151bdbc81b1a5d1d1b19481c9958d95a5d9959606a1b6044820152606401610785565b509392505050565b60008061085184610b25565b90506106e8338483876111f3565b60606004805461060e9061228b565b6040516370a0823160e01b81526001600160a01b0384166004820152600090819073eb4c2781e4eba804ce9a9803c67d0893436bb27d906370a082319060240160206040518083038186803b1580156108c657600080fd5b505afa1580156108da573d6000803e3d6000fd5b505050506040513d601f19601f820116820180604052508101906108fe9190611f7c565b905061090b868686610bae565b506040516370a0823160e01b81526001600160a01b0386166004820152819073eb4c2781e4eba804ce9a9803c67d0893436bb27d906370a082319060240160206040518083038186803b15801561096157600080fd5b505afa158015610975573d6000803e3d6000fd5b505050506040513d601f19601f820116820180604052508101906109999190611f7c565b6109a39190612248565b9150828210156109eb5760405162461bcd60e51b8152602060048201526013602482015272151bdbc81b1a5d1d1b19481c9958d95a5d9959606a1b6044820152606401610785565b50949350505050565b6040516370a0823160e01b81526001600160a01b0384166004820152600090819073eb4c2781e4eba804ce9a9803c67d0893436bb27d906370a082319060240160206040518083038186803b158015610a4c57600080fd5b505afa158015610a60573d6000803e3d6000fd5b505050506040513d601f19601f82011682018060405250810190610a849190611f7c565b905061090b868686610b32565b60003381610a9f8286610c94565b905083811015610aff5760405162461bcd60e51b815260206004820152602560248201527f45524332303a2064656372656173656420616c6c6f77616e63652062656c6f77604482015264207a65726f60d81b6064820152608401610785565b610b0c8286868403610da2565b506001949350505050565b6000336106b2818585611009565b600061069e826001610cbf565b6000610b3d82610c52565b841115610b8c5760405162461bcd60e51b815260206004820152601f60248201527f455243343632363a207769746864726177206d6f7265207468616e206d6178006044820152606401610785565b6000610b97856106bc565b9050610ba6338585888561152a565b949350505050565b6000610bb982610c76565b841115610c085760405162461bcd60e51b815260206004820152601d60248201527f455243343632363a2072656465656d206d6f7265207468616e206d61780000006044820152606401610785565b6000610c1385610691565b9050610ba6338585848961152a565b6001600160a01b0382166000908152602081905260408120546107ca858561072f565b600061069e826000610ec6565b6001600160a01b03811660009081526020819052604081205461069e906000610cbf565b6001600160a01b03811660009081526020819052604081205461069e565b6001600160a01b03918216600090815260016020908152604080832093909416825291909152205490565b600080610ccb60025490565b90508015610cec57610ce7610cde61044d565b8590838661188e565b610ba6565b610ba67f00000000000000000000000000000000000000000000000000000000000000006001600160a01b031663313ce5676040518163ffffffff1660e01b815260040160206040518083038186803b158015610d4857600080fd5b505afa158015610d5c573d6000803e3d6000fd5b505050506040513d601f19601f82011682018060405250810190610d809190612058565b610d8b90600a61217e565b60125b610d9990600a61217e565b8691908661188e565b6001600160a01b038316610e045760405162461bcd60e51b8152602060048201526024808201527f45524332303a20617070726f76652066726f6d20746865207a65726f206164646044820152637265737360e01b6064820152608401610785565b6001600160a01b038216610e655760405162461bcd60e51b815260206004820152602260248201527f45524332303a20617070726f766520746f20746865207a65726f206164647265604482015261737360f01b6064820152608401610785565b6001600160a01b0383811660008181526001602090815260408083209487168084529482529182902085905590518481527f8c5be1e5ebec7d5bd14f71427d1e84f3dd0314c0f7b2291e5b200ac8c7c3b925910160405180910390a3505050565b600080610ed260025490565b9050831580610edf575080155b610eef57610ce781610d9961044d565b610ba6610efe6012600a61217e565b7f00000000000000000000000000000000000000000000000000000000000000006001600160a01b031663313ce5676040518163ffffffff1660e01b815260040160206040518083038186803b158015610f5757600080fd5b505afa158015610f6b573d6000803e3d6000fd5b505050506040513d601f19601f82011682018060405250810190610d8e9190612058565b6000610f9b8484610c94565b905060001981146110035781811015610ff65760405162461bcd60e51b815260206004820152601d60248201527f45524332303a20696e73756666696369656e7420616c6c6f77616e63650000006044820152606401610785565b6110038484848403610da2565b50505050565b6001600160a01b03831661106d5760405162461bcd60e51b815260206004820152602560248201527f45524332303a207472616e736665722066726f6d20746865207a65726f206164604482015264647265737360d81b6064820152608401610785565b6001600160a01b0382166110cf5760405162461bcd60e51b815260206004820152602360248201527f45524332303a207472616e7366657220746f20746865207a65726f206164647260448201526265737360e81b6064820152608401610785565b6001600160a01b038316600090815260208190526040902054818110156111475760405162461bcd60e51b815260206004820152602660248201527f45524332303a207472616e7366657220616d6f756e7420657863656564732062604482015265616c616e636560d01b6064820152608401610785565b6001600160a01b0380851660009081526020819052604080822085850390559185168152908120805484929061117e908490612103565b92505081905550826001600160a01b0316846001600160a01b03167fddf252ad1be2c89b69c2b068fc378daa952ba7f163c4a11628f55a4df523b3ef846040516111ca91815260200190565b60405180910390a3611003565b6000806111e261044d565b11806111ee5750600254155b905090565b61121f7f000000000000000000000000000000000000000000000000000000000000000085308561190c565b6112298382611977565b60007393054188d876f558f4a66b2ef1d97d16edf0895b5a6040805160006024820152600160448201819052606482018890526084808301919091528251808303909101815260a490910182526020810180516001600160e01b0316630f7c084960e21b179052905161129c9190612079565b60006040518083038160008787f1925050503d80600081146112da576040519150601f19603f3d011682016040523d82523d6000602084013e6112df565b606091505b50509050806113235760405162461bcd60e51b815260206004820152601060248201526f2932b721b93b103932bb32b93a32b21760811b6044820152606401610785565b60408051606081018252600080825291516370a0823160e01b81523060048201526020820190732260fac5e5542a773aa44fbcfedf7c193bc2c599906370a082319060240160206040518083038186803b15801561138057600080fd5b505afa158015611394573d6000803e3d6000fd5b505050506040513d601f19601f820116820180604052508101906113b89190611f7c565b815260200160008152509050600073d51a44d3fae010294c616388b506acda1bfaae466001600160a01b03165a604051634515cef360e01b90611402908690600190602401612095565b60408051601f198184030181529181526020820180516001600160e01b03166001600160e01b03199094169390931790925290516114409190612079565b60006040518083038160008787f1925050503d806000811461147e576040519150601f19603f3d011682016040523d82523d6000602084013e611483565b606091505b50509050806114cb5760405162461bcd60e51b81526020600482015260146024820152733a3934a1b93cb83a3799103932bb32b93a32b21760611b6044820152606401610785565b856001600160a01b0316876001600160a01b03167fdcbc1c05240f31ff3ad067ef1ee35ce4997762752e3a095284754544f4c709d78787604051611519929190918252602082015260400190565b60405180910390a350505050505050565b826001600160a01b0316856001600160a01b03161461154e5761154e838683610f8f565b600061155960025490565b6040516370a0823160e01b815230600482015290915060009073d51a44d3fae010294c616388b506acda1bfaae46906370a082319060240160206040518083038186803b1580156115a957600080fd5b505afa1580156115bd573d6000803e3d6000fd5b505050506040513d601f19601f820116820180604052508101906115e19190611f7c565b90506000826115f08386612229565b6115fa919061211b565b9050600073d51a44d3fae010294c616388b506acda1bfaae465a604080516024810186905260016044820181905260648083019190915282518083039091018152608490910182526020810180516001600160e01b0316630d2680e960e11b17905290516116689190612079565b60006040518083038160008787f1925050503d80600081146116a6576040519150601f19603f3d011682016040523d82523d6000602084013e6116ab565b606091505b50509050806116f35760405162461bcd60e51b81526020600482015260146024820152733a3934a1b93cb83a3799103932bb32b93a32b21760611b6044820152606401610785565b60007393054188d876f558f4a66b2ef1d97d16edf0895b5a6040805160006024820152600160448201819052606482018c90526084808301919091528251808303909101815260a490910182526020810180516001600160e01b0316630f7c084960e21b17905290516117669190612079565b60006040518083038160008787f1925050503d80600081146117a4576040519150601f19603f3d011682016040523d82523d6000602084013e6117a9565b606091505b50509050806117ed5760405162461bcd60e51b815260206004820152601060248201526f2932b721b93b103932bb32b93a32b21760811b6044820152606401610785565b6117f78887611a56565b6118227f00000000000000000000000000000000000000000000000000000000000000008a89611ba4565b876001600160a01b0316896001600160a01b03168b6001600160a01b03167ffbde797d201c681b91056529119e0b02407c7bb96a4a2c75c01fc9667232c8db8a8a60405161187a929190918252602082015260400190565b60405180910390a450505050505050505050565b60008061189c868686611bd4565b905060018360028111156118c057634e487b7160e01b600052602160045260246000fd5b1480156118eb5750600084806118e657634e487b7160e01b600052601260045260246000fd5b868809115b156118fe576118fb600182612103565b90505b95945050505050565b505050565b6040516001600160a01b03808516602483015283166044820152606481018290526110039085906323b872dd60e01b906084015b60408051601f198184030181529190526020810180516001600160e01b03166001600160e01b031990931692909217909152611c92565b6001600160a01b0382166119cd5760405162461bcd60e51b815260206004820152601f60248201527f45524332303a206d696e7420746f20746865207a65726f2061646472657373006044820152606401610785565b80600260008282546119df9190612103565b90915550506001600160a01b03821660009081526020819052604081208054839290611a0c908490612103565b90915550506040518181526001600160a01b038316906000907fddf252ad1be2c89b69c2b068fc378daa952ba7f163c4a11628f55a4df523b3ef9060200160405180910390a35050565b6001600160a01b038216611ab65760405162461bcd60e51b815260206004820152602160248201527f45524332303a206275726e2066726f6d20746865207a65726f206164647265736044820152607360f81b6064820152608401610785565b6001600160a01b03821660009081526020819052604090205481811015611b2a5760405162461bcd60e51b815260206004820152602260248201527f45524332303a206275726e20616d6f756e7420657863656564732062616c616e604482015261636560f01b6064820152608401610785565b6001600160a01b0383166000908152602081905260408120838303905560028054849290611b59908490612248565b90915550506040518281526000906001600160a01b038516907fddf252ad1be2c89b69c2b068fc378daa952ba7f163c4a11628f55a4df523b3ef9060200160405180910390a3505050565b6040516001600160a01b03831660248201526044810182905261190790849063a9059cbb60e01b90606401611940565b600080806000198587098587029250828110838203039150508060001415611c1d57838281611c1357634e487b7160e01b600052601260045260246000fd5b04925050506106e8565b808411611c2957600080fd5b60008486880960026001871981018816978890046003810283188082028403028082028403028082028403028082028403028082028403029081029092039091026000889003889004909101858311909403939093029303949094049190911702949350505050565b6000611ce7826040518060400160405280602081526020017f5361666545524332303a206c6f772d6c6576656c2063616c6c206661696c6564815250856001600160a01b0316611d649092919063ffffffff16565b8051909150156119075780806020019051810190611d059190611f44565b6119075760405162461bcd60e51b815260206004820152602a60248201527f5361666545524332303a204552433230206f7065726174696f6e20646964206e6044820152691bdd081cdd58d8d9595960b21b6064820152608401610785565b6060610ba68484600085856001600160a01b0385163b611dc65760405162461bcd60e51b815260206004820152601d60248201527f416464726573733a2063616c6c20746f206e6f6e2d636f6e74726163740000006044820152606401610785565b600080866001600160a01b03168587604051611de29190612079565b60006040518083038185875af1925050503d8060008114611e1f576040519150601f19603f3d011682016040523d82523d6000602084013e611e24565b606091505b5091509150611e34828286611e3f565b979650505050505050565b60608315611e4e5750816106e8565b825115611e5e5782518084602001fd5b8160405162461bcd60e51b815260040161078591906120d0565b80356001600160a01b0381168114611e8f57600080fd5b919050565b600060208284031215611ea5578081fd5b6106e882611e78565b60008060408385031215611ec0578081fd5b611ec983611e78565b9150611ed760208401611e78565b90509250929050565b600080600060608486031215611ef4578081fd5b611efd84611e78565b9250611f0b60208501611e78565b9150604084013590509250925092565b60008060408385031215611f2d578182fd5b611f3683611e78565b946020939093013593505050565b600060208284031215611f55578081fd5b815180151581146106e8578182fd5b600060208284031215611f75578081fd5b5035919050565b600060208284031215611f8d578081fd5b5051919050565b60008060408385031215611fa6578182fd5b82359150611ed760208401611e78565b600080600060608486031215611fca578283fd5b83359250611fda60208501611e78565b9150611fe860408501611e78565b90509250925092565b60008060008060808587031215612006578081fd5b8435935061201660208601611e78565b925061202460408601611e78565b9396929550929360600135925050565b600080600060608486031215612048578283fd5b83359250611f0b60208501611e78565b600060208284031215612069578081fd5b815160ff811681146106e8578182fd5b6000825161208b81846020870161225f565b9190910192915050565b60808101818460005b60038110156120bd57815183526020928301929091019060010161209e565b50505060ff831660608301529392505050565b60208152600082518060208401526120ef81604085016020870161225f565b601f01601f19169190910160400192915050565b60008219821115612116576121166122c6565b500190565b60008261213657634e487b7160e01b81526012600452602481fd5b500490565b600181815b8085111561217657816000190482111561215c5761215c6122c6565b8085161561216957918102915b93841c9390800290612140565b509250929050565b60006106e860ff8416836000826121975750600161069e565b816121a45750600061069e565b81600181146121ba57600281146121c4576121e0565b600191505061069e565b60ff8411156121d5576121d56122c6565b50506001821b61069e565b5060208310610133831016604e8410600b8410161715612203575081810a61069e565b61220d838361213b565b8060001904821115612221576122216122c6565b029392505050565b6000816000190483118215151615612243576122436122c6565b500290565b60008282101561225a5761225a6122c6565b500390565b60005b8381101561227a578181015183820152602001612262565b838111156110035750506000910152565b600181811c9082168061229f57607f821691505b602082108114156122c057634e487b7160e01b600052602260045260246000fd5b50919050565b634e487b7160e01b600052601160045260246000fdfea26469706673582212200e6534da792d724be04e5047abd19ceb220b0f35aa8ca23597b310da1bd7ecac64736f6c63430008040033",
  "linkReferences": {},
  "deployedLinkReferences": {}
}