{
  "_format": "hh-sol-artifact-1",
  "contractName": "DRIP",
  "sourceName": "contracts/Drip.sol",
  "abi": [
    {
      "inputs": [],
      "stateMutability": "nonpayable",
      "type": "constructor"
    },
    {
      "anonymous": false,
      "inputs": [
        {
          "indexed": true,
          "internalType": "address",
          "name": "owner",
          "type": "address"
        },
        {
          "indexed": true,
          "internalType": "address",
          "name": "spender",
          "type": "address"
        },
        {
          "indexed": false,
          "internalType": "uint256",
          "name": "value",
          "type": "uint256"
        }
      ],
      "name": "Approval",
      "type": "event"
    },
    {
      "anonymous": false,
      "inputs": [
        {
          "indexed": true,
          "internalType": "address",
          "name": "caller",
          "type": "address"
        },
        {
          "indexed": true,
          "internalType": "address",
          "name": "owner",
          "type": "address"
        },
        {
          "indexed": false,
          "internalType": "uint256",
          "name": "assets",
          "type": "uint256"
        },
        {
          "indexed": false,
          "internalType": "uint256",
          "name": "shares",
          "type": "uint256"
        }
      ],
      "name": "Deposit",
      "type": "event"
    },
    {
      "anonymous": false,
      "inputs": [
        {
          "indexed": true,
          "internalType": "address",
          "name": "from",
          "type": "address"
        },
        {
          "indexed": true,
          "internalType": "address",
          "name": "to",
          "type": "address"
        },
        {
          "indexed": false,
          "internalType": "uint256",
          "name": "value",
          "type": "uint256"
        }
      ],
      "name": "Transfer",
      "type": "event"
    },
    {
      "anonymous": false,
      "inputs": [
        {
          "indexed": true,
          "internalType": "address",
          "name": "caller",
          "type": "address"
        },
        {
          "indexed": true,
          "internalType": "address",
          "name": "receiver",
          "type": "address"
        },
        {
          "indexed": true,
          "internalType": "address",
          "name": "owner",
          "type": "address"
        },
        {
          "indexed": false,
          "internalType": "uint256",
          "name": "assets",
          "type": "uint256"
        },
        {
          "indexed": false,
          "internalType": "uint256",
          "name": "shares",
          "type": "uint256"
        }
      ],
      "name": "Withdraw",
      "type": "event"
    },
    {
      "inputs": [
        {
          "internalType": "address",
          "name": "owner",
          "type": "address"
        },
        {
          "internalType": "address",
          "name": "spender",
          "type": "address"
        }
      ],
      "name": "allowance",
      "outputs": [
        {
          "internalType": "uint256",
          "name": "",
          "type": "uint256"
        }
      ],
      "stateMutability": "view",
      "type": "function"
    },
    {
      "inputs": [
        {
          "internalType": "address",
          "name": "spender",
          "type": "address"
        },
        {
          "internalType": "uint256",
          "name": "amount",
          "type": "uint256"
        }
      ],
      "name": "approve",
      "outputs": [
        {
          "internalType": "bool",
          "name": "",
          "type": "bool"
        }
      ],
      "stateMutability": "nonpayable",
      "type": "function"
    },
    {
      "inputs": [],
      "name": "asset",
      "outputs": [
        {
          "internalType": "address",
          "name": "",
          "type": "address"
        }
      ],
      "stateMutability": "view",
      "type": "function"
    },
    {
      "inputs": [
        {
          "internalType": "address",
          "name": "account",
          "type": "address"
        }
      ],
      "name": "balanceOf",
      "outputs": [
        {
          "internalType": "uint256",
          "name": "",
          "type": "uint256"
        }
      ],
      "stateMutability": "view",
      "type": "function"
    },
    {
      "inputs": [
        {
          "internalType": "uint256",
          "name": "shares",
          "type": "uint256"
        }
      ],
      "name": "convertToAssets",
      "outputs": [
        {
          "internalType": "uint256",
          "name": "assets",
          "type": "uint256"
        }
      ],
      "stateMutability": "view",
      "type": "function"
    },
    {
      "inputs": [
        {
          "internalType": "uint256",
          "name": "assets",
          "type": "uint256"
        }
      ],
      "name": "convertToShares",
      "outputs": [
        {
          "internalType": "uint256",
          "name": "shares",
          "type": "uint256"
        }
      ],
      "stateMutability": "view",
      "type": "function"
    },
    {
      "inputs": [],
      "name": "decimals",
      "outputs": [
        {
          "internalType": "uint8",
          "name": "",
          "type": "uint8"
        }
      ],
      "stateMutability": "view",
      "type": "function"
    },
    {
      "inputs": [
        {
          "internalType": "address",
          "name": "spender",
          "type": "address"
        },
        {
          "internalType": "uint256",
          "name": "subtractedValue",
          "type": "uint256"
        }
      ],
      "name": "decreaseAllowance",
      "outputs": [
        {
          "internalType": "bool",
          "name": "",
          "type": "bool"
        }
      ],
      "stateMutability": "nonpayable",
      "type": "function"
    },
    {
      "inputs": [
        {
          "internalType": "uint256",
          "name": "assets",
          "type": "uint256"
        },
        {
          "internalType": "address",
          "name": "receiver",
          "type": "address"
        }
      ],
      "name": "deposit",
      "outputs": [
        {
          "internalType": "uint256",
          "name": "",
          "type": "uint256"
        }
      ],
      "stateMutability": "nonpayable",
      "type": "function"
    },
    {
      "inputs": [
        {
          "internalType": "uint256",
          "name": "assets",
          "type": "uint256"
        },
        {
          "internalType": "address",
          "name": "receiver",
          "type": "address"
        },
        {
          "internalType": "uint256",
          "name": "minOut",
          "type": "uint256"
        }
      ],
      "name": "deposit",
      "outputs": [
        {
          "internalType": "uint256",
          "name": "result",
          "type": "uint256"
        }
      ],
      "stateMutability": "nonpayable",
      "type": "function"
    },
    {
      "inputs": [
        {
          "internalType": "address",
          "name": "spender",
          "type": "address"
        },
        {
          "internalType": "uint256",
          "name": "addedValue",
          "type": "uint256"
        }
      ],
      "name": "increaseAllowance",
      "outputs": [
        {
          "internalType": "bool",
          "name": "",
          "type": "bool"
        }
      ],
      "stateMutability": "nonpayable",
      "type": "function"
    },
    {
      "inputs": [
        {
          "internalType": "address",
          "name": "",
          "type": "address"
        }
      ],
      "name": "maxDeposit",
      "outputs": [
        {
          "internalType": "uint256",
          "name": "",
          "type": "uint256"
        }
      ],
      "stateMutability": "view",
      "type": "function"
    },
    {
      "inputs": [
        {
          "internalType": "address",
          "name": "",
          "type": "address"
        }
      ],
      "name": "maxMint",
      "outputs": [
        {
          "internalType": "uint256",
          "name": "",
          "type": "uint256"
        }
      ],
      "stateMutability": "view",
      "type": "function"
    },
    {
      "inputs": [
        {
          "internalType": "address",
          "name": "owner",
          "type": "address"
        }
      ],
      "name": "maxRedeem",
      "outputs": [
        {
          "internalType": "uint256",
          "name": "",
          "type": "uint256"
        }
      ],
      "stateMutability": "view",
      "type": "function"
    },
    {
      "inputs": [
        {
          "internalType": "address",
          "name": "owner",
          "type": "address"
        }
      ],
      "name": "maxWithdraw",
      "outputs": [
        {
          "internalType": "uint256",
          "name": "",
          "type": "uint256"
        }
      ],
      "stateMutability": "view",
      "type": "function"
    },
    {
      "inputs": [
        {
          "internalType": "uint256",
          "name": "shares",
          "type": "uint256"
        },
        {
          "internalType": "address",
          "name": "receiver",
          "type": "address"
        },
        {
          "internalType": "uint256",
          "name": "minOut",
          "type": "uint256"
        }
      ],
      "name": "mint",
      "outputs": [
        {
          "internalType": "uint256",
          "name": "result",
          "type": "uint256"
        }
      ],
      "stateMutability": "nonpayable",
      "type": "function"
    },
    {
      "inputs": [
        {
          "internalType": "uint256",
          "name": "shares",
          "type": "uint256"
        },
        {
          "internalType": "address",
          "name": "receiver",
          "type": "address"
        }
      ],
      "name": "mint",
      "outputs": [
        {
          "internalType": "uint256",
          "name": "",
          "type": "uint256"
        }
      ],
      "stateMutability": "nonpayable",
      "type": "function"
    },
    {
      "inputs": [],
      "name": "name",
      "outputs": [
        {
          "internalType": "string",
          "name": "",
          "type": "string"
        }
      ],
      "stateMutability": "view",
      "type": "function"
    },
    {
      "inputs": [
        {
          "internalType": "uint256",
          "name": "assets",
          "type": "uint256"
        }
      ],
      "name": "previewDeposit",
      "outputs": [
        {
          "internalType": "uint256",
          "name": "",
          "type": "uint256"
        }
      ],
      "stateMutability": "view",
      "type": "function"
    },
    {
      "inputs": [
        {
          "internalType": "uint256",
          "name": "shares",
          "type": "uint256"
        }
      ],
      "name": "previewMint",
      "outputs": [
        {
          "internalType": "uint256",
          "name": "",
          "type": "uint256"
        }
      ],
      "stateMutability": "view",
      "type": "function"
    },
    {
      "inputs": [
        {
          "internalType": "uint256",
          "name": "shares",
          "type": "uint256"
        }
      ],
      "name": "previewRedeem",
      "outputs": [
        {
          "internalType": "uint256",
          "name": "",
          "type": "uint256"
        }
      ],
      "stateMutability": "view",
      "type": "function"
    },
    {
      "inputs": [
        {
          "internalType": "uint256",
          "name": "assets",
          "type": "uint256"
        }
      ],
      "name": "previewWithdraw",
      "outputs": [
        {
          "internalType": "uint256",
          "name": "",
          "type": "uint256"
        }
      ],
      "stateMutability": "view",
      "type": "function"
    },
    {
      "inputs": [
        {
          "internalType": "uint256",
          "name": "shares",
          "type": "uint256"
        },
        {
          "internalType": "address",
          "name": "receiver",
          "type": "address"
        },
        {
          "internalType": "address",
          "name": "owner",
          "type": "address"
        },
        {
          "internalType": "uint256",
          "name": "minOut",
          "type": "uint256"
        }
      ],
      "name": "redeem",
      "outputs": [
        {
          "internalType": "uint256",
          "name": "result",
          "type": "uint256"
        }
      ],
      "stateMutability": "nonpayable",
      "type": "function"
    },
    {
      "inputs": [
        {
          "internalType": "uint256",
          "name": "shares",
          "type": "uint256"
        },
        {
          "internalType": "address",
          "name": "receiver",
          "type": "address"
        },
        {
          "internalType": "address",
          "name": "owner",
          "type": "address"
        }
      ],
      "name": "redeem",
      "outputs": [
        {
          "internalType": "uint256",
          "name": "",
          "type": "uint256"
        }
      ],
      "stateMutability": "nonpayable",
      "type": "function"
    },
    {
      "inputs": [],
      "name": "symbol",
      "outputs": [
        {
          "internalType": "string",
          "name": "",
          "type": "string"
        }
      ],
      "stateMutability": "view",
      "type": "function"
    },
    {
      "inputs": [],
      "name": "totalAssets",
      "outputs": [
        {
          "internalType": "uint256",
          "name": "",
          "type": "uint256"
        }
      ],
      "stateMutability": "view",
      "type": "function"
    },
    {
      "inputs": [],
      "name": "totalSupply",
      "outputs": [
        {
          "internalType": "uint256",
          "name": "",
          "type": "uint256"
        }
      ],
      "stateMutability": "view",
      "type": "function"
    },
    {
      "inputs": [
        {
          "internalType": "address",
          "name": "to",
          "type": "address"
        },
        {
          "internalType": "uint256",
          "name": "amount",
          "type": "uint256"
        }
      ],
      "name": "transfer",
      "outputs": [
        {
          "internalType": "bool",
          "name": "",
          "type": "bool"
        }
      ],
      "stateMutability": "nonpayable",
      "type": "function"
    },
    {
      "inputs": [
        {
          "internalType": "address",
          "name": "from",
          "type": "address"
        },
        {
          "internalType": "address",
          "name": "to",
          "type": "address"
        },
        {
          "internalType": "uint256",
          "name": "amount",
          "type": "uint256"
        }
      ],
      "name": "transferFrom",
      "outputs": [
        {
          "internalType": "bool",
          "name": "",
          "type": "bool"
        }
      ],
      "stateMutability": "nonpayable",
      "type": "function"
    },
    {
      "inputs": [
        {
          "internalType": "uint256",
          "name": "assets",
          "type": "uint256"
        },
        {
          "internalType": "address",
          "name": "receiver",
          "type": "address"
        },
        {
          "internalType": "address",
          "name": "owner",
          "type": "address"
        },
        {
          "internalType": "uint256",
          "name": "minOut",
          "type": "uint256"
        }
      ],
      "name": "withdraw",
      "outputs": [
        {
          "internalType": "uint256",
          "name": "result",
          "type": "uint256"
        }
      ],
      "stateMutability": "nonpayable",
      "type": "function"
    },
    {
      "inputs": [
        {
          "internalType": "uint256",
          "name": "assets",
          "type": "uint256"
        },
        {
          "internalType": "address",
          "name": "receiver",
          "type": "address"
        },
        {
          "internalType": "address",
          "name": "owner",
          "type": "address"
        }
      ],
      "name": "withdraw",
      "outputs": [
        {
          "internalType": "uint256",
          "name": "",
          "type": "uint256"
        }
      ],
      "stateMutability": "nonpayable",
      "type": "function"
    }
  ],
  "bytecode": "0x60a06040523480156200001157600080fd5b506040805180820182526004808252630445249560e41b60208084018281528551808701909652928552840152815173eb4c2781e4eba804ce9a9803c67d0893436bb27d9391620000669160039190620001df565b5080516200007c906004906020840190620001df565b50505060601b6001600160601b03191660805260405163095ea7b360e01b81527393054188d876f558f4a66b2ef1d97d16edf0895b6004820152600019602482015273eb4c2781e4eba804ce9a9803c67d0893436bb27d9063095ea7b390604401602060405180830381600087803b158015620000f857600080fd5b505af11580156200010d573d6000803e3d6000fd5b505050506040513d601f19601f8201168201806040525081019062000133919062000285565b5060405163095ea7b360e01b815273d51a44d3fae010294c616388b506acda1bfaae4660048201526000196024820152732260fac5e5542a773aa44fbcfedf7c193bc2c5999063095ea7b390604401602060405180830381600087803b1580156200019d57600080fd5b505af1158015620001b2573d6000803e3d6000fd5b505050506040513d601f19601f82011682018060405250810190620001d8919062000285565b50620002eb565b828054620001ed90620002ae565b90600052602060002090601f0160209004810192826200021157600085556200025c565b82601f106200022c57805160ff19168380011785556200025c565b828001600101855582156200025c579182015b828111156200025c5782518255916020019190600101906200023f565b506200026a9291506200026e565b5090565b5b808211156200026a57600081556001016200026f565b60006020828403121562000297578081fd5b81518015158114620002a7578182fd5b9392505050565b600181811c90821680620002c357607f821691505b60208210811415620002e557634e487b7160e01b600052602260045260246000fd5b50919050565b60805160601c61242f620003266000396000818161029a01528181610cf101528181610f00015281816111f80152611919015261242f6000f3fe608060405234801561001057600080fd5b50600436106101e55760003560e01c806394bf804d1161010f578063ba087652116100a2578063ce96cb7711610071578063ce96cb7714610414578063d905777e14610427578063dd62ed3e1461043a578063ef8b30f71461040157600080fd5b8063ba087652146103c6578063bc157ac1146103d9578063c63d75b6146103ec578063c6e6f5921461040157600080fd5b8063a457c2d7116100de578063a457c2d71461037a578063a9059cbb1461038d578063b3d7f6b9146103a0578063b460af94146103b357600080fd5b806394bf804d1461033957806395d89b411461034c5780639f40a7b314610354578063a318c1a41461036757600080fd5b8063313ce567116101875780634cdad506116101565780634cdad5061461021a5780636e553f65146102ea57806370a08231146102fd578063836a10401461032657600080fd5b8063313ce5671461027e57806338d52e0f1461028d57806339509351146102c4578063402d267d146102d757600080fd5b8063095ea7b3116101c3578063095ea7b31461022d5780630a28a4771461025057806318160ddd1461026357806323b872dd1461026b57600080fd5b806301e1d114146101ea57806306fdde031461020557806307a2d13a1461021a575b600080fd5b6101f261044d565b6040519081526020015b60405180910390f35b61020d6105ff565b6040516101fc91906121ed565b6101f2610228366004612081565b610691565b61024061023b366004612038565b6106a4565b60405190151581526020016101fc565b6101f261025e366004612081565b6106bc565b6002546101f2565b610240610279366004611ffd565b6106c9565b604051601281526020016101fc565b6040516001600160a01b037f00000000000000000000000000000000000000000000000000000000000000001681526020016101fc565b6102406102d2366004612038565b6106ef565b6101f26102e5366004611fb1565b610711565b6101f26102f83660046120b1565b61072f565b6101f261030b366004611fb1565b6001600160a01b031660009081526020819052604090205490565b6101f2610334366004612151565b6107a7565b6101f26103473660046120b1565b610845565b61020d61085f565b6101f261036236600461210e565b61086e565b6101f261037536600461210e565b6109f4565b610240610388366004612038565b610a91565b61024061039b366004612038565b610b17565b6101f26103ae366004612081565b610b25565b6101f26103c13660046120d3565b610b32565b6101f26103d43660046120d3565b610bae565b6101f26103e7366004612151565b610c22565b6101f26103fa366004611fb1565b5060001990565b6101f261040f366004612081565b610c45565b6101f2610422366004611fb1565b610c52565b6101f2610435366004611fb1565b610c76565b6101f2610448366004611fcb565b610c94565b6040516370a0823160e01b8152306004820152600090819073c4ad29ba4b3c580e6d59105fff484999997675ff906370a082319060240160206040518083038186803b15801561049c57600080fd5b505afa1580156104b0573d6000803e3d6000fd5b505050506040513d601f19601f820116820180604052508101906104d49190612099565b6040516327d8462f60e11b8152600481018290526001602482015290915060009073d51a44d3fae010294c616388b506acda1bfaae4690634fb08c5e9060440160206040518083038186803b15801561052c57600080fd5b505afa158015610540573d6000803e3d6000fd5b505050506040513d601f19601f820116820180604052508101906105649190612099565b604051635e0d443f60e01b81526001600482015260006024820152604481018290529091507349849c98ae39fff122806c06791fa73784fb367590635e0d443f9060640160206040518083038186803b1580156105c057600080fd5b505afa1580156105d4573d6000803e3d6000fd5b505050506040513d601f19601f820116820180604052508101906105f89190612099565b9250505090565b60606003805461060e906123a8565b80601f016020809104026020016040519081016040528092919081815260200182805461063a906123a8565b80156106875780601f1061065c57610100808354040283529160200191610687565b820191906000526020600020905b81548152906001019060200180831161066a57829003601f168201915b5050505050905090565b600061069e826000610cbf565b92915050565b6000336106b2818585610da2565b5060019392505050565b600061069e826001610ec6565b6000336106d7858285610f8f565b6106e2858585611009565b60019150505b9392505050565b6000336106b28185856107028383610c94565b61070c9190612220565b610da2565b600061071b6111d7565b61072657600061069e565b60001992915050565b600061073a82610711565b83111561078e5760405162461bcd60e51b815260206004820152601e60248201527f455243343632363a206465706f736974206d6f7265207468616e206d6178000060448201526064015b60405180910390fd5b600061079984610c45565b90506106e8338486846111f3565b6001600160a01b0382166000908152602081905260408120546107ca8585610845565b50806107eb856001600160a01b031660009081526020819052604090205490565b6107f59190612365565b91508282101561083d5760405162461bcd60e51b8152602060048201526013602482015272151bdbc81b1a5d1d1b19481c9958d95a5d9959606a1b6044820152606401610785565b509392505050565b60008061085184610b25565b90506106e8338483876111f3565b60606004805461060e906123a8565b6040516370a0823160e01b81526001600160a01b0384166004820152600090819073eb4c2781e4eba804ce9a9803c67d0893436bb27d906370a082319060240160206040518083038186803b1580156108c657600080fd5b505afa1580156108da573d6000803e3d6000fd5b505050506040513d601f19601f820116820180604052508101906108fe9190612099565b905061090b868686610bae565b506040516370a0823160e01b81526001600160a01b0386166004820152819073eb4c2781e4eba804ce9a9803c67d0893436bb27d906370a082319060240160206040518083038186803b15801561096157600080fd5b505afa158015610975573d6000803e3d6000fd5b505050506040513d601f19601f820116820180604052508101906109999190612099565b6109a39190612365565b9150828210156109eb5760405162461bcd60e51b8152602060048201526013602482015272151bdbc81b1a5d1d1b19481c9958d95a5d9959606a1b6044820152606401610785565b50949350505050565b6040516370a0823160e01b81526001600160a01b0384166004820152600090819073eb4c2781e4eba804ce9a9803c67d0893436bb27d906370a082319060240160206040518083038186803b158015610a4c57600080fd5b505afa158015610a60573d6000803e3d6000fd5b505050506040513d601f19601f82011682018060405250810190610a849190612099565b905061090b868686610b32565b60003381610a9f8286610c94565b905083811015610aff5760405162461bcd60e51b815260206004820152602560248201527f45524332303a2064656372656173656420616c6c6f77616e63652062656c6f77604482015264207a65726f60d81b6064820152608401610785565b610b0c8286868403610da2565b506001949350505050565b6000336106b2818585611009565b600061069e826001610cbf565b6000610b3d82610c52565b841115610b8c5760405162461bcd60e51b815260206004820152601f60248201527f455243343632363a207769746864726177206d6f7265207468616e206d6178006044820152606401610785565b6000610b97856106bc565b9050610ba63385858885611647565b949350505050565b6000610bb982610c76565b841115610c085760405162461bcd60e51b815260206004820152601d60248201527f455243343632363a2072656465656d206d6f7265207468616e206d61780000006044820152606401610785565b6000610c1385610691565b9050610ba63385858489611647565b6001600160a01b0382166000908152602081905260408120546107ca858561072f565b600061069e826000610ec6565b6001600160a01b03811660009081526020819052604081205461069e906000610cbf565b6001600160a01b03811660009081526020819052604081205461069e565b6001600160a01b03918216600090815260016020908152604080832093909416825291909152205490565b600080610ccb60025490565b90508015610cec57610ce7610cde61044d565b859083866119ab565b610ba6565b610ba67f00000000000000000000000000000000000000000000000000000000000000006001600160a01b031663313ce5676040518163ffffffff1660e01b815260040160206040518083038186803b158015610d4857600080fd5b505afa158015610d5c573d6000803e3d6000fd5b505050506040513d601f19601f82011682018060405250810190610d809190612175565b610d8b90600a61229b565b60125b610d9990600a61229b565b869190866119ab565b6001600160a01b038316610e045760405162461bcd60e51b8152602060048201526024808201527f45524332303a20617070726f76652066726f6d20746865207a65726f206164646044820152637265737360e01b6064820152608401610785565b6001600160a01b038216610e655760405162461bcd60e51b815260206004820152602260248201527f45524332303a20617070726f766520746f20746865207a65726f206164647265604482015261737360f01b6064820152608401610785565b6001600160a01b0383811660008181526001602090815260408083209487168084529482529182902085905590518481527f8c5be1e5ebec7d5bd14f71427d1e84f3dd0314c0f7b2291e5b200ac8c7c3b925910160405180910390a3505050565b600080610ed260025490565b9050831580610edf575080155b610eef57610ce781610d9961044d565b610ba6610efe6012600a61229b565b7f00000000000000000000000000000000000000000000000000000000000000006001600160a01b031663313ce5676040518163ffffffff1660e01b815260040160206040518083038186803b158015610f5757600080fd5b505afa158015610f6b573d6000803e3d6000fd5b505050506040513d601f19601f82011682018060405250810190610d8e9190612175565b6000610f9b8484610c94565b905060001981146110035781811015610ff65760405162461bcd60e51b815260206004820152601d60248201527f45524332303a20696e73756666696369656e7420616c6c6f77616e63650000006044820152606401610785565b6110038484848403610da2565b50505050565b6001600160a01b03831661106d5760405162461bcd60e51b815260206004820152602560248201527f45524332303a207472616e736665722066726f6d20746865207a65726f206164604482015264647265737360d81b6064820152608401610785565b6001600160a01b0382166110cf5760405162461bcd60e51b815260206004820152602360248201527f45524332303a207472616e7366657220746f20746865207a65726f206164647260448201526265737360e81b6064820152608401610785565b6001600160a01b038316600090815260208190526040902054818110156111475760405162461bcd60e51b815260206004820152602660248201527f45524332303a207472616e7366657220616d6f756e7420657863656564732062604482015265616c616e636560d01b6064820152608401610785565b6001600160a01b0380851660009081526020819052604080822085850390559185168152908120805484929061117e908490612220565b92505081905550826001600160a01b0316846001600160a01b03167fddf252ad1be2c89b69c2b068fc378daa952ba7f163c4a11628f55a4df523b3ef846040516111ca91815260200190565b60405180910390a3611003565b6000806111e261044d565b11806111ee5750600254155b905090565b61121f7f0000000000000000000000000000000000000000000000000000000000000000853085611a29565b6112298382611a94565b60007393054188d876f558f4a66b2ef1d97d16edf0895b5a6040805160006024820152600160448201819052606482018890526084808301919091528251808303909101815260a490910182526020810180516001600160e01b0316630f7c084960e21b179052905161129c9190612196565b60006040518083038160008787f1925050503d80600081146112da576040519150601f19603f3d011682016040523d82523d6000602084013e6112df565b606091505b50509050806113235760405162461bcd60e51b815260206004820152601060248201526f2932b721b93b103932bb32b93a32b21760811b6044820152606401610785565b60408051606081018252600080825291516370a0823160e01b81523060048201526020820190732260fac5e5542a773aa44fbcfedf7c193bc2c599906370a082319060240160206040518083038186803b15801561138057600080fd5b505afa158015611394573d6000803e3d6000fd5b505050506040513d601f19601f820116820180604052508101906113b89190612099565b815260200160008152509050600073d51a44d3fae010294c616388b506acda1bfaae466001600160a01b03165a604051634515cef360e01b906114029086906001906024016121b2565b60408051601f198184030181529181526020820180516001600160e01b03166001600160e01b03199094169390931790925290516114409190612196565b60006040518083038160008787f1925050503d806000811461147e576040519150601f19603f3d011682016040523d82523d6000602084013e611483565b606091505b50509050806114cb5760405162461bcd60e51b81526020600482015260146024820152733a3934a1b93cb83a3799103932bb32b93a32b21760611b6044820152606401610785565b6040516370a0823160e01b815230600482015273f403c135812408bfbe8713b5a23a04b3d48aae31906343a0d06690602690732260fac5e5542a773aa44fbcfedf7c193bc2c599906370a082319060240160206040518083038186803b15801561153457600080fd5b505afa158015611548573d6000803e3d6000fd5b505050506040513d601f19601f8201168201806040525081019061156c9190612099565b6040516001600160e01b031960e085901b168152600481019290925260248201526001604482015260640160206040518083038186803b1580156115af57600080fd5b505afa1580156115c3573d6000803e3d6000fd5b505050506040513d601f19601f820116820180604052508101906115e79190612061565b50856001600160a01b0316876001600160a01b03167fdcbc1c05240f31ff3ad067ef1ee35ce4997762752e3a095284754544f4c709d78787604051611636929190918252602082015260400190565b60405180910390a350505050505050565b826001600160a01b0316856001600160a01b03161461166b5761166b838683610f8f565b600061167660025490565b6040516370a0823160e01b815230600482015290915060009073d51a44d3fae010294c616388b506acda1bfaae46906370a082319060240160206040518083038186803b1580156116c657600080fd5b505afa1580156116da573d6000803e3d6000fd5b505050506040513d601f19601f820116820180604052508101906116fe9190612099565b905060008261170d8386612346565b6117179190612238565b9050600073d51a44d3fae010294c616388b506acda1bfaae465a604080516024810186905260016044820181905260648083019190915282518083039091018152608490910182526020810180516001600160e01b0316630d2680e960e11b17905290516117859190612196565b60006040518083038160008787f1925050503d80600081146117c3576040519150601f19603f3d011682016040523d82523d6000602084013e6117c8565b606091505b50509050806118105760405162461bcd60e51b81526020600482015260146024820152733a3934a1b93cb83a3799103932bb32b93a32b21760611b6044820152606401610785565b60007393054188d876f558f4a66b2ef1d97d16edf0895b5a6040805160006024820152600160448201819052606482018c90526084808301919091528251808303909101815260a490910182526020810180516001600160e01b0316630f7c084960e21b17905290516118839190612196565b60006040518083038160008787f1925050503d80600081146118c1576040519150601f19603f3d011682016040523d82523d6000602084013e6118c6565b606091505b505090508061190a5760405162461bcd60e51b815260206004820152601060248201526f2932b721b93b103932bb32b93a32b21760811b6044820152606401610785565b6119148887611b73565b61193f7f00000000000000000000000000000000000000000000000000000000000000008a89611cc1565b876001600160a01b0316896001600160a01b03168b6001600160a01b03167ffbde797d201c681b91056529119e0b02407c7bb96a4a2c75c01fc9667232c8db8a8a604051611997929190918252602082015260400190565b60405180910390a450505050505050505050565b6000806119b9868686611cf1565b905060018360028111156119dd57634e487b7160e01b600052602160045260246000fd5b148015611a08575060008480611a0357634e487b7160e01b600052601260045260246000fd5b868809115b15611a1b57611a18600182612220565b90505b95945050505050565b505050565b6040516001600160a01b03808516602483015283166044820152606481018290526110039085906323b872dd60e01b906084015b60408051601f198184030181529190526020810180516001600160e01b03166001600160e01b031990931692909217909152611daf565b6001600160a01b038216611aea5760405162461bcd60e51b815260206004820152601f60248201527f45524332303a206d696e7420746f20746865207a65726f2061646472657373006044820152606401610785565b8060026000828254611afc9190612220565b90915550506001600160a01b03821660009081526020819052604081208054839290611b29908490612220565b90915550506040518181526001600160a01b038316906000907fddf252ad1be2c89b69c2b068fc378daa952ba7f163c4a11628f55a4df523b3ef9060200160405180910390a35050565b6001600160a01b038216611bd35760405162461bcd60e51b815260206004820152602160248201527f45524332303a206275726e2066726f6d20746865207a65726f206164647265736044820152607360f81b6064820152608401610785565b6001600160a01b03821660009081526020819052604090205481811015611c475760405162461bcd60e51b815260206004820152602260248201527f45524332303a206275726e20616d6f756e7420657863656564732062616c616e604482015261636560f01b6064820152608401610785565b6001600160a01b0383166000908152602081905260408120838303905560028054849290611c76908490612365565b90915550506040518281526000906001600160a01b038516907fddf252ad1be2c89b69c2b068fc378daa952ba7f163c4a11628f55a4df523b3ef9060200160405180910390a3505050565b6040516001600160a01b038316602482015260448101829052611a2490849063a9059cbb60e01b90606401611a5d565b600080806000198587098587029250828110838203039150508060001415611d3a57838281611d3057634e487b7160e01b600052601260045260246000fd5b04925050506106e8565b808411611d4657600080fd5b60008486880960026001871981018816978890046003810283188082028403028082028403028082028403028082028403028082028403029081029092039091026000889003889004909101858311909403939093029303949094049190911702949350505050565b6000611e04826040518060400160405280602081526020017f5361666545524332303a206c6f772d6c6576656c2063616c6c206661696c6564815250856001600160a01b0316611e819092919063ffffffff16565b805190915015611a245780806020019051810190611e229190612061565b611a245760405162461bcd60e51b815260206004820152602a60248201527f5361666545524332303a204552433230206f7065726174696f6e20646964206e6044820152691bdd081cdd58d8d9595960b21b6064820152608401610785565b6060610ba68484600085856001600160a01b0385163b611ee35760405162461bcd60e51b815260206004820152601d60248201527f416464726573733a2063616c6c20746f206e6f6e2d636f6e74726163740000006044820152606401610785565b600080866001600160a01b03168587604051611eff9190612196565b60006040518083038185875af1925050503d8060008114611f3c576040519150601f19603f3d011682016040523d82523d6000602084013e611f41565b606091505b5091509150611f51828286611f5c565b979650505050505050565b60608315611f6b5750816106e8565b825115611f7b5782518084602001fd5b8160405162461bcd60e51b815260040161078591906121ed565b80356001600160a01b0381168114611fac57600080fd5b919050565b600060208284031215611fc2578081fd5b6106e882611f95565b60008060408385031215611fdd578081fd5b611fe683611f95565b9150611ff460208401611f95565b90509250929050565b600080600060608486031215612011578081fd5b61201a84611f95565b925061202860208501611f95565b9150604084013590509250925092565b6000806040838503121561204a578182fd5b61205383611f95565b946020939093013593505050565b600060208284031215612072578081fd5b815180151581146106e8578182fd5b600060208284031215612092578081fd5b5035919050565b6000602082840312156120aa578081fd5b5051919050565b600080604083850312156120c3578182fd5b82359150611ff460208401611f95565b6000806000606084860312156120e7578283fd5b833592506120f760208501611f95565b915061210560408501611f95565b90509250925092565b60008060008060808587031215612123578081fd5b8435935061213360208601611f95565b925061214160408601611f95565b9396929550929360600135925050565b600080600060608486031215612165578283fd5b8335925061202860208501611f95565b600060208284031215612186578081fd5b815160ff811681146106e8578182fd5b600082516121a881846020870161237c565b9190910192915050565b60808101818460005b60038110156121da5781518352602092830192909101906001016121bb565b50505060ff831660608301529392505050565b602081526000825180602084015261220c81604085016020870161237c565b601f01601f19169190910160400192915050565b60008219821115612233576122336123e3565b500190565b60008261225357634e487b7160e01b81526012600452602481fd5b500490565b600181815b80851115612293578160001904821115612279576122796123e3565b8085161561228657918102915b93841c939080029061225d565b509250929050565b60006106e860ff8416836000826122b45750600161069e565b816122c15750600061069e565b81600181146122d757600281146122e1576122fd565b600191505061069e565b60ff8411156122f2576122f26123e3565b50506001821b61069e565b5060208310610133831016604e8410600b8410161715612320575081810a61069e565b61232a8383612258565b806000190482111561233e5761233e6123e3565b029392505050565b6000816000190483118215151615612360576123606123e3565b500290565b600082821015612377576123776123e3565b500390565b60005b8381101561239757818101518382015260200161237f565b838111156110035750506000910152565b600181811c908216806123bc57607f821691505b602082108114156123dd57634e487b7160e01b600052602260045260246000fd5b50919050565b634e487b7160e01b600052601160045260246000fdfea264697066735822122063b3be9c6af4cf8eb07ce350948fb00244a97ba58ec66c8cfa193af9dea57bad64736f6c63430008040033",
  "linkReferences": {},
  "deployedLinkReferences": {}
}