{
  "_format": "hh-sol-artifact-1",
  "contractName": "DRIPBOND",
  "sourceName": "contracts/token/DRIPBOND.sol",
  "abi": [
    {
      "anonymous": false,
      "inputs": [
        {
          "indexed": true,
          "internalType": "address",
          "name": "owner",
          "type": "address"
        },
        {
          "indexed": true,
          "internalType": "address",
          "name": "approved",
          "type": "address"
        },
        {
          "indexed": true,
          "internalType": "uint256",
          "name": "tokenId",
          "type": "uint256"
        }
      ],
      "name": "Approval",
      "type": "event"
    },
    {
      "anonymous": false,
      "inputs": [
        {
          "indexed": true,
          "internalType": "address",
          "name": "owner",
          "type": "address"
        },
        {
          "indexed": true,
          "internalType": "address",
          "name": "operator",
          "type": "address"
        },
        {
          "indexed": false,
          "internalType": "bool",
          "name": "approved",
          "type": "bool"
        }
      ],
      "name": "ApprovalForAll",
      "type": "event"
    },
    {
      "anonymous": false,
      "inputs": [
        {
          "indexed": true,
          "internalType": "address",
          "name": "holder",
          "type": "address"
        },
        {
          "indexed": true,
          "internalType": "uint256",
          "name": "bond",
          "type": "uint256"
        },
        {
          "indexed": false,
          "internalType": "uint256",
          "name": "maturedValue",
          "type": "uint256"
        }
      ],
      "name": "DripBondBurned",
      "type": "event"
    },
    {
      "anonymous": false,
      "inputs": [
        {
          "indexed": true,
          "internalType": "address",
          "name": "holder",
          "type": "address"
        },
        {
          "indexed": true,
          "internalType": "uint256",
          "name": "bond",
          "type": "uint256"
        },
        {
          "indexed": false,
          "internalType": "uint256",
          "name": "initValue",
          "type": "uint256"
        },
        {
          "indexed": false,
          "internalType": "uint256",
          "name": "maturesAt",
          "type": "uint256"
        }
      ],
      "name": "DripBondMinted",
      "type": "event"
    },
    {
      "anonymous": false,
      "inputs": [
        {
          "indexed": true,
          "internalType": "address",
          "name": "previousOwner",
          "type": "address"
        },
        {
          "indexed": true,
          "internalType": "address",
          "name": "newOwner",
          "type": "address"
        }
      ],
      "name": "OwnershipTransferred",
      "type": "event"
    },
    {
      "anonymous": false,
      "inputs": [
        {
          "indexed": true,
          "internalType": "address",
          "name": "from",
          "type": "address"
        },
        {
          "indexed": true,
          "internalType": "address",
          "name": "to",
          "type": "address"
        },
        {
          "indexed": true,
          "internalType": "uint256",
          "name": "tokenId",
          "type": "uint256"
        }
      ],
      "name": "Transfer",
      "type": "event"
    },
    {
      "inputs": [
        {
          "internalType": "address",
          "name": "to",
          "type": "address"
        },
        {
          "internalType": "uint256",
          "name": "tokenId",
          "type": "uint256"
        }
      ],
      "name": "approve",
      "outputs": [],
      "stateMutability": "nonpayable",
      "type": "function"
    },
    {
      "inputs": [
        {
          "internalType": "address",
          "name": "owner",
          "type": "address"
        }
      ],
      "name": "balanceOf",
      "outputs": [
        {
          "internalType": "uint256",
          "name": "",
          "type": "uint256"
        }
      ],
      "stateMutability": "view",
      "type": "function"
    },
    {
      "inputs": [
        {
          "internalType": "uint256",
          "name": "",
          "type": "uint256"
        }
      ],
      "name": "bonds",
      "outputs": [
        {
          "internalType": "bool",
          "name": "spent",
          "type": "bool"
        },
        {
          "internalType": "uint64",
          "name": "maturesAt",
          "type": "uint64"
        },
        {
          "internalType": "uint128",
          "name": "initValue",
          "type": "uint128"
        },
        {
          "internalType": "uint256",
          "name": "rate",
          "type": "uint256"
        }
      ],
      "stateMutability": "view",
      "type": "function"
    },
    {
      "inputs": [
        {
          "internalType": "uint256",
          "name": "idx",
          "type": "uint256"
        }
      ],
      "name": "burn",
      "outputs": [],
      "stateMutability": "nonpayable",
      "type": "function"
    },
    {
      "inputs": [
        {
          "internalType": "uint256",
          "name": "idx",
          "type": "uint256"
        },
        {
          "internalType": "bytes",
          "name": "destination",
          "type": "bytes"
        }
      ],
      "name": "burnToBTC",
      "outputs": [],
      "stateMutability": "payable",
      "type": "function"
    },
    {
      "inputs": [
        {
          "internalType": "uint256",
          "name": "ethAmount",
          "type": "uint256"
        }
      ],
      "name": "computeTargetDRIP",
      "outputs": [
        {
          "internalType": "uint256",
          "name": "",
          "type": "uint256"
        }
      ],
      "stateMutability": "view",
      "type": "function"
    },
    {
      "inputs": [],
      "name": "count",
      "outputs": [
        {
          "internalType": "uint256",
          "name": "",
          "type": "uint256"
        }
      ],
      "stateMutability": "view",
      "type": "function"
    },
    {
      "inputs": [],
      "name": "drip",
      "outputs": [
        {
          "internalType": "address",
          "name": "",
          "type": "address"
        }
      ],
      "stateMutability": "view",
      "type": "function"
    },
    {
      "inputs": [],
      "name": "factory",
      "outputs": [
        {
          "internalType": "address",
          "name": "",
          "type": "address"
        }
      ],
      "stateMutability": "view",
      "type": "function"
    },
    {
      "inputs": [],
      "name": "gateway",
      "outputs": [
        {
          "internalType": "address",
          "name": "",
          "type": "address"
        }
      ],
      "stateMutability": "view",
      "type": "function"
    },
    {
      "inputs": [
        {
          "internalType": "uint256",
          "name": "tokenId",
          "type": "uint256"
        }
      ],
      "name": "getApproved",
      "outputs": [
        {
          "internalType": "address",
          "name": "",
          "type": "address"
        }
      ],
      "stateMutability": "view",
      "type": "function"
    },
    {
      "inputs": [],
      "name": "initialize",
      "outputs": [],
      "stateMutability": "nonpayable",
      "type": "function"
    },
    {
      "inputs": [
        {
          "internalType": "address",
          "name": "owner",
          "type": "address"
        },
        {
          "internalType": "address",
          "name": "operator",
          "type": "address"
        }
      ],
      "name": "isApprovedForAll",
      "outputs": [
        {
          "internalType": "bool",
          "name": "",
          "type": "bool"
        }
      ],
      "stateMutability": "view",
      "type": "function"
    },
    {
      "inputs": [],
      "name": "maturesAfter",
      "outputs": [
        {
          "internalType": "uint256",
          "name": "",
          "type": "uint256"
        }
      ],
      "stateMutability": "view",
      "type": "function"
    },
    {
      "inputs": [],
      "name": "mint",
      "outputs": [
        {
          "internalType": "uint256",
          "name": "",
          "type": "uint256"
        }
      ],
      "stateMutability": "payable",
      "type": "function"
    },
    {
      "inputs": [],
      "name": "name",
      "outputs": [
        {
          "internalType": "string",
          "name": "",
          "type": "string"
        }
      ],
      "stateMutability": "view",
      "type": "function"
    },
    {
      "inputs": [],
      "name": "owner",
      "outputs": [
        {
          "internalType": "address",
          "name": "",
          "type": "address"
        }
      ],
      "stateMutability": "view",
      "type": "function"
    },
    {
      "inputs": [
        {
          "internalType": "uint256",
          "name": "tokenId",
          "type": "uint256"
        }
      ],
      "name": "ownerOf",
      "outputs": [
        {
          "internalType": "address",
          "name": "",
          "type": "address"
        }
      ],
      "stateMutability": "view",
      "type": "function"
    },
    {
      "inputs": [],
      "name": "rate",
      "outputs": [
        {
          "internalType": "uint256",
          "name": "",
          "type": "uint256"
        }
      ],
      "stateMutability": "view",
      "type": "function"
    },
    {
      "inputs": [],
      "name": "renbtc",
      "outputs": [
        {
          "internalType": "address",
          "name": "",
          "type": "address"
        }
      ],
      "stateMutability": "view",
      "type": "function"
    },
    {
      "inputs": [],
      "name": "renounceOwnership",
      "outputs": [],
      "stateMutability": "nonpayable",
      "type": "function"
    },
    {
      "inputs": [],
      "name": "router",
      "outputs": [
        {
          "internalType": "address",
          "name": "",
          "type": "address"
        }
      ],
      "stateMutability": "view",
      "type": "function"
    },
    {
      "inputs": [
        {
          "internalType": "address",
          "name": "from",
          "type": "address"
        },
        {
          "internalType": "address",
          "name": "to",
          "type": "address"
        },
        {
          "internalType": "uint256",
          "name": "tokenId",
          "type": "uint256"
        }
      ],
      "name": "safeTransferFrom",
      "outputs": [],
      "stateMutability": "nonpayable",
      "type": "function"
    },
    {
      "inputs": [
        {
          "internalType": "address",
          "name": "from",
          "type": "address"
        },
        {
          "internalType": "address",
          "name": "to",
          "type": "address"
        },
        {
          "internalType": "uint256",
          "name": "tokenId",
          "type": "uint256"
        },
        {
          "internalType": "bytes",
          "name": "_data",
          "type": "bytes"
        }
      ],
      "name": "safeTransferFrom",
      "outputs": [],
      "stateMutability": "nonpayable",
      "type": "function"
    },
    {
      "inputs": [
        {
          "internalType": "address",
          "name": "operator",
          "type": "address"
        },
        {
          "internalType": "bool",
          "name": "approved",
          "type": "bool"
        }
      ],
      "name": "setApprovalForAll",
      "outputs": [],
      "stateMutability": "nonpayable",
      "type": "function"
    },
    {
      "inputs": [
        {
          "internalType": "uint256",
          "name": "_maturesAfter",
          "type": "uint256"
        }
      ],
      "name": "setMaturity",
      "outputs": [],
      "stateMutability": "nonpayable",
      "type": "function"
    },
    {
      "inputs": [
        {
          "internalType": "uint256",
          "name": "_rate",
          "type": "uint256"
        }
      ],
      "name": "setRate",
      "outputs": [],
      "stateMutability": "nonpayable",
      "type": "function"
    },
    {
      "inputs": [
        {
          "internalType": "uint256",
          "name": "_target",
          "type": "uint256"
        }
      ],
      "name": "setTarget",
      "outputs": [],
      "stateMutability": "nonpayable",
      "type": "function"
    },
    {
      "inputs": [
        {
          "internalType": "bytes4",
          "name": "interfaceId",
          "type": "bytes4"
        }
      ],
      "name": "supportsInterface",
      "outputs": [
        {
          "internalType": "bool",
          "name": "",
          "type": "bool"
        }
      ],
      "stateMutability": "view",
      "type": "function"
    },
    {
      "inputs": [],
      "name": "symbol",
      "outputs": [
        {
          "internalType": "string",
          "name": "",
          "type": "string"
        }
      ],
      "stateMutability": "view",
      "type": "function"
    },
    {
      "inputs": [],
      "name": "target",
      "outputs": [
        {
          "internalType": "uint256",
          "name": "",
          "type": "uint256"
        }
      ],
      "stateMutability": "view",
      "type": "function"
    },
    {
      "inputs": [
        {
          "internalType": "uint256",
          "name": "tokenId",
          "type": "uint256"
        }
      ],
      "name": "tokenURI",
      "outputs": [
        {
          "internalType": "string",
          "name": "",
          "type": "string"
        }
      ],
      "stateMutability": "view",
      "type": "function"
    },
    {
      "inputs": [
        {
          "internalType": "address",
          "name": "from",
          "type": "address"
        },
        {
          "internalType": "address",
          "name": "to",
          "type": "address"
        },
        {
          "internalType": "uint256",
          "name": "tokenId",
          "type": "uint256"
        }
      ],
      "name": "transferFrom",
      "outputs": [],
      "stateMutability": "nonpayable",
      "type": "function"
    },
    {
      "inputs": [
        {
          "internalType": "address",
          "name": "newOwner",
          "type": "address"
        }
      ],
      "name": "transferOwnership",
      "outputs": [],
      "stateMutability": "nonpayable",
      "type": "function"
    },
    {
      "inputs": [],
      "name": "treasury",
      "outputs": [
        {
          "internalType": "address",
          "name": "",
          "type": "address"
        }
      ],
      "stateMutability": "view",
      "type": "function"
    },
    {
      "inputs": [],
      "name": "weth",
      "outputs": [
        {
          "internalType": "address",
          "name": "",
          "type": "address"
        }
      ],
      "stateMutability": "view",
      "type": "function"
    }
  ],
  "bytecode": "0x608060405234801561001057600080fd5b50612d87806100206000396000f3fe60806040526004361061020f5760003560e01c806370a0823111610118578063b480eac0116100a0578063d4b839921161006f578063d4b8399214610671578063e35d04e914610687578063e985e9c5146106a7578063f2fde38b146106f0578063f887ea401461071057600080fd5b8063b480eac0146105e9578063b88d4fde14610609578063c45a015514610629578063c87b56dd1461065157600080fd5b80638da5cb5b116100e75780638da5cb5b14610546578063903548721461056457806395d89b411461058c5780639f678cca146105a1578063a22cb465146105c957600080fd5b806370a08231146104dc578063715018a6146104fc5780638117a578146105115780638129fc1c1461053157600080fd5b806330d35ea41161019b57806342966c681161016a57806342966c68146103ca5780635f1c17c0146103ea57806361d027b31461047e57806362d3f0f6146104a65780636352211e146104bc57600080fd5b806330d35ea41461034f57806334fcf437146103625780633fc8cef31461038257806342842e0e146103aa57600080fd5b8063095ea7b3116101e2578063095ea7b3146102c7578063116191b6146102e95780631249c58b1461031157806323b872dd146103195780632c4e722e1461033957600080fd5b806301ffc9a71461021457806306661abd1461024957806306fdde031461026d578063081812fc1461028f575b600080fd5b34801561022057600080fd5b5061023461022f36600461288d565b610738565b60405190151581526020015b60405180910390f35b34801561025557600080fd5b5061025f60c95481565b604051908152602001610240565b34801561027957600080fd5b5061028261078a565b6040516102409190612a03565b34801561029b57600080fd5b506102af6102aa3660046128c5565b61081c565b6040516001600160a01b039091168152602001610240565b3480156102d357600080fd5b506102e76102e23660046127a0565b6108b6565b005b3480156102f557600080fd5b506102af7305cadbf3128bcb7f2b89f3dd55e5b0a036a49e2081565b61025f6109cc565b34801561032557600080fd5b506102e76103343660046126c9565b610ce4565b34801561034557600080fd5b5061025f60cb5481565b6102e761035d3660046128dd565b610d15565b34801561036e57600080fd5b506102e761037d3660046128c5565b61115a565b34801561038e57600080fd5b506102af7382af49447d8a07e3bd95bd0d56f35241523fbab181565b3480156103b657600080fd5b506102e76103c53660046126c9565b611189565b3480156103d657600080fd5b506102e76103e53660046128c5565b6111a4565b3480156103f657600080fd5b506104456104053660046128c5565b60ca602052600090815260409020805460019091015460ff821691610100810467ffffffffffffffff1691600160481b9091046001600160801b03169084565b60408051941515855267ffffffffffffffff90931660208501526001600160801b03909116918301919091526060820152608001610240565b34801561048a57600080fd5b506102af73592e10267af60894086d40dcc55fe7684f8420d581565b3480156104b257600080fd5b5061025f60cd5481565b3480156104c857600080fd5b506102af6104d73660046128c5565b6111e9565b3480156104e857600080fd5b5061025f6104f736600461267d565b611260565b34801561050857600080fd5b506102e76112e7565b34801561051d57600080fd5b506102e761052c3660046128c5565b61131d565b34801561053d57600080fd5b506102e761134c565b34801561055257600080fd5b506097546001600160a01b03166102af565b34801561057057600080fd5b506102af73dbf31df14b66535af65aac99c32e9ea844e1450181565b34801561059857600080fd5b50610282611654565b3480156105ad57600080fd5b506102af730d44cfa6a50e4c16ee311af6edad36e89f90b0a681565b3480156105d557600080fd5b506102e76105e436600461276a565b611663565b3480156105f557600080fd5b506102e76106043660046128c5565b61166e565b34801561061557600080fd5b506102e7610624366004612704565b61169d565b34801561063557600080fd5b506102af73c35dadb65012ec5796536bd9864ed8773abc74c481565b34801561065d57600080fd5b5061028261066c3660046128c5565b6116d5565b34801561067d57600080fd5b5061025f60cc5481565b34801561069357600080fd5b5061025f6106a23660046128c5565b6117bd565b3480156106b357600080fd5b506102346106c2366004612697565b6001600160a01b039182166000908152606a6020908152604080832093909416825291909152205460ff1690565b3480156106fc57600080fd5b506102e761070b36600461267d565b6117df565b34801561071c57600080fd5b506102af731b02da8cb0d097eb8d57a175b88c7d8b4799750681565b60006001600160e01b031982166380ac58cd60e01b148061076957506001600160e01b03198216635b5e139f60e01b145b8061078457506301ffc9a760e01b6001600160e01b03198316145b92915050565b60606065805461079990612c81565b80601f01602080910402602001604051908101604052809291908181526020018280546107c590612c81565b80156108125780601f106107e757610100808354040283529160200191610812565b820191906000526020600020905b8154815290600101906020018083116107f557829003601f168201915b5050505050905090565b6000818152606760205260408120546001600160a01b031661089a5760405162461bcd60e51b815260206004820152602c60248201527f4552433732313a20617070726f76656420717565727920666f72206e6f6e657860448201526b34b9ba32b73a103a37b5b2b760a11b60648201526084015b60405180910390fd5b506000908152606960205260409020546001600160a01b031690565b60006108c1826111e9565b9050806001600160a01b0316836001600160a01b0316141561092f5760405162461bcd60e51b815260206004820152602160248201527f4552433732313a20617070726f76616c20746f2063757272656e74206f776e656044820152603960f91b6064820152608401610891565b336001600160a01b038216148061094b575061094b81336106c2565b6109bd5760405162461bcd60e51b815260206004820152603860248201527f4552433732313a20617070726f76652063616c6c6572206973206e6f74206f7760448201527f6e6572206e6f7220617070726f76656420666f7220616c6c00000000000000006064820152608401610891565b6109c78383611877565b505050565b60c95460009034610a0d5760405162461bcd60e51b815260206004820152600b60248201526a042cadcdeeaced05acae8d60ab1b6044820152606401610891565b6000610a18346117bd565b905080610a565760405162461bcd60e51b815260206004820152600c60248201526b021656e6f7567682d647269760a41b6044820152606401610891565b610a8a730d44cfa6a50e4c16ee311af6edad36e89f90b0a673592e10267af60894086d40dcc55fe7684f8420d530846118e5565b6000731b02da8cb0d097eb8d57a175b88c7d8b4799750663f305d71934730d44cfa6a50e4c16ee311af6edad36e89f90b0a68560018373592e10267af60894086d40dcc55fe7684f8420d5610adf4284612bf3565b60405160e089901b6001600160e01b03191681526001600160a01b039687166004820152602481019590955260448501939093526064840191909152909216608482015260a481019190915260c4016060604051808303818588803b158015610b4757600080fd5b505af1158015610b5b573d6000803e3d6000fd5b50505050506040513d601f19601f82011682018060405250810190610b809190612922565b50509050600060cd5442610b949190612bf3565b60408051608081018252600080825267ffffffffffffffff84811660208085019182526001600160801b0389811686880190815260cb54606088019081528d875260ca845295889020965187549451915168ffffffffffffffffff1990951690151568ffffffffffffffff0019161761010091909516029390931778ffffffffffffffffffffffffffffffff0000000000000000001916600160481b929093169190910291909117835590516001909201919091558151858152908101839052919250859133917f2fd58c70af849b383ae810a6000172c03069296850ab937fafda2e64e70603c3910160405180910390a3610c923360c95461193f565b60c98054906000610ca283612cbc565b919050555060ca6000600160c954610cba9190612c3e565b8152602081019190915260400160002054600160481b90046001600160801b031695945050505050565b610cee3382611a81565b610d0a5760405162461bcd60e51b815260040161089190612a9d565b6109c7838383611b78565b6000610d2083611d14565b9050610d56730d44cfa6a50e4c16ee311af6edad36e89f90b0a673592e10267af60894086d40dcc55fe7684f8420d530846118e5565b604080516002808252606082018352600092602083019080368337019050509050730d44cfa6a50e4c16ee311af6edad36e89f90b0a681600081518110610dad57634e487b7160e01b600052603260045260246000fd5b60200260200101906001600160a01b031690816001600160a01b0316815250507382af49447d8a07e3bd95bd0d56f35241523fbab181600181518110610e0357634e487b7160e01b600052603260045260246000fd5b6001600160a01b03909216602092830291909101909101526000731b02da8cb0d097eb8d57a175b88c7d8b479975066338ed17398460018530610e464284612bf3565b6040518663ffffffff1660e01b8152600401610e66959493929190612b52565b600060405180830381600087803b158015610e8057600080fd5b505af1158015610e94573d6000803e3d6000fd5b505050506040513d6000823e601f3d908101601f19168201604052610ebc91908101906127c9565b9050600081600181518110610ee157634e487b7160e01b600052603260045260246000fd5b6020026020010151905034600014610f71577382af49447d8a07e3bd95bd0d56f35241523fbab16001600160a01b031663d0e30db0346040518263ffffffff1660e01b81526004016000604051808303818588803b158015610f4257600080fd5b505af1158015610f56573d6000803e3d6000fd5b5050505050610f6e3482611e9c90919063ffffffff16565b90505b7382af49447d8a07e3bd95bd0d56f35241523fbab183600081518110610fa757634e487b7160e01b600052603260045260246000fd5b60200260200101906001600160a01b031690816001600160a01b03168152505073dbf31df14b66535af65aac99c32e9ea844e1450183600181518110610ffd57634e487b7160e01b600052603260045260246000fd5b6001600160a01b0390921660209283029190910190910152731b02da8cb0d097eb8d57a175b88c7d8b479975066338ed1739826001863061103e4284612bf3565b6040518663ffffffff1660e01b815260040161105e959493929190612b52565b600060405180830381600087803b15801561107857600080fd5b505af115801561108c573d6000803e3d6000fd5b505050506040513d6000823e601f3d908101601f191682016040526110b491908101906127c9565b91507305cadbf3128bcb7f2b89f3dd55e5b0a036a49e206001600160a01b031663fe9d9303836001815181106110fa57634e487b7160e01b600052603260045260246000fd5b6020026020010151876040518363ffffffff1660e01b8152600401611120929190612b39565b600060405180830381600087803b15801561113a57600080fd5b505af115801561114e573d6000803e3d6000fd5b50505050505050505050565b6097546001600160a01b031633146111845760405162461bcd60e51b815260040161089190612a68565b60cb55565b6109c78383836040518060200160405280600081525061169d565b60006111af82611d14565b90506111e5730d44cfa6a50e4c16ee311af6edad36e89f90b0a673592e10267af60894086d40dcc55fe7684f8420d533846118e5565b5050565b6000818152606760205260408120546001600160a01b0316806107845760405162461bcd60e51b815260206004820152602960248201527f4552433732313a206f776e657220717565727920666f72206e6f6e657869737460448201526832b73a103a37b5b2b760b91b6064820152608401610891565b60006001600160a01b0382166112cb5760405162461bcd60e51b815260206004820152602a60248201527f4552433732313a2062616c616e636520717565727920666f7220746865207a65604482015269726f206164647265737360b01b6064820152608401610891565b506001600160a01b031660009081526068602052604090205490565b6097546001600160a01b031633146113115760405162461bcd60e51b815260040161089190612a68565b61131b6000611ea8565b565b6097546001600160a01b031633146113475760405162461bcd60e51b815260040161089190612a68565b60cd55565b600054610100900460ff166113675760005460ff161561136b565b303b155b6113ce5760405162461bcd60e51b815260206004820152602e60248201527f496e697469616c697a61626c653a20636f6e747261637420697320616c72656160448201526d191e481a5b9a5d1a585b1a5e995960921b6064820152608401610891565b600054610100900460ff161580156113f0576000805461ffff19166101011790555b61143a60405180604001604052806008815260200167111492541093d39160c21b81525060405180604001604052806008815260200167111492541093d39160c21b815250611efa565b66470de4df82000060cb55600060c955660e35fa931a000060cc5562278d0060cd5560405163095ea7b360e01b8152731b02da8cb0d097eb8d57a175b88c7d8b4799750660048201526000196024820152730d44cfa6a50e4c16ee311af6edad36e89f90b0a69063095ea7b390604401602060405180830381600087803b1580156114c457600080fd5b505af11580156114d8573d6000803e3d6000fd5b505050506040513d601f19601f820116820180604052508101906114fc9190612871565b5060405163095ea7b360e01b8152731b02da8cb0d097eb8d57a175b88c7d8b47997506600482015260001960248201527382af49447d8a07e3bd95bd0d56f35241523fbab19063095ea7b390604401602060405180830381600087803b15801561156557600080fd5b505af1158015611579573d6000803e3d6000fd5b505050506040513d601f19601f8201168201806040525081019061159d9190612871565b5060405163095ea7b360e01b81527305cadbf3128bcb7f2b89f3dd55e5b0a036a49e206004820152600019602482015273dbf31df14b66535af65aac99c32e9ea844e145019063095ea7b390604401602060405180830381600087803b15801561160657600080fd5b505af115801561161a573d6000803e3d6000fd5b505050506040513d601f19601f8201168201806040525081019061163e9190612871565b508015611651576000805461ff00191690555b50565b60606066805461079990612c81565b6111e5338383611f2b565b6097546001600160a01b031633146116985760405162461bcd60e51b815260040161089190612a68565b60cc55565b6116a73383611a81565b6116c35760405162461bcd60e51b815260040161089190612a9d565b6116cf84848484611ffa565b50505050565b6000818152606760205260409020546060906001600160a01b03166117545760405162461bcd60e51b815260206004820152602f60248201527f4552433732314d657461646174613a2055524920717565727920666f72206e6f60448201526e3732bc34b9ba32b73a103a37b5b2b760891b6064820152608401610891565b600061176b60408051602081019091526000815290565b9050600081511161178b57604051806020016040528060008152506117b6565b806117958461202d565b6040516020016117a6929190612997565b6040516020818303038152906040525b9392505050565b60cc54600090610784906117d984670de0b6b3a7640000612147565b90612153565b6097546001600160a01b031633146118095760405162461bcd60e51b815260040161089190612a68565b6001600160a01b03811661186e5760405162461bcd60e51b815260206004820152602660248201527f4f776e61626c653a206e6577206f776e657220697320746865207a65726f206160448201526564647265737360d01b6064820152608401610891565b61165181611ea8565b600081815260696020526040902080546001600160a01b0319166001600160a01b03841690811790915581906118ac826111e9565b6001600160a01b03167f8c5be1e5ebec7d5bd14f71427d1e84f3dd0314c0f7b2291e5b200ac8c7c3b92560405160405180910390a45050565b604080516001600160a01b0385811660248301528416604482015260648082018490528251808303909101815260849091019091526020810180516001600160e01b03166323b872dd60e01b1790526116cf90859061215f565b6001600160a01b0382166119955760405162461bcd60e51b815260206004820181905260248201527f4552433732313a206d696e7420746f20746865207a65726f20616464726573736044820152606401610891565b6000818152606760205260409020546001600160a01b0316156119fa5760405162461bcd60e51b815260206004820152601c60248201527f4552433732313a20746f6b656e20616c7265616479206d696e746564000000006044820152606401610891565b6001600160a01b0382166000908152606860205260408120805460019290611a23908490612bf3565b909155505060008181526067602052604080822080546001600160a01b0319166001600160a01b03861690811790915590518392907fddf252ad1be2c89b69c2b068fc378daa952ba7f163c4a11628f55a4df523b3ef908290a45050565b6000818152606760205260408120546001600160a01b0316611afa5760405162461bcd60e51b815260206004820152602c60248201527f4552433732313a206f70657261746f7220717565727920666f72206e6f6e657860448201526b34b9ba32b73a103a37b5b2b760a11b6064820152608401610891565b6000611b05836111e9565b9050806001600160a01b0316846001600160a01b03161480611b405750836001600160a01b0316611b358461081c565b6001600160a01b0316145b80611b7057506001600160a01b038082166000908152606a602090815260408083209388168352929052205460ff165b949350505050565b826001600160a01b0316611b8b826111e9565b6001600160a01b031614611bef5760405162461bcd60e51b815260206004820152602560248201527f4552433732313a207472616e736665722066726f6d20696e636f72726563742060448201526437bbb732b960d91b6064820152608401610891565b6001600160a01b038216611c515760405162461bcd60e51b8152602060048201526024808201527f4552433732313a207472616e7366657220746f20746865207a65726f206164646044820152637265737360e01b6064820152608401610891565b611c5c600082611877565b6001600160a01b0383166000908152606860205260408120805460019290611c85908490612c3e565b90915550506001600160a01b0382166000908152606860205260408120805460019290611cb3908490612bf3565b909155505060008181526067602052604080822080546001600160a01b0319166001600160a01b0386811691821790925591518493918716917fddf252ad1be2c89b69c2b068fc378daa952ba7f163c4a11628f55a4df523b3ef91a4505050565b600033611d20836111e9565b6001600160a01b031614611d5f5760405162461bcd60e51b815260206004820152600660248201526510b7bbb732b960d11b6044820152606401610891565b600082815260ca60205260409020544261010090910467ffffffffffffffff161115611db85760405162461bcd60e51b8152602060048201526008602482015267085b585d1d5c995960c21b6044820152606401610891565b600082815260ca602052604090205460ff1615611dff5760405162461bcd60e51b81526020600482015260056024820152641cdc195b9d60da1b6044820152606401610891565b600082815260ca60205260409020805460ff19166001179055611e2182612231565b600082815260ca602052604090208054600190910154611e5191600160481b90046001600160801b0316906122cc565b905081336001600160a01b03167fec239a49076e616b46f7dfad8d4492d165dd18f7194b3e2625b19e9e964ef81b83604051611e8f91815260200190565b60405180910390a3919050565b60006117b68284612bf3565b609780546001600160a01b038381166001600160a01b0319831681179093556040519116919082907f8be0079c531659141344cd1fd0a4f28419497f9722a3daafe3b4186f6b6457e090600090a35050565b600054610100900460ff16611f215760405162461bcd60e51b815260040161089190612aee565b6111e582826122ee565b816001600160a01b0316836001600160a01b03161415611f8d5760405162461bcd60e51b815260206004820152601960248201527f4552433732313a20617070726f766520746f2063616c6c6572000000000000006044820152606401610891565b6001600160a01b038381166000818152606a6020908152604080832094871680845294825291829020805460ff191686151590811790915591519182527f17307eab39ab6107e8899845ad3d59bd9653f200f220920489ca2b5937696c31910160405180910390a3505050565b612005848484611b78565b6120118484848461233c565b6116cf5760405162461bcd60e51b815260040161089190612a16565b6060816120515750506040805180820190915260018152600360fc1b602082015290565b8160005b811561207b578061206581612cbc565b91506120749050600a83612c0b565b9150612055565b60008167ffffffffffffffff8111156120a457634e487b7160e01b600052604160045260246000fd5b6040519080825280601f01601f1916602001820160405280156120ce576020820181803683370190505b5090505b8415611b70576120e3600183612c3e565b91506120f0600a86612cd7565b6120fb906030612bf3565b60f81b81838151811061211e57634e487b7160e01b600052603260045260246000fd5b60200101906001600160f81b031916908160001a905350612140600a86612c0b565b94506120d2565b60006117b68284612c1f565b60006117b68284612c0b565b60006121b4826040518060400160405280602081526020017f5361666545524332303a206c6f772d6c6576656c2063616c6c206661696c6564815250856001600160a01b03166124499092919063ffffffff16565b8051909150156109c757808060200190518101906121d29190612871565b6109c75760405162461bcd60e51b815260206004820152602a60248201527f5361666545524332303a204552433230206f7065726174696f6e20646964206e6044820152691bdd081cdd58d8d9595960b21b6064820152608401610891565b600061223c826111e9565b9050612249600083611877565b6001600160a01b0381166000908152606860205260408120805460019290612272908490612c3e565b909155505060008281526067602052604080822080546001600160a01b0319169055518391906001600160a01b038416907fddf252ad1be2c89b69c2b068fc378daa952ba7f163c4a11628f55a4df523b3ef908390a45050565b60006117b6670de0b6b3a76400006117d96122e78286611e9c565b8690612147565b600054610100900460ff166123155760405162461bcd60e51b815260040161089190612aee565b815161232890606590602085019061255d565b5080516109c790606690602084019061255d565b60006001600160a01b0384163b1561243e57604051630a85bd0160e11b81526001600160a01b0385169063150b7a02906123809033908990889088906004016129c6565b602060405180830381600087803b15801561239a57600080fd5b505af19250505080156123ca575060408051601f3d908101601f191682019092526123c7918101906128a9565b60015b612424573d8080156123f8576040519150601f19603f3d011682016040523d82523d6000602084013e6123fd565b606091505b50805161241c5760405162461bcd60e51b815260040161089190612a16565b805181602001fd5b6001600160e01b031916630a85bd0160e11b149050611b70565b506001949350505050565b6060611b708484600085856001600160a01b0385163b6124ab5760405162461bcd60e51b815260206004820152601d60248201527f416464726573733a2063616c6c20746f206e6f6e2d636f6e74726163740000006044820152606401610891565b600080866001600160a01b031685876040516124c7919061297b565b60006040518083038185875af1925050503d8060008114612504576040519150601f19603f3d011682016040523d82523d6000602084013e612509565b606091505b5091509150612519828286612524565b979650505050505050565b606083156125335750816117b6565b8251156125435782518084602001fd5b8160405162461bcd60e51b81526004016108919190612a03565b82805461256990612c81565b90600052602060002090601f01602090048101928261258b57600085556125d1565b82601f106125a457805160ff19168380011785556125d1565b828001600101855582156125d1579182015b828111156125d15782518255916020019190600101906125b6565b506125dd9291506125e1565b5090565b5b808211156125dd57600081556001016125e2565b80356001600160a01b038116811461260d57600080fd5b919050565b600082601f830112612622578081fd5b813567ffffffffffffffff81111561263c5761263c612d17565b61264f601f8201601f1916602001612bc2565b818152846020838601011115612663578283fd5b816020850160208301379081016020019190915292915050565b60006020828403121561268e578081fd5b6117b6826125f6565b600080604083850312156126a9578081fd5b6126b2836125f6565b91506126c0602084016125f6565b90509250929050565b6000806000606084860312156126dd578081fd5b6126e6846125f6565b92506126f4602085016125f6565b9150604084013590509250925092565b60008060008060808587031215612719578081fd5b612722856125f6565b9350612730602086016125f6565b925060408501359150606085013567ffffffffffffffff811115612752578182fd5b61275e87828801612612565b91505092959194509250565b6000806040838503121561277c578182fd5b612785836125f6565b9150602083013561279581612d2d565b809150509250929050565b600080604083850312156127b2578182fd5b6127bb836125f6565b946020939093013593505050565b600060208083850312156127db578182fd5b825167ffffffffffffffff808211156127f2578384fd5b818501915085601f830112612805578384fd5b81518181111561281757612817612d17565b8060051b9150612828848301612bc2565b8181528481019084860184860187018a1015612842578788fd5b8795505b83861015612864578051835260019590950194918601918601612846565b5098975050505050505050565b600060208284031215612882578081fd5b81516117b681612d2d565b60006020828403121561289e578081fd5b81356117b681612d3b565b6000602082840312156128ba578081fd5b81516117b681612d3b565b6000602082840312156128d6578081fd5b5035919050565b600080604083850312156128ef578182fd5b82359150602083013567ffffffffffffffff81111561290c578182fd5b61291885828601612612565b9150509250929050565b600080600060608486031215612936578283fd5b8351925060208401519150604084015190509250925092565b60008151808452612967816020860160208601612c55565b601f01601f19169290920160200192915050565b6000825161298d818460208701612c55565b9190910192915050565b600083516129a9818460208801612c55565b8351908301906129bd818360208801612c55565b01949350505050565b6001600160a01b03858116825284166020820152604081018390526080606082018190526000906129f99083018461294f565b9695505050505050565b6020815260006117b6602083018461294f565b60208082526032908201527f4552433732313a207472616e7366657220746f206e6f6e20455243373231526560408201527131b2b4bb32b91034b6b83632b6b2b73a32b960711b606082015260800190565b6020808252818101527f4f776e61626c653a2063616c6c6572206973206e6f7420746865206f776e6572604082015260600190565b60208082526031908201527f4552433732313a207472616e736665722063616c6c6572206973206e6f74206f6040820152701ddb995c881b9bdc88185c1c1c9bdd9959607a1b606082015260800190565b6020808252602b908201527f496e697469616c697a61626c653a20636f6e7472616374206973206e6f74206960408201526a6e697469616c697a696e6760a81b606082015260800190565b828152604060208201526000611b70604083018461294f565b600060a082018783526020878185015260a0604085015281875180845260c0860191508289019350845b81811015612ba15784516001600160a01b031683529383019391830191600101612b7c565b50506001600160a01b03969096166060850152505050608001529392505050565b604051601f8201601f1916810167ffffffffffffffff81118282101715612beb57612beb612d17565b604052919050565b60008219821115612c0657612c06612ceb565b500190565b600082612c1a57612c1a612d01565b500490565b6000816000190483118215151615612c3957612c39612ceb565b500290565b600082821015612c5057612c50612ceb565b500390565b60005b83811015612c70578181015183820152602001612c58565b838111156116cf5750506000910152565b600181811c90821680612c9557607f821691505b60208210811415612cb657634e487b7160e01b600052602260045260246000fd5b50919050565b6000600019821415612cd057612cd0612ceb565b5060010190565b600082612ce657612ce6612d01565b500690565b634e487b7160e01b600052601160045260246000fd5b634e487b7160e01b600052601260045260246000fd5b634e487b7160e01b600052604160045260246000fd5b801515811461165157600080fd5b6001600160e01b03198116811461165157600080fdfea2646970667358221220223d14924e45483d4c221e36e3c506662015175a608bc9d0402be795ebd4820b64736f6c63430008040033",
  "linkReferences": {},
  "deployedLinkReferences": {}
}