{
  "_format": "hh-sol-artifact-1",
  "contractName": "DRIPBOND",
  "sourceName": "contracts/token/DRIPBOND.sol",
  "abi": [
    {
      "anonymous": false,
      "inputs": [
        {
          "indexed": true,
          "internalType": "address",
          "name": "owner",
          "type": "address"
        },
        {
          "indexed": true,
          "internalType": "address",
          "name": "approved",
          "type": "address"
        },
        {
          "indexed": true,
          "internalType": "uint256",
          "name": "tokenId",
          "type": "uint256"
        }
      ],
      "name": "Approval",
      "type": "event"
    },
    {
      "anonymous": false,
      "inputs": [
        {
          "indexed": true,
          "internalType": "address",
          "name": "owner",
          "type": "address"
        },
        {
          "indexed": true,
          "internalType": "address",
          "name": "operator",
          "type": "address"
        },
        {
          "indexed": false,
          "internalType": "bool",
          "name": "approved",
          "type": "bool"
        }
      ],
      "name": "ApprovalForAll",
      "type": "event"
    },
    {
      "anonymous": false,
      "inputs": [
        {
          "indexed": true,
          "internalType": "address",
          "name": "previousOwner",
          "type": "address"
        },
        {
          "indexed": true,
          "internalType": "address",
          "name": "newOwner",
          "type": "address"
        }
      ],
      "name": "OwnershipTransferred",
      "type": "event"
    },
    {
      "anonymous": false,
      "inputs": [
        {
          "indexed": true,
          "internalType": "address",
          "name": "from",
          "type": "address"
        },
        {
          "indexed": true,
          "internalType": "address",
          "name": "to",
          "type": "address"
        },
        {
          "indexed": true,
          "internalType": "uint256",
          "name": "tokenId",
          "type": "uint256"
        }
      ],
      "name": "Transfer",
      "type": "event"
    },
    {
      "inputs": [
        {
          "internalType": "address",
          "name": "to",
          "type": "address"
        },
        {
          "internalType": "uint256",
          "name": "tokenId",
          "type": "uint256"
        }
      ],
      "name": "approve",
      "outputs": [],
      "stateMutability": "nonpayable",
      "type": "function"
    },
    {
      "inputs": [
        {
          "internalType": "address",
          "name": "owner",
          "type": "address"
        }
      ],
      "name": "balanceOf",
      "outputs": [
        {
          "internalType": "uint256",
          "name": "",
          "type": "uint256"
        }
      ],
      "stateMutability": "view",
      "type": "function"
    },
    {
      "inputs": [
        {
          "internalType": "uint256",
          "name": "idx",
          "type": "uint256"
        }
      ],
      "name": "burn",
      "outputs": [],
      "stateMutability": "nonpayable",
      "type": "function"
    },
    {
      "inputs": [
        {
          "internalType": "uint256",
          "name": "tokenId",
          "type": "uint256"
        }
      ],
      "name": "getApproved",
      "outputs": [
        {
          "internalType": "address",
          "name": "",
          "type": "address"
        }
      ],
      "stateMutability": "view",
      "type": "function"
    },
    {
      "inputs": [
        {
          "internalType": "address",
          "name": "_treasury",
          "type": "address"
        },
        {
          "internalType": "address",
          "name": "_drip",
          "type": "address"
        },
        {
          "internalType": "uint256",
          "name": "_rate",
          "type": "uint256"
        }
      ],
      "name": "initialize",
      "outputs": [],
      "stateMutability": "nonpayable",
      "type": "function"
    },
    {
      "inputs": [
        {
          "internalType": "address",
          "name": "owner",
          "type": "address"
        },
        {
          "internalType": "address",
          "name": "operator",
          "type": "address"
        }
      ],
      "name": "isApprovedForAll",
      "outputs": [
        {
          "internalType": "bool",
          "name": "",
          "type": "bool"
        }
      ],
      "stateMutability": "view",
      "type": "function"
    },
    {
      "inputs": [
        {
          "internalType": "uint256",
          "name": "",
          "type": "uint256"
        }
      ],
      "name": "locked",
      "outputs": [
        {
          "internalType": "uint256",
          "name": "",
          "type": "uint256"
        }
      ],
      "stateMutability": "view",
      "type": "function"
    },
    {
      "inputs": [],
      "name": "maturesAfter",
      "outputs": [
        {
          "internalType": "uint256",
          "name": "",
          "type": "uint256"
        }
      ],
      "stateMutability": "view",
      "type": "function"
    },
    {
      "inputs": [
        {
          "internalType": "uint256",
          "name": "amount",
          "type": "uint256"
        }
      ],
      "name": "mint",
      "outputs": [],
      "stateMutability": "nonpayable",
      "type": "function"
    },
    {
      "inputs": [],
      "name": "name",
      "outputs": [
        {
          "internalType": "string",
          "name": "",
          "type": "string"
        }
      ],
      "stateMutability": "view",
      "type": "function"
    },
    {
      "inputs": [],
      "name": "owner",
      "outputs": [
        {
          "internalType": "address",
          "name": "",
          "type": "address"
        }
      ],
      "stateMutability": "view",
      "type": "function"
    },
    {
      "inputs": [
        {
          "internalType": "uint256",
          "name": "tokenId",
          "type": "uint256"
        }
      ],
      "name": "ownerOf",
      "outputs": [
        {
          "internalType": "address",
          "name": "",
          "type": "address"
        }
      ],
      "stateMutability": "view",
      "type": "function"
    },
    {
      "inputs": [],
      "name": "rate",
      "outputs": [
        {
          "internalType": "uint256",
          "name": "",
          "type": "uint256"
        }
      ],
      "stateMutability": "view",
      "type": "function"
    },
    {
      "inputs": [],
      "name": "renounceOwnership",
      "outputs": [],
      "stateMutability": "nonpayable",
      "type": "function"
    },
    {
      "inputs": [
        {
          "internalType": "address",
          "name": "from",
          "type": "address"
        },
        {
          "internalType": "address",
          "name": "to",
          "type": "address"
        },
        {
          "internalType": "uint256",
          "name": "tokenId",
          "type": "uint256"
        }
      ],
      "name": "safeTransferFrom",
      "outputs": [],
      "stateMutability": "nonpayable",
      "type": "function"
    },
    {
      "inputs": [
        {
          "internalType": "address",
          "name": "from",
          "type": "address"
        },
        {
          "internalType": "address",
          "name": "to",
          "type": "address"
        },
        {
          "internalType": "uint256",
          "name": "tokenId",
          "type": "uint256"
        },
        {
          "internalType": "bytes",
          "name": "_data",
          "type": "bytes"
        }
      ],
      "name": "safeTransferFrom",
      "outputs": [],
      "stateMutability": "nonpayable",
      "type": "function"
    },
    {
      "inputs": [
        {
          "internalType": "address",
          "name": "operator",
          "type": "address"
        },
        {
          "internalType": "bool",
          "name": "approved",
          "type": "bool"
        }
      ],
      "name": "setApprovalForAll",
      "outputs": [],
      "stateMutability": "nonpayable",
      "type": "function"
    },
    {
      "inputs": [
        {
          "internalType": "uint256",
          "name": "_maturesAfter",
          "type": "uint256"
        }
      ],
      "name": "setMaturity",
      "outputs": [],
      "stateMutability": "nonpayable",
      "type": "function"
    },
    {
      "inputs": [
        {
          "internalType": "bytes4",
          "name": "interfaceId",
          "type": "bytes4"
        }
      ],
      "name": "supportsInterface",
      "outputs": [
        {
          "internalType": "bool",
          "name": "",
          "type": "bool"
        }
      ],
      "stateMutability": "view",
      "type": "function"
    },
    {
      "inputs": [],
      "name": "symbol",
      "outputs": [
        {
          "internalType": "string",
          "name": "",
          "type": "string"
        }
      ],
      "stateMutability": "view",
      "type": "function"
    },
    {
      "inputs": [
        {
          "internalType": "uint256",
          "name": "tokenId",
          "type": "uint256"
        }
      ],
      "name": "tokenURI",
      "outputs": [
        {
          "internalType": "string",
          "name": "",
          "type": "string"
        }
      ],
      "stateMutability": "view",
      "type": "function"
    },
    {
      "inputs": [
        {
          "internalType": "address",
          "name": "from",
          "type": "address"
        },
        {
          "internalType": "address",
          "name": "to",
          "type": "address"
        },
        {
          "internalType": "uint256",
          "name": "tokenId",
          "type": "uint256"
        }
      ],
      "name": "transferFrom",
      "outputs": [],
      "stateMutability": "nonpayable",
      "type": "function"
    },
    {
      "inputs": [
        {
          "internalType": "address",
          "name": "newOwner",
          "type": "address"
        }
      ],
      "name": "transferOwnership",
      "outputs": [],
      "stateMutability": "nonpayable",
      "type": "function"
    },
    {
      "inputs": [
        {
          "internalType": "uint256",
          "name": "",
          "type": "uint256"
        }
      ],
      "name": "unlockAt",
      "outputs": [
        {
          "internalType": "uint256",
          "name": "",
          "type": "uint256"
        }
      ],
      "stateMutability": "view",
      "type": "function"
    }
  ],
  "bytecode": "0x608060405234801561001057600080fd5b50611cfa806100206000396000f3fe608060405234801561001057600080fd5b50600436106101585760003560e01c806370a08231116100c3578063a22cb4651161007c578063a22cb465146102d3578063b45a3c0e146102e6578063b88d4fde14610306578063c87b56dd14610319578063e985e9c51461032c578063f2fde38b1461036857600080fd5b806370a0823114610279578063715018a61461028c5780638117a578146102945780638da5cb5b146102a757806395d89b41146102b8578063a0712d68146102c057600080fd5b80632c4e722e116101155780632c4e722e146102005780633d71a4eb1461021757806342842e0e1461023757806342966c681461024a57806362d3f0f61461025d5780636352211e1461026657600080fd5b806301ffc9a71461015d57806306fdde0314610185578063081812fc1461019a578063095ea7b3146101c55780631794bb3c146101da57806323b872dd146101ed575b600080fd5b61017061016b36600461192c565b61037b565b60405190151581526020015b60405180910390f35b61018d6103cd565b60405161017c9190611a30565b6101ad6101a8366004611964565b61045f565b6040516001600160a01b03909116815260200161017c565b6101d86101d33660046118e7565b6104f9565b005b6101d86101e83660046117a1565b61060f565b6101d86101fb3660046117a1565b61069a565b61020960ce5481565b60405190815260200161017c565b610209610225366004611964565b60cd6020526000908152604090205481565b6101d86102453660046117a1565b6106cb565b6101d8610258366004611964565b6106e6565b61020960cf5481565b6101ad610274366004611964565b61077a565b610209610287366004611755565b6107f1565b6101d8610878565b6101d86102a2366004611964565b6108ae565b6097546001600160a01b03166101ad565b61018d6108dd565b6101d86102ce366004611964565b6108ec565b6101d86102e13660046118b1565b610962565b6102096102f4366004611964565b60cc6020526000908152604090205481565b6101d86103143660046117dc565b610971565b61018d610327366004611964565b6109a9565b61017061033a36600461176f565b6001600160a01b039182166000908152606a6020908152604080832093909416825291909152205460ff1690565b6101d8610376366004611755565b610a91565b60006001600160e01b031982166380ac58cd60e01b14806103ac57506001600160e01b03198216635b5e139f60e01b145b806103c757506301ffc9a760e01b6001600160e01b03198316145b92915050565b6060606580546103dc90611bf4565b80601f016020809104026020016040519081016040528092919081815260200182805461040890611bf4565b80156104555780601f1061042a57610100808354040283529160200191610455565b820191906000526020600020905b81548152906001019060200180831161043857829003601f168201915b5050505050905090565b6000818152606760205260408120546001600160a01b03166104dd5760405162461bcd60e51b815260206004820152602c60248201527f4552433732313a20617070726f76656420717565727920666f72206e6f6e657860448201526b34b9ba32b73a103a37b5b2b760a11b60648201526084015b60405180910390fd5b506000908152606960205260409020546001600160a01b031690565b60006105048261077a565b9050806001600160a01b0316836001600160a01b031614156105725760405162461bcd60e51b815260206004820152602160248201527f4552433732313a20617070726f76616c20746f2063757272656e74206f776e656044820152603960f91b60648201526084016104d4565b336001600160a01b038216148061058e575061058e813361033a565b6106005760405162461bcd60e51b815260206004820152603860248201527f4552433732313a20617070726f76652063616c6c6572206973206e6f74206f7760448201527f6e6572206e6f7220617070726f76656420666f7220616c6c000000000000000060648201526084016104d4565b61060a8383610b29565b505050565b61065960405180604001604052806008815260200167111492541093d39160c21b81525060405180604001604052806008815260200167111492541093d39160c21b815250610b97565b60cb80546001600160a01b039485166001600160a01b03199182161790915560ca80549390941692169190911790915560ce55600060c95562278d0060cf55565b6106a43382610bc8565b6106c05760405162461bcd60e51b81526004016104d490611aca565b61060a838383610cbf565b61060a83838360405180602001604052806000815250610971565b600081815260cd602052604090205442101561072f5760405162461bcd60e51b8152602060048201526008602482015267085b585d1d5c995960c21b60448201526064016104d4565b61073881610e5b565b60cb54600082815260cc6020526040902054610777916001600160a01b031690339061076390610ef6565b60ca546001600160a01b0316929190610f31565b50565b6000818152606760205260408120546001600160a01b0316806103c75760405162461bcd60e51b815260206004820152602960248201527f4552433732313a206f776e657220717565727920666f72206e6f6e657869737460448201526832b73a103a37b5b2b760b91b60648201526084016104d4565b60006001600160a01b03821661085c5760405162461bcd60e51b815260206004820152602a60248201527f4552433732313a2062616c616e636520717565727920666f7220746865207a65604482015269726f206164647265737360b01b60648201526084016104d4565b506001600160a01b031660009081526068602052604090205490565b6097546001600160a01b031633146108a25760405162461bcd60e51b81526004016104d490611a95565b6108ac6000610f8b565b565b6097546001600160a01b031633146108d85760405162461bcd60e51b81526004016104d490611a95565b60cf55565b6060606680546103dc90611bf4565b6108f83360c954610fdd565b60cb5460ca54610917916001600160a01b039182169133911684610f31565b60c954600090815260cc6020526040902081905560cf546109389042611b66565b60c98054600090815260cd602052604081209290925580549161095a83611c2f565b919050555050565b61096d33838361111f565b5050565b61097b3383610bc8565b6109975760405162461bcd60e51b81526004016104d490611aca565b6109a3848484846111ee565b50505050565b6000818152606760205260409020546060906001600160a01b0316610a285760405162461bcd60e51b815260206004820152602f60248201527f4552433732314d657461646174613a2055524920717565727920666f72206e6f60448201526e3732bc34b9ba32b73a103a37b5b2b760891b60648201526084016104d4565b6000610a3f60408051602081019091526000815290565b90506000815111610a5f5760405180602001604052806000815250610a8a565b80610a6984611221565b604051602001610a7a9291906119c4565b6040516020818303038152906040525b9392505050565b6097546001600160a01b03163314610abb5760405162461bcd60e51b81526004016104d490611a95565b6001600160a01b038116610b205760405162461bcd60e51b815260206004820152602660248201527f4f776e61626c653a206e6577206f776e657220697320746865207a65726f206160448201526564647265737360d01b60648201526084016104d4565b61077781610f8b565b600081815260696020526040902080546001600160a01b0319166001600160a01b0384169081179091558190610b5e8261077a565b6001600160a01b03167f8c5be1e5ebec7d5bd14f71427d1e84f3dd0314c0f7b2291e5b200ac8c7c3b92560405160405180910390a45050565b600054610100900460ff16610bbe5760405162461bcd60e51b81526004016104d490611b1b565b61096d828261133b565b6000818152606760205260408120546001600160a01b0316610c415760405162461bcd60e51b815260206004820152602c60248201527f4552433732313a206f70657261746f7220717565727920666f72206e6f6e657860448201526b34b9ba32b73a103a37b5b2b760a11b60648201526084016104d4565b6000610c4c8361077a565b9050806001600160a01b0316846001600160a01b03161480610c875750836001600160a01b0316610c7c8461045f565b6001600160a01b0316145b80610cb757506001600160a01b038082166000908152606a602090815260408083209388168352929052205460ff165b949350505050565b826001600160a01b0316610cd28261077a565b6001600160a01b031614610d365760405162461bcd60e51b815260206004820152602560248201527f4552433732313a207472616e736665722066726f6d20696e636f72726563742060448201526437bbb732b960d91b60648201526084016104d4565b6001600160a01b038216610d985760405162461bcd60e51b8152602060048201526024808201527f4552433732313a207472616e7366657220746f20746865207a65726f206164646044820152637265737360e01b60648201526084016104d4565b610da3600082610b29565b6001600160a01b0383166000908152606860205260408120805460019290610dcc908490611bb1565b90915550506001600160a01b0382166000908152606860205260408120805460019290610dfa908490611b66565b909155505060008181526067602052604080822080546001600160a01b0319166001600160a01b0386811691821790925591518493918716917fddf252ad1be2c89b69c2b068fc378daa952ba7f163c4a11628f55a4df523b3ef91a4505050565b6000610e668261077a565b9050610e73600083610b29565b6001600160a01b0381166000908152606860205260408120805460019290610e9c908490611bb1565b909155505060008281526067602052604080822080546001600160a01b0319169055518391906001600160a01b038416907fddf252ad1be2c89b69c2b068fc378daa952ba7f163c4a11628f55a4df523b3ef908390a45050565b60006103c7670de0b6b3a7640000610f2b610f2460ce54670de0b6b3a764000061138990919063ffffffff16565b8590611395565b906113a1565b604080516001600160a01b0385811660248301528416604482015260648082018490528251808303909101815260849091019091526020810180516001600160e01b03166323b872dd60e01b1790526109a39085906113ad565b609780546001600160a01b038381166001600160a01b0319831681179093556040519116919082907f8be0079c531659141344cd1fd0a4f28419497f9722a3daafe3b4186f6b6457e090600090a35050565b6001600160a01b0382166110335760405162461bcd60e51b815260206004820181905260248201527f4552433732313a206d696e7420746f20746865207a65726f206164647265737360448201526064016104d4565b6000818152606760205260409020546001600160a01b0316156110985760405162461bcd60e51b815260206004820152601c60248201527f4552433732313a20746f6b656e20616c7265616479206d696e7465640000000060448201526064016104d4565b6001600160a01b03821660009081526068602052604081208054600192906110c1908490611b66565b909155505060008181526067602052604080822080546001600160a01b0319166001600160a01b03861690811790915590518392907fddf252ad1be2c89b69c2b068fc378daa952ba7f163c4a11628f55a4df523b3ef908290a45050565b816001600160a01b0316836001600160a01b031614156111815760405162461bcd60e51b815260206004820152601960248201527f4552433732313a20617070726f766520746f2063616c6c65720000000000000060448201526064016104d4565b6001600160a01b038381166000818152606a6020908152604080832094871680845294825291829020805460ff191686151590811790915591519182527f17307eab39ab6107e8899845ad3d59bd9653f200f220920489ca2b5937696c31910160405180910390a3505050565b6111f9848484610cbf565b6112058484848461147f565b6109a35760405162461bcd60e51b81526004016104d490611a43565b6060816112455750506040805180820190915260018152600360fc1b602082015290565b8160005b811561126f578061125981611c2f565b91506112689050600a83611b7e565b9150611249565b60008167ffffffffffffffff81111561129857634e487b7160e01b600052604160045260246000fd5b6040519080825280601f01601f1916602001820160405280156112c2576020820181803683370190505b5090505b8415610cb7576112d7600183611bb1565b91506112e4600a86611c4a565b6112ef906030611b66565b60f81b81838151811061131257634e487b7160e01b600052603260045260246000fd5b60200101906001600160f81b031916908160001a905350611334600a86611b7e565b94506112c6565b600054610100900460ff166113625760405162461bcd60e51b81526004016104d490611b1b565b81516113759060659060208501906116a0565b50805161060a9060669060208401906116a0565b6000610a8a8284611b66565b6000610a8a8284611b92565b6000610a8a8284611b7e565b6000611402826040518060400160405280602081526020017f5361666545524332303a206c6f772d6c6576656c2063616c6c206661696c6564815250856001600160a01b031661158c9092919063ffffffff16565b80519091501561060a57808060200190518101906114209190611910565b61060a5760405162461bcd60e51b815260206004820152602a60248201527f5361666545524332303a204552433230206f7065726174696f6e20646964206e6044820152691bdd081cdd58d8d9595960b21b60648201526084016104d4565b60006001600160a01b0384163b1561158157604051630a85bd0160e11b81526001600160a01b0385169063150b7a02906114c39033908990889088906004016119f3565b602060405180830381600087803b1580156114dd57600080fd5b505af192505050801561150d575060408051601f3d908101601f1916820190925261150a91810190611948565b60015b611567573d80801561153b576040519150601f19603f3d011682016040523d82523d6000602084013e611540565b606091505b50805161155f5760405162461bcd60e51b81526004016104d490611a43565b805181602001fd5b6001600160e01b031916630a85bd0160e11b149050610cb7565b506001949350505050565b6060610cb78484600085856001600160a01b0385163b6115ee5760405162461bcd60e51b815260206004820152601d60248201527f416464726573733a2063616c6c20746f206e6f6e2d636f6e747261637400000060448201526064016104d4565b600080866001600160a01b0316858760405161160a91906119a8565b60006040518083038185875af1925050503d8060008114611647576040519150601f19603f3d011682016040523d82523d6000602084013e61164c565b606091505b509150915061165c828286611667565b979650505050505050565b60608315611676575081610a8a565b8251156116865782518084602001fd5b8160405162461bcd60e51b81526004016104d49190611a30565b8280546116ac90611bf4565b90600052602060002090601f0160209004810192826116ce5760008555611714565b82601f106116e757805160ff1916838001178555611714565b82800160010185558215611714579182015b828111156117145782518255916020019190600101906116f9565b50611720929150611724565b5090565b5b808211156117205760008155600101611725565b80356001600160a01b038116811461175057600080fd5b919050565b600060208284031215611766578081fd5b610a8a82611739565b60008060408385031215611781578081fd5b61178a83611739565b915061179860208401611739565b90509250929050565b6000806000606084860312156117b5578081fd5b6117be84611739565b92506117cc60208501611739565b9150604084013590509250925092565b600080600080608085870312156117f1578081fd5b6117fa85611739565b935061180860208601611739565b925060408501359150606085013567ffffffffffffffff8082111561182b578283fd5b818701915087601f83011261183e578283fd5b81358181111561185057611850611c8a565b604051601f8201601f19908116603f0116810190838211818310171561187857611878611c8a565b816040528281528a6020848701011115611890578586fd5b82602086016020830137918201602001949094529598949750929550505050565b600080604083850312156118c3578182fd5b6118cc83611739565b915060208301356118dc81611ca0565b809150509250929050565b600080604083850312156118f9578182fd5b61190283611739565b946020939093013593505050565b600060208284031215611921578081fd5b8151610a8a81611ca0565b60006020828403121561193d578081fd5b8135610a8a81611cae565b600060208284031215611959578081fd5b8151610a8a81611cae565b600060208284031215611975578081fd5b5035919050565b60008151808452611994816020860160208601611bc8565b601f01601f19169290920160200192915050565b600082516119ba818460208701611bc8565b9190910192915050565b600083516119d6818460208801611bc8565b8351908301906119ea818360208801611bc8565b01949350505050565b6001600160a01b0385811682528416602082015260408101839052608060608201819052600090611a269083018461197c565b9695505050505050565b602081526000610a8a602083018461197c565b60208082526032908201527f4552433732313a207472616e7366657220746f206e6f6e20455243373231526560408201527131b2b4bb32b91034b6b83632b6b2b73a32b960711b606082015260800190565b6020808252818101527f4f776e61626c653a2063616c6c6572206973206e6f7420746865206f776e6572604082015260600190565b60208082526031908201527f4552433732313a207472616e736665722063616c6c6572206973206e6f74206f6040820152701ddb995c881b9bdc88185c1c1c9bdd9959607a1b606082015260800190565b6020808252602b908201527f496e697469616c697a61626c653a20636f6e7472616374206973206e6f74206960408201526a6e697469616c697a696e6760a81b606082015260800190565b60008219821115611b7957611b79611c5e565b500190565b600082611b8d57611b8d611c74565b500490565b6000816000190483118215151615611bac57611bac611c5e565b500290565b600082821015611bc357611bc3611c5e565b500390565b60005b83811015611be3578181015183820152602001611bcb565b838111156109a35750506000910152565b600181811c90821680611c0857607f821691505b60208210811415611c2957634e487b7160e01b600052602260045260246000fd5b50919050565b6000600019821415611c4357611c43611c5e565b5060010190565b600082611c5957611c59611c74565b500690565b634e487b7160e01b600052601160045260246000fd5b634e487b7160e01b600052601260045260246000fd5b634e487b7160e01b600052604160045260246000fd5b801515811461077757600080fd5b6001600160e01b03198116811461077757600080fdfea264697066735822122085d88f11ec0424b8f929c1b7f9256bd963dab5e794d9da77df6e8967e0b6809664736f6c63430008040033",
  "linkReferences": {},
  "deployedLinkReferences": {}
}