{
  "_format": "hh-sol-artifact-1",
  "contractName": "DRIPBOND",
  "sourceName": "contracts/token/DRIPBOND.sol",
  "abi": [
    {
      "anonymous": false,
      "inputs": [
        {
          "indexed": true,
          "internalType": "address",
          "name": "owner",
          "type": "address"
        },
        {
          "indexed": true,
          "internalType": "address",
          "name": "approved",
          "type": "address"
        },
        {
          "indexed": true,
          "internalType": "uint256",
          "name": "tokenId",
          "type": "uint256"
        }
      ],
      "name": "Approval",
      "type": "event"
    },
    {
      "anonymous": false,
      "inputs": [
        {
          "indexed": true,
          "internalType": "address",
          "name": "owner",
          "type": "address"
        },
        {
          "indexed": true,
          "internalType": "address",
          "name": "operator",
          "type": "address"
        },
        {
          "indexed": false,
          "internalType": "bool",
          "name": "approved",
          "type": "bool"
        }
      ],
      "name": "ApprovalForAll",
      "type": "event"
    },
    {
      "anonymous": false,
      "inputs": [
        {
          "indexed": true,
          "internalType": "address",
          "name": "previousOwner",
          "type": "address"
        },
        {
          "indexed": true,
          "internalType": "address",
          "name": "newOwner",
          "type": "address"
        }
      ],
      "name": "OwnershipTransferred",
      "type": "event"
    },
    {
      "anonymous": false,
      "inputs": [
        {
          "indexed": true,
          "internalType": "address",
          "name": "from",
          "type": "address"
        },
        {
          "indexed": true,
          "internalType": "address",
          "name": "to",
          "type": "address"
        },
        {
          "indexed": true,
          "internalType": "uint256",
          "name": "tokenId",
          "type": "uint256"
        }
      ],
      "name": "Transfer",
      "type": "event"
    },
    {
      "inputs": [
        {
          "internalType": "address",
          "name": "to",
          "type": "address"
        },
        {
          "internalType": "uint256",
          "name": "tokenId",
          "type": "uint256"
        }
      ],
      "name": "approve",
      "outputs": [],
      "stateMutability": "nonpayable",
      "type": "function"
    },
    {
      "inputs": [
        {
          "internalType": "address",
          "name": "owner",
          "type": "address"
        }
      ],
      "name": "balanceOf",
      "outputs": [
        {
          "internalType": "uint256",
          "name": "",
          "type": "uint256"
        }
      ],
      "stateMutability": "view",
      "type": "function"
    },
    {
      "inputs": [
        {
          "internalType": "uint256",
          "name": "idx",
          "type": "uint256"
        }
      ],
      "name": "burn",
      "outputs": [],
      "stateMutability": "nonpayable",
      "type": "function"
    },
    {
      "inputs": [
        {
          "internalType": "uint256",
          "name": "tokenId",
          "type": "uint256"
        }
      ],
      "name": "getApproved",
      "outputs": [
        {
          "internalType": "address",
          "name": "",
          "type": "address"
        }
      ],
      "stateMutability": "view",
      "type": "function"
    },
    {
      "inputs": [
        {
          "internalType": "address",
          "name": "_treasury",
          "type": "address"
        },
        {
          "internalType": "address",
          "name": "_drip",
          "type": "address"
        },
        {
          "internalType": "uint256",
          "name": "_rate",
          "type": "uint256"
        }
      ],
      "name": "initialize",
      "outputs": [],
      "stateMutability": "nonpayable",
      "type": "function"
    },
    {
      "inputs": [
        {
          "internalType": "address",
          "name": "owner",
          "type": "address"
        },
        {
          "internalType": "address",
          "name": "operator",
          "type": "address"
        }
      ],
      "name": "isApprovedForAll",
      "outputs": [
        {
          "internalType": "bool",
          "name": "",
          "type": "bool"
        }
      ],
      "stateMutability": "view",
      "type": "function"
    },
    {
      "inputs": [
        {
          "internalType": "uint256",
          "name": "",
          "type": "uint256"
        }
      ],
      "name": "locked",
      "outputs": [
        {
          "internalType": "uint256",
          "name": "",
          "type": "uint256"
        }
      ],
      "stateMutability": "view",
      "type": "function"
    },
    {
      "inputs": [],
      "name": "maturesAfter",
      "outputs": [
        {
          "internalType": "uint256",
          "name": "",
          "type": "uint256"
        }
      ],
      "stateMutability": "view",
      "type": "function"
    },
    {
      "inputs": [
        {
          "internalType": "uint256",
          "name": "amount",
          "type": "uint256"
        }
      ],
      "name": "mint",
      "outputs": [],
      "stateMutability": "nonpayable",
      "type": "function"
    },
    {
      "inputs": [],
      "name": "name",
      "outputs": [
        {
          "internalType": "string",
          "name": "",
          "type": "string"
        }
      ],
      "stateMutability": "view",
      "type": "function"
    },
    {
      "inputs": [],
      "name": "owner",
      "outputs": [
        {
          "internalType": "address",
          "name": "",
          "type": "address"
        }
      ],
      "stateMutability": "view",
      "type": "function"
    },
    {
      "inputs": [
        {
          "internalType": "uint256",
          "name": "tokenId",
          "type": "uint256"
        }
      ],
      "name": "ownerOf",
      "outputs": [
        {
          "internalType": "address",
          "name": "",
          "type": "address"
        }
      ],
      "stateMutability": "view",
      "type": "function"
    },
    {
      "inputs": [],
      "name": "rate",
      "outputs": [
        {
          "internalType": "uint256",
          "name": "",
          "type": "uint256"
        }
      ],
      "stateMutability": "view",
      "type": "function"
    },
    {
      "inputs": [],
      "name": "renounceOwnership",
      "outputs": [],
      "stateMutability": "nonpayable",
      "type": "function"
    },
    {
      "inputs": [
        {
          "internalType": "address",
          "name": "from",
          "type": "address"
        },
        {
          "internalType": "address",
          "name": "to",
          "type": "address"
        },
        {
          "internalType": "uint256",
          "name": "tokenId",
          "type": "uint256"
        }
      ],
      "name": "safeTransferFrom",
      "outputs": [],
      "stateMutability": "nonpayable",
      "type": "function"
    },
    {
      "inputs": [
        {
          "internalType": "address",
          "name": "from",
          "type": "address"
        },
        {
          "internalType": "address",
          "name": "to",
          "type": "address"
        },
        {
          "internalType": "uint256",
          "name": "tokenId",
          "type": "uint256"
        },
        {
          "internalType": "bytes",
          "name": "_data",
          "type": "bytes"
        }
      ],
      "name": "safeTransferFrom",
      "outputs": [],
      "stateMutability": "nonpayable",
      "type": "function"
    },
    {
      "inputs": [
        {
          "internalType": "address",
          "name": "operator",
          "type": "address"
        },
        {
          "internalType": "bool",
          "name": "approved",
          "type": "bool"
        }
      ],
      "name": "setApprovalForAll",
      "outputs": [],
      "stateMutability": "nonpayable",
      "type": "function"
    },
    {
      "inputs": [
        {
          "internalType": "uint256",
          "name": "_maturesAfter",
          "type": "uint256"
        }
      ],
      "name": "setMaturity",
      "outputs": [],
      "stateMutability": "nonpayable",
      "type": "function"
    },
    {
      "inputs": [
        {
          "internalType": "bytes4",
          "name": "interfaceId",
          "type": "bytes4"
        }
      ],
      "name": "supportsInterface",
      "outputs": [
        {
          "internalType": "bool",
          "name": "",
          "type": "bool"
        }
      ],
      "stateMutability": "view",
      "type": "function"
    },
    {
      "inputs": [],
      "name": "symbol",
      "outputs": [
        {
          "internalType": "string",
          "name": "",
          "type": "string"
        }
      ],
      "stateMutability": "view",
      "type": "function"
    },
    {
      "inputs": [
        {
          "internalType": "uint256",
          "name": "tokenId",
          "type": "uint256"
        }
      ],
      "name": "tokenURI",
      "outputs": [
        {
          "internalType": "string",
          "name": "",
          "type": "string"
        }
      ],
      "stateMutability": "view",
      "type": "function"
    },
    {
      "inputs": [
        {
          "internalType": "address",
          "name": "from",
          "type": "address"
        },
        {
          "internalType": "address",
          "name": "to",
          "type": "address"
        },
        {
          "internalType": "uint256",
          "name": "tokenId",
          "type": "uint256"
        }
      ],
      "name": "transferFrom",
      "outputs": [],
      "stateMutability": "nonpayable",
      "type": "function"
    },
    {
      "inputs": [
        {
          "internalType": "address",
          "name": "newOwner",
          "type": "address"
        }
      ],
      "name": "transferOwnership",
      "outputs": [],
      "stateMutability": "nonpayable",
      "type": "function"
    },
    {
      "inputs": [
        {
          "internalType": "uint256",
          "name": "",
          "type": "uint256"
        }
      ],
      "name": "unlockAt",
      "outputs": [
        {
          "internalType": "uint256",
          "name": "",
          "type": "uint256"
        }
      ],
      "stateMutability": "view",
      "type": "function"
    }
  ],
  "bytecode": "0x608060405234801561001057600080fd5b50613945806100206000396000f3fe608060405234801561001057600080fd5b50600436106101585760003560e01c806370a08231116100c3578063a22cb4651161007c578063a22cb465146103b1578063b45a3c0e146103cd578063b88d4fde146103fd578063c87b56dd14610419578063e985e9c514610449578063f2fde38b1461047957610158565b806370a0823114610303578063715018a6146103335780638117a5781461033d5780638da5cb5b1461035957806395d89b4114610377578063a0712d681461039557610158565b80632c4e722e116101155780632c4e722e1461022f5780633d71a4eb1461024d57806342842e0e1461027d57806342966c681461029957806362d3f0f6146102b55780636352211e146102d357610158565b806301ffc9a71461015d57806306fdde031461018d578063081812fc146101ab578063095ea7b3146101db5780631794bb3c146101f757806323b872dd14610213575b600080fd5b610177600480360381019061017291906126d7565b610495565b6040516101849190612c0b565b60405180910390f35b610195610577565b6040516101a29190612c26565b60405180910390f35b6101c560048036038101906101c09190612729565b610609565b6040516101d29190612b6d565b60405180910390f35b6101f560048036038101906101f09190612672565b61068e565b005b610211600480360381019061020c919061256c565b6107a6565b005b61022d6004803603810190610228919061256c565b6108ba565b005b61023761091a565b6040516102449190612ee8565b60405180910390f35b61026760048036038101906102629190612729565b610920565b6040516102749190612ee8565b60405180910390f35b6102976004803603810190610292919061256c565b610938565b005b6102b360048036038101906102ae9190612729565b610958565b005b6102bd610a46565b6040516102ca9190612ee8565b60405180910390f35b6102ed60048036038101906102e89190612729565b610a4c565b6040516102fa9190612b6d565b60405180910390f35b61031d60048036038101906103189190612507565b610afe565b60405161032a9190612ee8565b60405180910390f35b61033b610bb6565b005b61035760048036038101906103529190612729565b610c3e565b005b610361610cc4565b60405161036e9190612b6d565b60405180910390f35b61037f610cee565b60405161038c9190612c26565b60405180910390f35b6103af60048036038101906103aa9190612729565b610d80565b005b6103cb60048036038101906103c69190612636565b610e59565b005b6103e760048036038101906103e29190612729565b610e6f565b6040516103f49190612ee8565b60405180910390f35b610417600480360381019061041291906125bb565b610e87565b005b610433600480360381019061042e9190612729565b610ee9565b6040516104409190612c26565b60405180910390f35b610463600480360381019061045e9190612530565b610f90565b6040516104709190612c0b565b60405180910390f35b610493600480360381019061048e9190612507565b611024565b005b60007f80ac58cd000000000000000000000000000000000000000000000000000000007bffffffffffffffffffffffffffffffffffffffffffffffffffffffff1916827bffffffffffffffffffffffffffffffffffffffffffffffffffffffff1916148061056057507f5b5e139f000000000000000000000000000000000000000000000000000000007bffffffffffffffffffffffffffffffffffffffffffffffffffffffff1916827bffffffffffffffffffffffffffffffffffffffffffffffffffffffff1916145b80610570575061056f8261111c565b5b9050919050565b60606065805461058690613172565b80601f01602080910402602001604051908101604052809291908181526020018280546105b290613172565b80156105ff5780601f106105d4576101008083540402835291602001916105ff565b820191906000526020600020905b8154815290600101906020018083116105e257829003601f168201915b5050505050905090565b600061061482611186565b610653576040517f08c379a000000000000000000000000000000000000000000000000000000000815260040161064a90612dc8565b60405180910390fd5b6069600083815260200190815260200160002060009054906101000a900473ffffffffffffffffffffffffffffffffffffffff169050919050565b600061069982610a4c565b90508073ffffffffffffffffffffffffffffffffffffffff168373ffffffffffffffffffffffffffffffffffffffff16141561070a576040517f08c379a000000000000000000000000000000000000000000000000000000000815260040161070190612e28565b60405180910390fd5b8073ffffffffffffffffffffffffffffffffffffffff166107296111f2565b73ffffffffffffffffffffffffffffffffffffffff1614806107585750610757816107526111f2565b610f90565b5b610797576040517f08c379a000000000000000000000000000000000000000000000000000000000815260040161078e90612d48565b60405180910390fd5b6107a183836111fa565b505050565b61081a6040518060400160405280600881526020017f44524950424f4e440000000000000000000000000000000000000000000000008152506040518060400160405280600881526020017f44524950424f4e440000000000000000000000000000000000000000000000008152506112b3565b8260cb60006101000a81548173ffffffffffffffffffffffffffffffffffffffff021916908373ffffffffffffffffffffffffffffffffffffffff1602179055508160ca60006101000a81548173ffffffffffffffffffffffffffffffffffffffff021916908373ffffffffffffffffffffffffffffffffffffffff1602179055508060ce81905550600060c98190555062278d0060cf81905550505050565b6108cb6108c56111f2565b82611310565b61090a576040517f08c379a000000000000000000000000000000000000000000000000000000000815260040161090190612e68565b60405180910390fd5b6109158383836113ee565b505050565b60ce5481565b60cd6020528060005260406000206000915090505481565b61095383838360405180602001604052806000815250610e87565b505050565b4260cd60008381526020019081526020016000205411156109ae576040517f08c379a00000000000000000000000000000000000000000000000000000000081526004016109a590612e48565b60405180910390fd5b6109b781611655565b610a4360cb60009054906101000a900473ffffffffffffffffffffffffffffffffffffffff16336109fa60cc600086815260200190815260200160002054611772565b60ca60009054906101000a900473ffffffffffffffffffffffffffffffffffffffff1673ffffffffffffffffffffffffffffffffffffffff166117c4909392919063ffffffff16565b50565b60cf5481565b6000806067600084815260200190815260200160002060009054906101000a900473ffffffffffffffffffffffffffffffffffffffff169050600073ffffffffffffffffffffffffffffffffffffffff168173ffffffffffffffffffffffffffffffffffffffff161415610af5576040517f08c379a0000000000000000000000000000000000000000000000000000000008152600401610aec90612d88565b60405180910390fd5b80915050919050565b60008073ffffffffffffffffffffffffffffffffffffffff168273ffffffffffffffffffffffffffffffffffffffff161415610b6f576040517f08c379a0000000000000000000000000000000000000000000000000000000008152600401610b6690612d68565b60405180910390fd5b606860008373ffffffffffffffffffffffffffffffffffffffff1673ffffffffffffffffffffffffffffffffffffffff168152602001908152602001600020549050919050565b610bbe6111f2565b73ffffffffffffffffffffffffffffffffffffffff16610bdc610cc4565b73ffffffffffffffffffffffffffffffffffffffff1614610c32576040517f08c379a0000000000000000000000000000000000000000000000000000000008152600401610c2990612de8565b60405180910390fd5b610c3c600061184d565b565b610c466111f2565b73ffffffffffffffffffffffffffffffffffffffff16610c64610cc4565b73ffffffffffffffffffffffffffffffffffffffff1614610cba576040517f08c379a0000000000000000000000000000000000000000000000000000000008152600401610cb190612de8565b60405180910390fd5b8060cf8190555050565b6000609760009054906101000a900473ffffffffffffffffffffffffffffffffffffffff16905090565b606060668054610cfd90613172565b80601f0160208091040260200160405190810160405280929190818152602001828054610d2990613172565b8015610d765780601f10610d4b57610100808354040283529160200191610d76565b820191906000526020600020905b815481529060010190602001808311610d5957829003601f168201915b5050505050905090565b610d8c3360c954611913565b610dfd3360cb60009054906101000a900473ffffffffffffffffffffffffffffffffffffffff168360ca60009054906101000a900473ffffffffffffffffffffffffffffffffffffffff1673ffffffffffffffffffffffffffffffffffffffff166117c4909392919063ffffffff16565b8060cc600060c95481526020019081526020016000208190555060cf5442610e259190612fa7565b60cd600060c95481526020019081526020016000208190555060c96000815480929190610e51906131d5565b919050555050565b610e6b610e646111f2565b8383611aed565b5050565b60cc6020528060005260406000206000915090505481565b610e98610e926111f2565b83611310565b610ed7576040517f08c379a0000000000000000000000000000000000000000000000000000000008152600401610ece90612e68565b60405180910390fd5b610ee384848484611c5a565b50505050565b6060610ef482611186565b610f33576040517f08c379a0000000000000000000000000000000000000000000000000000000008152600401610f2a90612e08565b60405180910390fd5b6000610f3d611cb6565b90506000815111610f5d5760405180602001604052806000815250610f88565b80610f6784611ccd565b604051602001610f78929190612b49565b6040516020818303038152906040525b915050919050565b6000606a60008473ffffffffffffffffffffffffffffffffffffffff1673ffffffffffffffffffffffffffffffffffffffff16815260200190815260200160002060008373ffffffffffffffffffffffffffffffffffffffff1673ffffffffffffffffffffffffffffffffffffffff16815260200190815260200160002060009054906101000a900460ff16905092915050565b61102c6111f2565b73ffffffffffffffffffffffffffffffffffffffff1661104a610cc4565b73ffffffffffffffffffffffffffffffffffffffff16146110a0576040517f08c379a000000000000000000000000000000000000000000000000000000000815260040161109790612de8565b60405180910390fd5b600073ffffffffffffffffffffffffffffffffffffffff168173ffffffffffffffffffffffffffffffffffffffff161415611110576040517f08c379a000000000000000000000000000000000000000000000000000000000815260040161110790612c68565b60405180910390fd5b6111198161184d565b50565b60007f01ffc9a7000000000000000000000000000000000000000000000000000000007bffffffffffffffffffffffffffffffffffffffffffffffffffffffff1916827bffffffffffffffffffffffffffffffffffffffffffffffffffffffff1916149050919050565b60008073ffffffffffffffffffffffffffffffffffffffff166067600084815260200190815260200160002060009054906101000a900473ffffffffffffffffffffffffffffffffffffffff1673ffffffffffffffffffffffffffffffffffffffff1614159050919050565b600033905090565b816069600083815260200190815260200160002060006101000a81548173ffffffffffffffffffffffffffffffffffffffff021916908373ffffffffffffffffffffffffffffffffffffffff160217905550808273ffffffffffffffffffffffffffffffffffffffff1661126d83610a4c565b73ffffffffffffffffffffffffffffffffffffffff167f8c5be1e5ebec7d5bd14f71427d1e84f3dd0314c0f7b2291e5b200ac8c7c3b92560405160405180910390a45050565b600060019054906101000a900460ff16611302576040517f08c379a00000000000000000000000000000000000000000000000000000000081526004016112f990612ea8565b60405180910390fd5b61130c8282611e7a565b5050565b600061131b82611186565b61135a576040517f08c379a000000000000000000000000000000000000000000000000000000000815260040161135190612d28565b60405180910390fd5b600061136583610a4c565b90508073ffffffffffffffffffffffffffffffffffffffff168473ffffffffffffffffffffffffffffffffffffffff1614806113d457508373ffffffffffffffffffffffffffffffffffffffff166113bc84610609565b73ffffffffffffffffffffffffffffffffffffffff16145b806113e557506113e48185610f90565b5b91505092915050565b8273ffffffffffffffffffffffffffffffffffffffff1661140e82610a4c565b73ffffffffffffffffffffffffffffffffffffffff1614611464576040517f08c379a000000000000000000000000000000000000000000000000000000000815260040161145b90612c88565b60405180910390fd5b600073ffffffffffffffffffffffffffffffffffffffff168273ffffffffffffffffffffffffffffffffffffffff1614156114d4576040517f08c379a00000000000000000000000000000000000000000000000000000000081526004016114cb90612cc8565b60405180910390fd5b6114df838383611efb565b6114ea6000826111fa565b6001606860008573ffffffffffffffffffffffffffffffffffffffff1673ffffffffffffffffffffffffffffffffffffffff168152602001908152602001600020600082825461153a9190613088565b925050819055506001606860008473ffffffffffffffffffffffffffffffffffffffff1673ffffffffffffffffffffffffffffffffffffffff16815260200190815260200160002060008282546115919190612fa7565b92505081905550816067600083815260200190815260200160002060006101000a81548173ffffffffffffffffffffffffffffffffffffffff021916908373ffffffffffffffffffffffffffffffffffffffff160217905550808273ffffffffffffffffffffffffffffffffffffffff168473ffffffffffffffffffffffffffffffffffffffff167fddf252ad1be2c89b69c2b068fc378daa952ba7f163c4a11628f55a4df523b3ef60405160405180910390a4611650838383611f00565b505050565b600061166082610a4c565b905061166e81600084611efb565b6116796000836111fa565b6001606860008373ffffffffffffffffffffffffffffffffffffffff1673ffffffffffffffffffffffffffffffffffffffff16815260200190815260200160002060008282546116c99190613088565b925050819055506067600083815260200190815260200160002060006101000a81549073ffffffffffffffffffffffffffffffffffffffff021916905581600073ffffffffffffffffffffffffffffffffffffffff168273ffffffffffffffffffffffffffffffffffffffff167fddf252ad1be2c89b69c2b068fc378daa952ba7f163c4a11628f55a4df523b3ef60405160405180910390a461176e81600084611f00565b5050565b60006117bd670de0b6b3a76400006117af6117a060ce54670de0b6b3a7640000611f0590919063ffffffff16565b85611f1b90919063ffffffff16565b611f3190919063ffffffff16565b9050919050565b611847846323b872dd60e01b8585856040516024016117e593929190612b88565b604051602081830303815290604052907bffffffffffffffffffffffffffffffffffffffffffffffffffffffff19166020820180517bffffffffffffffffffffffffffffffffffffffffffffffffffffffff8381831617835250505050611f47565b50505050565b6000609760009054906101000a900473ffffffffffffffffffffffffffffffffffffffff16905081609760006101000a81548173ffffffffffffffffffffffffffffffffffffffff021916908373ffffffffffffffffffffffffffffffffffffffff1602179055508173ffffffffffffffffffffffffffffffffffffffff168173ffffffffffffffffffffffffffffffffffffffff167f8be0079c531659141344cd1fd0a4f28419497f9722a3daafe3b4186f6b6457e060405160405180910390a35050565b600073ffffffffffffffffffffffffffffffffffffffff168273ffffffffffffffffffffffffffffffffffffffff161415611983576040517f08c379a000000000000000000000000000000000000000000000000000000000815260040161197a90612da8565b60405180910390fd5b61198c81611186565b156119cc576040517f08c379a00000000000000000000000000000000000000000000000000000000081526004016119c390612ca8565b60405180910390fd5b6119d860008383611efb565b6001606860008473ffffffffffffffffffffffffffffffffffffffff1673ffffffffffffffffffffffffffffffffffffffff1681526020019081526020016000206000828254611a289190612fa7565b92505081905550816067600083815260200190815260200160002060006101000a81548173ffffffffffffffffffffffffffffffffffffffff021916908373ffffffffffffffffffffffffffffffffffffffff160217905550808273ffffffffffffffffffffffffffffffffffffffff16600073ffffffffffffffffffffffffffffffffffffffff167fddf252ad1be2c89b69c2b068fc378daa952ba7f163c4a11628f55a4df523b3ef60405160405180910390a4611ae960008383611f00565b5050565b8173ffffffffffffffffffffffffffffffffffffffff168373ffffffffffffffffffffffffffffffffffffffff161415611b5c576040517f08c379a0000000000000000000000000000000000000000000000000000000008152600401611b5390612ce8565b60405180910390fd5b80606a60008573ffffffffffffffffffffffffffffffffffffffff1673ffffffffffffffffffffffffffffffffffffffff16815260200190815260200160002060008473ffffffffffffffffffffffffffffffffffffffff1673ffffffffffffffffffffffffffffffffffffffff16815260200190815260200160002060006101000a81548160ff0219169083151502179055508173ffffffffffffffffffffffffffffffffffffffff168373ffffffffffffffffffffffffffffffffffffffff167f17307eab39ab6107e8899845ad3d59bd9653f200f220920489ca2b5937696c3183604051611c4d9190612c0b565b60405180910390a3505050565b611c658484846113ee565b611c718484848461200e565b611cb0576040517f08c379a0000000000000000000000000000000000000000000000000000000008152600401611ca790612c48565b60405180910390fd5b50505050565b606060405180602001604052806000815250905090565b60606000821415611d15576040518060400160405280600181526020017f30000000000000000000000000000000000000000000000000000000000000008152509050611e75565b600082905060005b60008214611d47578080611d30906131d5565b915050600a82611d409190612ffd565b9150611d1d565b60008167ffffffffffffffff811115611d89577f4e487b7100000000000000000000000000000000000000000000000000000000600052604160045260246000fd5b6040519080825280601f01601f191660200182016040528015611dbb5781602001600182028036833780820191505090505b5090505b60008514611e6e57600182611dd49190613088565b9150600a85611de3919061321e565b6030611def9190612fa7565b60f81b818381518110611e2b577f4e487b7100000000000000000000000000000000000000000000000000000000600052603260045260246000fd5b60200101907effffffffffffffffffffffffffffffffffffffffffffffffffffffffffffff1916908160001a905350600a85611e679190612ffd565b9450611dbf565b8093505050505b919050565b600060019054906101000a900460ff16611ec9576040517f08c379a0000000000000000000000000000000000000000000000000000000008152600401611ec090612ea8565b60405180910390fd5b8160659080519060200190611edf92919061237e565b508060669080519060200190611ef692919061237e565b505050565b505050565b505050565b60008183611f139190612fa7565b905092915050565b60008183611f29919061302e565b905092915050565b60008183611f3f9190612ffd565b905092915050565b6000611fa9826040518060400160405280602081526020017f5361666545524332303a206c6f772d6c6576656c2063616c6c206661696c65648152508573ffffffffffffffffffffffffffffffffffffffff166121a59092919063ffffffff16565b90506000815111156120095780806020019051810190611fc991906126ae565b612008576040517f08c379a0000000000000000000000000000000000000000000000000000000008152600401611fff90612ec8565b60405180910390fd5b5b505050565b600061202f8473ffffffffffffffffffffffffffffffffffffffff166121bd565b15612198578373ffffffffffffffffffffffffffffffffffffffff1663150b7a026120586111f2565b8786866040518563ffffffff1660e01b815260040161207a9493929190612bbf565b602060405180830381600087803b15801561209457600080fd5b505af19250505080156120c557506040513d601f19601f820116820180604052508101906120c29190612700565b60015b612148573d80600081146120f5576040519150601f19603f3d011682016040523d82523d6000602084013e6120fa565b606091505b50600081511415612140576040517f08c379a000000000000000000000000000000000000000000000000000000000815260040161213790612c48565b60405180910390fd5b805181602001fd5b63150b7a0260e01b7bffffffffffffffffffffffffffffffffffffffffffffffffffffffff1916817bffffffffffffffffffffffffffffffffffffffffffffffffffffffff19161491505061219d565b600190505b949350505050565b60606121b484846000856121e0565b90509392505050565b6000808273ffffffffffffffffffffffffffffffffffffffff163b119050919050565b606082471015612225576040517f08c379a000000000000000000000000000000000000000000000000000000000815260040161221c90612d08565b60405180910390fd5b61222e856122f4565b61226d576040517f08c379a000000000000000000000000000000000000000000000000000000000815260040161226490612e88565b60405180910390fd5b6000808673ffffffffffffffffffffffffffffffffffffffff1685876040516122969190612b32565b60006040518083038185875af1925050503d80600081146122d3576040519150601f19603f3d011682016040523d82523d6000602084013e6122d8565b606091505b50915091506122e8828286612317565b92505050949350505050565b6000808273ffffffffffffffffffffffffffffffffffffffff163b119050919050565b6060831561232757829050612377565b60008351111561233a5782518084602001fd5b816040517f08c379a000000000000000000000000000000000000000000000000000000000815260040161236e9190612c26565b60405180910390fd5b9392505050565b82805461238a90613172565b90600052602060002090601f0160209004810192826123ac57600085556123f3565b82601f106123c557805160ff19168380011785556123f3565b828001600101855582156123f3579182015b828111156123f25782518255916020019190600101906123d7565b5b5090506124009190612404565b5090565b5b8082111561241d576000816000905550600101612405565b5090565b600061243461242f84612f28565b612f03565b90508281526020810184848401111561244c57600080fd5b612457848285613130565b509392505050565b60008135905061246e816138b3565b92915050565b600081359050612483816138ca565b92915050565b600081519050612498816138ca565b92915050565b6000813590506124ad816138e1565b92915050565b6000815190506124c2816138e1565b92915050565b600082601f8301126124d957600080fd5b81356124e9848260208601612421565b91505092915050565b600081359050612501816138f8565b92915050565b60006020828403121561251957600080fd5b60006125278482850161245f565b91505092915050565b6000806040838503121561254357600080fd5b60006125518582860161245f565b92505060206125628582860161245f565b9150509250929050565b60008060006060848603121561258157600080fd5b600061258f8682870161245f565b93505060206125a08682870161245f565b92505060406125b1868287016124f2565b9150509250925092565b600080600080608085870312156125d157600080fd5b60006125df8782880161245f565b94505060206125f08782880161245f565b9350506040612601878288016124f2565b925050606085013567ffffffffffffffff81111561261e57600080fd5b61262a878288016124c8565b91505092959194509250565b6000806040838503121561264957600080fd5b60006126578582860161245f565b925050602061266885828601612474565b9150509250929050565b6000806040838503121561268557600080fd5b60006126938582860161245f565b92505060206126a4858286016124f2565b9150509250929050565b6000602082840312156126c057600080fd5b60006126ce84828501612489565b91505092915050565b6000602082840312156126e957600080fd5b60006126f78482850161249e565b91505092915050565b60006020828403121561271257600080fd5b6000612720848285016124b3565b91505092915050565b60006020828403121561273b57600080fd5b6000612749848285016124f2565b91505092915050565b61275b816130bc565b82525050565b61276a816130ce565b82525050565b600061277b82612f59565b6127858185612f6f565b935061279581856020860161313f565b61279e8161330b565b840191505092915050565b60006127b482612f59565b6127be8185612f80565b93506127ce81856020860161313f565b80840191505092915050565b60006127e582612f64565b6127ef8185612f8b565b93506127ff81856020860161313f565b6128088161330b565b840191505092915050565b600061281e82612f64565b6128288185612f9c565b935061283881856020860161313f565b80840191505092915050565b6000612851603283612f8b565b915061285c8261331c565b604082019050919050565b6000612874602683612f8b565b915061287f8261336b565b604082019050919050565b6000612897602583612f8b565b91506128a2826133ba565b604082019050919050565b60006128ba601c83612f8b565b91506128c582613409565b602082019050919050565b60006128dd602483612f8b565b91506128e882613432565b604082019050919050565b6000612900601983612f8b565b915061290b82613481565b602082019050919050565b6000612923602683612f8b565b915061292e826134aa565b604082019050919050565b6000612946602c83612f8b565b9150612951826134f9565b604082019050919050565b6000612969603883612f8b565b915061297482613548565b604082019050919050565b600061298c602a83612f8b565b915061299782613597565b604082019050919050565b60006129af602983612f8b565b91506129ba826135e6565b604082019050919050565b60006129d2602083612f8b565b91506129dd82613635565b602082019050919050565b60006129f5602c83612f8b565b9150612a008261365e565b604082019050919050565b6000612a18602083612f8b565b9150612a23826136ad565b602082019050919050565b6000612a3b602f83612f8b565b9150612a46826136d6565b604082019050919050565b6000612a5e602183612f8b565b9150612a6982613725565b604082019050919050565b6000612a81600883612f8b565b9150612a8c82613774565b602082019050919050565b6000612aa4603183612f8b565b9150612aaf8261379d565b604082019050919050565b6000612ac7601d83612f8b565b9150612ad2826137ec565b602082019050919050565b6000612aea602b83612f8b565b9150612af582613815565b604082019050919050565b6000612b0d602a83612f8b565b9150612b1882613864565b604082019050919050565b612b2c81613126565b82525050565b6000612b3e82846127a9565b915081905092915050565b6000612b558285612813565b9150612b618284612813565b91508190509392505050565b6000602082019050612b826000830184612752565b92915050565b6000606082019050612b9d6000830186612752565b612baa6020830185612752565b612bb76040830184612b23565b949350505050565b6000608082019050612bd46000830187612752565b612be16020830186612752565b612bee6040830185612b23565b8181036060830152612c008184612770565b905095945050505050565b6000602082019050612c206000830184612761565b92915050565b60006020820190508181036000830152612c4081846127da565b905092915050565b60006020820190508181036000830152612c6181612844565b9050919050565b60006020820190508181036000830152612c8181612867565b9050919050565b60006020820190508181036000830152612ca18161288a565b9050919050565b60006020820190508181036000830152612cc1816128ad565b9050919050565b60006020820190508181036000830152612ce1816128d0565b9050919050565b60006020820190508181036000830152612d01816128f3565b9050919050565b60006020820190508181036000830152612d2181612916565b9050919050565b60006020820190508181036000830152612d4181612939565b9050919050565b60006020820190508181036000830152612d618161295c565b9050919050565b60006020820190508181036000830152612d818161297f565b9050919050565b60006020820190508181036000830152612da1816129a2565b9050919050565b60006020820190508181036000830152612dc1816129c5565b9050919050565b60006020820190508181036000830152612de1816129e8565b9050919050565b60006020820190508181036000830152612e0181612a0b565b9050919050565b60006020820190508181036000830152612e2181612a2e565b9050919050565b60006020820190508181036000830152612e4181612a51565b9050919050565b60006020820190508181036000830152612e6181612a74565b9050919050565b60006020820190508181036000830152612e8181612a97565b9050919050565b60006020820190508181036000830152612ea181612aba565b9050919050565b60006020820190508181036000830152612ec181612add565b9050919050565b60006020820190508181036000830152612ee181612b00565b9050919050565b6000602082019050612efd6000830184612b23565b92915050565b6000612f0d612f1e565b9050612f1982826131a4565b919050565b6000604051905090565b600067ffffffffffffffff821115612f4357612f426132dc565b5b612f4c8261330b565b9050602081019050919050565b600081519050919050565b600081519050919050565b600082825260208201905092915050565b600081905092915050565b600082825260208201905092915050565b600081905092915050565b6000612fb282613126565b9150612fbd83613126565b9250827fffffffffffffffffffffffffffffffffffffffffffffffffffffffffffffffff03821115612ff257612ff161324f565b5b828201905092915050565b600061300882613126565b915061301383613126565b9250826130235761302261327e565b5b828204905092915050565b600061303982613126565b915061304483613126565b9250817fffffffffffffffffffffffffffffffffffffffffffffffffffffffffffffffff048311821515161561307d5761307c61324f565b5b828202905092915050565b600061309382613126565b915061309e83613126565b9250828210156130b1576130b061324f565b5b828203905092915050565b60006130c782613106565b9050919050565b60008115159050919050565b60007fffffffff0000000000000000000000000000000000000000000000000000000082169050919050565b600073ffffffffffffffffffffffffffffffffffffffff82169050919050565b6000819050919050565b82818337600083830152505050565b60005b8381101561315d578082015181840152602081019050613142565b8381111561316c576000848401525b50505050565b6000600282049050600182168061318a57607f821691505b6020821081141561319e5761319d6132ad565b5b50919050565b6131ad8261330b565b810181811067ffffffffffffffff821117156131cc576131cb6132dc565b5b80604052505050565b60006131e082613126565b91507fffffffffffffffffffffffffffffffffffffffffffffffffffffffffffffffff8214156132135761321261324f565b5b600182019050919050565b600061322982613126565b915061323483613126565b9250826132445761324361327e565b5b828206905092915050565b7f4e487b7100000000000000000000000000000000000000000000000000000000600052601160045260246000fd5b7f4e487b7100000000000000000000000000000000000000000000000000000000600052601260045260246000fd5b7f4e487b7100000000000000000000000000000000000000000000000000000000600052602260045260246000fd5b7f4e487b7100000000000000000000000000000000000000000000000000000000600052604160045260246000fd5b6000601f19601f8301169050919050565b7f4552433732313a207472616e7366657220746f206e6f6e20455243373231526560008201527f63656976657220696d706c656d656e7465720000000000000000000000000000602082015250565b7f4f776e61626c653a206e6577206f776e657220697320746865207a65726f206160008201527f6464726573730000000000000000000000000000000000000000000000000000602082015250565b7f4552433732313a207472616e736665722066726f6d20696e636f72726563742060008201527f6f776e6572000000000000000000000000000000000000000000000000000000602082015250565b7f4552433732313a20746f6b656e20616c7265616479206d696e74656400000000600082015250565b7f4552433732313a207472616e7366657220746f20746865207a65726f2061646460008201527f7265737300000000000000000000000000000000000000000000000000000000602082015250565b7f4552433732313a20617070726f766520746f2063616c6c657200000000000000600082015250565b7f416464726573733a20696e73756666696369656e742062616c616e636520666f60008201527f722063616c6c0000000000000000000000000000000000000000000000000000602082015250565b7f4552433732313a206f70657261746f7220717565727920666f72206e6f6e657860008201527f697374656e7420746f6b656e0000000000000000000000000000000000000000602082015250565b7f4552433732313a20617070726f76652063616c6c6572206973206e6f74206f7760008201527f6e6572206e6f7220617070726f76656420666f7220616c6c0000000000000000602082015250565b7f4552433732313a2062616c616e636520717565727920666f7220746865207a6560008201527f726f206164647265737300000000000000000000000000000000000000000000602082015250565b7f4552433732313a206f776e657220717565727920666f72206e6f6e657869737460008201527f656e7420746f6b656e0000000000000000000000000000000000000000000000602082015250565b7f4552433732313a206d696e7420746f20746865207a65726f2061646472657373600082015250565b7f4552433732313a20617070726f76656420717565727920666f72206e6f6e657860008201527f697374656e7420746f6b656e0000000000000000000000000000000000000000602082015250565b7f4f776e61626c653a2063616c6c6572206973206e6f7420746865206f776e6572600082015250565b7f4552433732314d657461646174613a2055524920717565727920666f72206e6f60008201527f6e6578697374656e7420746f6b656e0000000000000000000000000000000000602082015250565b7f4552433732313a20617070726f76616c20746f2063757272656e74206f776e6560008201527f7200000000000000000000000000000000000000000000000000000000000000602082015250565b7f216d617475726564000000000000000000000000000000000000000000000000600082015250565b7f4552433732313a207472616e736665722063616c6c6572206973206e6f74206f60008201527f776e6572206e6f7220617070726f766564000000000000000000000000000000602082015250565b7f416464726573733a2063616c6c20746f206e6f6e2d636f6e7472616374000000600082015250565b7f496e697469616c697a61626c653a20636f6e7472616374206973206e6f74206960008201527f6e697469616c697a696e67000000000000000000000000000000000000000000602082015250565b7f5361666545524332303a204552433230206f7065726174696f6e20646964206e60008201527f6f74207375636365656400000000000000000000000000000000000000000000602082015250565b6138bc816130bc565b81146138c757600080fd5b50565b6138d3816130ce565b81146138de57600080fd5b50565b6138ea816130da565b81146138f557600080fd5b50565b61390181613126565b811461390c57600080fd5b5056fea26469706673582212203739d2477228c3cf56599ea1691f0205d603f39849a03011fc69e1e8f9b8a29c64736f6c63430008040033",
  "linkReferences": {},
  "deployedLinkReferences": {}
}