{
  "_format": "hh-sol-artifact-1",
  "contractName": "DRIPBOND",
  "sourceName": "contracts/token/DRIPBOND.sol",
  "abi": [
    {
      "anonymous": false,
      "inputs": [
        {
          "indexed": true,
          "internalType": "address",
          "name": "owner",
          "type": "address"
        },
        {
          "indexed": true,
          "internalType": "address",
          "name": "approved",
          "type": "address"
        },
        {
          "indexed": true,
          "internalType": "uint256",
          "name": "tokenId",
          "type": "uint256"
        }
      ],
      "name": "Approval",
      "type": "event"
    },
    {
      "anonymous": false,
      "inputs": [
        {
          "indexed": true,
          "internalType": "address",
          "name": "owner",
          "type": "address"
        },
        {
          "indexed": true,
          "internalType": "address",
          "name": "operator",
          "type": "address"
        },
        {
          "indexed": false,
          "internalType": "bool",
          "name": "approved",
          "type": "bool"
        }
      ],
      "name": "ApprovalForAll",
      "type": "event"
    },
    {
      "anonymous": false,
      "inputs": [
        {
          "indexed": true,
          "internalType": "address",
          "name": "holder",
          "type": "address"
        },
        {
          "indexed": true,
          "internalType": "uint256",
          "name": "bond",
          "type": "uint256"
        },
        {
          "indexed": false,
          "internalType": "uint256",
          "name": "maturedValue",
          "type": "uint256"
        }
      ],
      "name": "DripBondBurned",
      "type": "event"
    },
    {
      "anonymous": false,
      "inputs": [
        {
          "indexed": true,
          "internalType": "address",
          "name": "holder",
          "type": "address"
        },
        {
          "indexed": true,
          "internalType": "uint256",
          "name": "bond",
          "type": "uint256"
        },
        {
          "indexed": false,
          "internalType": "uint256",
          "name": "initValue",
          "type": "uint256"
        },
        {
          "indexed": false,
          "internalType": "uint256",
          "name": "maturesAt",
          "type": "uint256"
        }
      ],
      "name": "DripBondMinted",
      "type": "event"
    },
    {
      "anonymous": false,
      "inputs": [
        {
          "indexed": true,
          "internalType": "address",
          "name": "previousOwner",
          "type": "address"
        },
        {
          "indexed": true,
          "internalType": "address",
          "name": "newOwner",
          "type": "address"
        }
      ],
      "name": "OwnershipTransferred",
      "type": "event"
    },
    {
      "anonymous": false,
      "inputs": [
        {
          "indexed": true,
          "internalType": "address",
          "name": "from",
          "type": "address"
        },
        {
          "indexed": true,
          "internalType": "address",
          "name": "to",
          "type": "address"
        },
        {
          "indexed": true,
          "internalType": "uint256",
          "name": "tokenId",
          "type": "uint256"
        }
      ],
      "name": "Transfer",
      "type": "event"
    },
    {
      "inputs": [
        {
          "internalType": "address",
          "name": "to",
          "type": "address"
        },
        {
          "internalType": "uint256",
          "name": "tokenId",
          "type": "uint256"
        }
      ],
      "name": "approve",
      "outputs": [],
      "stateMutability": "nonpayable",
      "type": "function"
    },
    {
      "inputs": [
        {
          "internalType": "address",
          "name": "owner",
          "type": "address"
        }
      ],
      "name": "balanceOf",
      "outputs": [
        {
          "internalType": "uint256",
          "name": "",
          "type": "uint256"
        }
      ],
      "stateMutability": "view",
      "type": "function"
    },
    {
      "inputs": [
        {
          "internalType": "uint256",
          "name": "",
          "type": "uint256"
        }
      ],
      "name": "bonds",
      "outputs": [
        {
          "internalType": "bool",
          "name": "spent",
          "type": "bool"
        },
        {
          "internalType": "uint64",
          "name": "maturesAt",
          "type": "uint64"
        },
        {
          "internalType": "uint128",
          "name": "initValue",
          "type": "uint128"
        },
        {
          "internalType": "uint256",
          "name": "rate",
          "type": "uint256"
        }
      ],
      "stateMutability": "view",
      "type": "function"
    },
    {
      "inputs": [
        {
          "internalType": "uint256",
          "name": "idx",
          "type": "uint256"
        }
      ],
      "name": "burn",
      "outputs": [],
      "stateMutability": "nonpayable",
      "type": "function"
    },
    {
      "inputs": [
        {
          "internalType": "uint256",
          "name": "ethAmount",
          "type": "uint256"
        }
      ],
      "name": "computeTargetDRIP",
      "outputs": [
        {
          "internalType": "uint256",
          "name": "",
          "type": "uint256"
        }
      ],
      "stateMutability": "view",
      "type": "function"
    },
    {
      "inputs": [],
      "name": "drip",
      "outputs": [
        {
          "internalType": "address",
          "name": "",
          "type": "address"
        }
      ],
      "stateMutability": "view",
      "type": "function"
    },
    {
      "inputs": [],
      "name": "factory",
      "outputs": [
        {
          "internalType": "address",
          "name": "",
          "type": "address"
        }
      ],
      "stateMutability": "view",
      "type": "function"
    },
    {
      "inputs": [
        {
          "internalType": "uint256",
          "name": "tokenId",
          "type": "uint256"
        }
      ],
      "name": "getApproved",
      "outputs": [
        {
          "internalType": "address",
          "name": "",
          "type": "address"
        }
      ],
      "stateMutability": "view",
      "type": "function"
    },
    {
      "inputs": [],
      "name": "initialize",
      "outputs": [],
      "stateMutability": "nonpayable",
      "type": "function"
    },
    {
      "inputs": [
        {
          "internalType": "address",
          "name": "owner",
          "type": "address"
        },
        {
          "internalType": "address",
          "name": "operator",
          "type": "address"
        }
      ],
      "name": "isApprovedForAll",
      "outputs": [
        {
          "internalType": "bool",
          "name": "",
          "type": "bool"
        }
      ],
      "stateMutability": "view",
      "type": "function"
    },
    {
      "inputs": [],
      "name": "maturesAfter",
      "outputs": [
        {
          "internalType": "uint256",
          "name": "",
          "type": "uint256"
        }
      ],
      "stateMutability": "view",
      "type": "function"
    },
    {
      "inputs": [],
      "name": "mint",
      "outputs": [
        {
          "internalType": "uint256",
          "name": "",
          "type": "uint256"
        }
      ],
      "stateMutability": "payable",
      "type": "function"
    },
    {
      "inputs": [],
      "name": "name",
      "outputs": [
        {
          "internalType": "string",
          "name": "",
          "type": "string"
        }
      ],
      "stateMutability": "view",
      "type": "function"
    },
    {
      "inputs": [],
      "name": "owner",
      "outputs": [
        {
          "internalType": "address",
          "name": "",
          "type": "address"
        }
      ],
      "stateMutability": "view",
      "type": "function"
    },
    {
      "inputs": [
        {
          "internalType": "uint256",
          "name": "tokenId",
          "type": "uint256"
        }
      ],
      "name": "ownerOf",
      "outputs": [
        {
          "internalType": "address",
          "name": "",
          "type": "address"
        }
      ],
      "stateMutability": "view",
      "type": "function"
    },
    {
      "inputs": [],
      "name": "rate",
      "outputs": [
        {
          "internalType": "uint256",
          "name": "",
          "type": "uint256"
        }
      ],
      "stateMutability": "view",
      "type": "function"
    },
    {
      "inputs": [],
      "name": "renounceOwnership",
      "outputs": [],
      "stateMutability": "nonpayable",
      "type": "function"
    },
    {
      "inputs": [],
      "name": "router",
      "outputs": [
        {
          "internalType": "address",
          "name": "",
          "type": "address"
        }
      ],
      "stateMutability": "view",
      "type": "function"
    },
    {
      "inputs": [
        {
          "internalType": "address",
          "name": "from",
          "type": "address"
        },
        {
          "internalType": "address",
          "name": "to",
          "type": "address"
        },
        {
          "internalType": "uint256",
          "name": "tokenId",
          "type": "uint256"
        }
      ],
      "name": "safeTransferFrom",
      "outputs": [],
      "stateMutability": "nonpayable",
      "type": "function"
    },
    {
      "inputs": [
        {
          "internalType": "address",
          "name": "from",
          "type": "address"
        },
        {
          "internalType": "address",
          "name": "to",
          "type": "address"
        },
        {
          "internalType": "uint256",
          "name": "tokenId",
          "type": "uint256"
        },
        {
          "internalType": "bytes",
          "name": "_data",
          "type": "bytes"
        }
      ],
      "name": "safeTransferFrom",
      "outputs": [],
      "stateMutability": "nonpayable",
      "type": "function"
    },
    {
      "inputs": [
        {
          "internalType": "address",
          "name": "operator",
          "type": "address"
        },
        {
          "internalType": "bool",
          "name": "approved",
          "type": "bool"
        }
      ],
      "name": "setApprovalForAll",
      "outputs": [],
      "stateMutability": "nonpayable",
      "type": "function"
    },
    {
      "inputs": [
        {
          "internalType": "uint256",
          "name": "_maturesAfter",
          "type": "uint256"
        }
      ],
      "name": "setMaturity",
      "outputs": [],
      "stateMutability": "nonpayable",
      "type": "function"
    },
    {
      "inputs": [
        {
          "internalType": "uint256",
          "name": "_rate",
          "type": "uint256"
        }
      ],
      "name": "setRate",
      "outputs": [],
      "stateMutability": "nonpayable",
      "type": "function"
    },
    {
      "inputs": [
        {
          "internalType": "uint256",
          "name": "_target",
          "type": "uint256"
        }
      ],
      "name": "setTarget",
      "outputs": [],
      "stateMutability": "nonpayable",
      "type": "function"
    },
    {
      "inputs": [
        {
          "internalType": "bytes4",
          "name": "interfaceId",
          "type": "bytes4"
        }
      ],
      "name": "supportsInterface",
      "outputs": [
        {
          "internalType": "bool",
          "name": "",
          "type": "bool"
        }
      ],
      "stateMutability": "view",
      "type": "function"
    },
    {
      "inputs": [],
      "name": "symbol",
      "outputs": [
        {
          "internalType": "string",
          "name": "",
          "type": "string"
        }
      ],
      "stateMutability": "view",
      "type": "function"
    },
    {
      "inputs": [],
      "name": "target",
      "outputs": [
        {
          "internalType": "uint256",
          "name": "",
          "type": "uint256"
        }
      ],
      "stateMutability": "view",
      "type": "function"
    },
    {
      "inputs": [
        {
          "internalType": "uint256",
          "name": "tokenId",
          "type": "uint256"
        }
      ],
      "name": "tokenURI",
      "outputs": [
        {
          "internalType": "string",
          "name": "",
          "type": "string"
        }
      ],
      "stateMutability": "view",
      "type": "function"
    },
    {
      "inputs": [
        {
          "internalType": "address",
          "name": "from",
          "type": "address"
        },
        {
          "internalType": "address",
          "name": "to",
          "type": "address"
        },
        {
          "internalType": "uint256",
          "name": "tokenId",
          "type": "uint256"
        }
      ],
      "name": "transferFrom",
      "outputs": [],
      "stateMutability": "nonpayable",
      "type": "function"
    },
    {
      "inputs": [
        {
          "internalType": "address",
          "name": "newOwner",
          "type": "address"
        }
      ],
      "name": "transferOwnership",
      "outputs": [],
      "stateMutability": "nonpayable",
      "type": "function"
    },
    {
      "inputs": [],
      "name": "treasury",
      "outputs": [
        {
          "internalType": "address",
          "name": "",
          "type": "address"
        }
      ],
      "stateMutability": "view",
      "type": "function"
    },
    {
      "inputs": [],
      "name": "weth",
      "outputs": [
        {
          "internalType": "address",
          "name": "",
          "type": "address"
        }
      ],
      "stateMutability": "view",
      "type": "function"
    }
  ],
  "bytecode": "0x608060405234801561001057600080fd5b5061259b806100206000396000f3fe6080604052600436106101e35760003560e01c8063715018a611610102578063b88d4fde11610095578063e35d04e911610064578063e35d04e9146105e2578063e985e9c514610602578063f2fde38b1461064b578063f887ea401461066b57600080fd5b8063b88d4fde14610564578063c45a015514610584578063c87b56dd146105ac578063d4b83992146105cc57600080fd5b806395d89b41116100d157806395d89b41146104e75780639f678cca146104fc578063a22cb46514610524578063b480eac01461054457600080fd5b8063715018a61461047f5780638117a578146104945780638129fc1c146104b45780638da5cb5b146104c957600080fd5b80633fc8cef31161017a57806361d027b31161014957806361d027b31461040157806362d3f0f6146104295780636352211e1461043f57806370a082311461045f57600080fd5b80633fc8cef31461030557806342842e0e1461032d57806342966c681461034d5780635f1c17c01461036d57600080fd5b80631249c58b116101b65780631249c58b1461029957806323b872dd146102af5780632c4e722e146102cf57806334fcf437146102e557600080fd5b806301ffc9a7146101e857806306fdde031461021d578063081812fc1461023f578063095ea7b314610277575b600080fd5b3480156101f457600080fd5b506102086102033660046121a0565b610693565b60405190151581526020015b60405180910390f35b34801561022957600080fd5b506102326106e5565b60405161021491906122d1565b34801561024b57600080fd5b5061025f61025a3660046121d8565b610777565b6040516001600160a01b039091168152602001610214565b34801561028357600080fd5b5061029761029236600461215b565b610811565b005b6102a1610927565b604051908152602001610214565b3480156102bb57600080fd5b506102976102ca366004612015565b610c3f565b3480156102db57600080fd5b506102a160cb5481565b3480156102f157600080fd5b506102976103003660046121d8565b610c70565b34801561031157600080fd5b5061025f73c02aaa39b223fe8d0a0e5c4f27ead9083c756cc281565b34801561033957600080fd5b50610297610348366004612015565b610c9f565b34801561035957600080fd5b506102976103683660046121d8565b610cba565b34801561037957600080fd5b506103c86103883660046121d8565b60ca602052600090815260409020805460019091015460ff821691610100810467ffffffffffffffff1691600160481b9091046001600160801b03169084565b60408051941515855267ffffffffffffffff90931660208501526001600160801b03909116918301919091526060820152608001610214565b34801561040d57600080fd5b5061025f73592e10267af60894086d40dcc55fe7684f8420d581565b34801561043557600080fd5b506102a160cd5481565b34801561044b57600080fd5b5061025f61045a3660046121d8565b610e66565b34801561046b57600080fd5b506102a161047a366004611fc9565b610edd565b34801561048b57600080fd5b50610297610f64565b3480156104a057600080fd5b506102976104af3660046121d8565b610f9a565b3480156104c057600080fd5b50610297610fc9565b3480156104d557600080fd5b506097546001600160a01b031661025f565b3480156104f357600080fd5b5061023261118f565b34801561050857600080fd5b5061025f730d44cfa6a50e4c16ee311af6edad36e89f90b0a681565b34801561053057600080fd5b5061029761053f366004612125565b61119e565b34801561055057600080fd5b5061029761055f3660046121d8565b6111ad565b34801561057057600080fd5b5061029761057f366004612050565b6111dc565b34801561059057600080fd5b5061025f735c69bee701ef814a2b6a3edd4b1652cb9cc5aa6f81565b3480156105b857600080fd5b506102326105c73660046121d8565b611214565b3480156105d857600080fd5b506102a160cc5481565b3480156105ee57600080fd5b506102a16105fd3660046121d8565b6112fc565b34801561060e57600080fd5b5061020861061d366004611fe3565b6001600160a01b039182166000908152606a6020908152604080832093909416825291909152205460ff1690565b34801561065757600080fd5b50610297610666366004611fc9565b61131e565b34801561067757600080fd5b5061025f737a250d5630b4cf539739df2c5dacb4c659f2488d81565b60006001600160e01b031982166380ac58cd60e01b14806106c457506001600160e01b03198216635b5e139f60e01b145b806106df57506301ffc9a760e01b6001600160e01b03198316145b92915050565b6060606580546106f490612495565b80601f016020809104026020016040519081016040528092919081815260200182805461072090612495565b801561076d5780601f106107425761010080835404028352916020019161076d565b820191906000526020600020905b81548152906001019060200180831161075057829003601f168201915b5050505050905090565b6000818152606760205260408120546001600160a01b03166107f55760405162461bcd60e51b815260206004820152602c60248201527f4552433732313a20617070726f76656420717565727920666f72206e6f6e657860448201526b34b9ba32b73a103a37b5b2b760a11b60648201526084015b60405180910390fd5b506000908152606960205260409020546001600160a01b031690565b600061081c82610e66565b9050806001600160a01b0316836001600160a01b0316141561088a5760405162461bcd60e51b815260206004820152602160248201527f4552433732313a20617070726f76616c20746f2063757272656e74206f776e656044820152603960f91b60648201526084016107ec565b336001600160a01b03821614806108a657506108a6813361061d565b6109185760405162461bcd60e51b815260206004820152603860248201527f4552433732313a20617070726f76652063616c6c6572206973206e6f74206f7760448201527f6e6572206e6f7220617070726f76656420666f7220616c6c000000000000000060648201526084016107ec565b61092283836113b6565b505050565b60c954600090346109685760405162461bcd60e51b815260206004820152600b60248201526a042cadcdeeaced05acae8d60ab1b60448201526064016107ec565b6000610973346112fc565b9050806109b15760405162461bcd60e51b815260206004820152600c60248201526b021656e6f7567682d647269760a41b60448201526064016107ec565b6109e5730d44cfa6a50e4c16ee311af6edad36e89f90b0a673592e10267af60894086d40dcc55fe7684f8420d53084611424565b6000737a250d5630b4cf539739df2c5dacb4c659f2488d63f305d71934730d44cfa6a50e4c16ee311af6edad36e89f90b0a68560018373592e10267af60894086d40dcc55fe7684f8420d5610a3a4284612407565b60405160e089901b6001600160e01b03191681526001600160a01b039687166004820152602481019590955260448501939093526064840191909152909216608482015260a481019190915260c4016060604051808303818588803b158015610aa257600080fd5b505af1158015610ab6573d6000803e3d6000fd5b50505050506040513d601f19601f82011682018060405250810190610adb91906121f0565b50509050600060cd5442610aef9190612407565b60408051608081018252600080825267ffffffffffffffff84811660208085019182526001600160801b0389811686880190815260cb54606088019081528d875260ca845295889020965187549451915168ffffffffffffffffff1990951690151568ffffffffffffffff0019161761010091909516029390931778ffffffffffffffffffffffffffffffff0000000000000000001916600160481b929093169190910291909117835590516001909201919091558151858152908101839052919250859133917f2fd58c70af849b383ae810a6000172c03069296850ab937fafda2e64e70603c3910160405180910390a3610bed3360c95461147e565b60c98054906000610bfd836124d0565b919050555060ca6000600160c954610c159190612452565b8152602081019190915260400160002054600160481b90046001600160801b031695945050505050565b610c4933826115c0565b610c655760405162461bcd60e51b81526004016107ec9061236b565b6109228383836116b7565b6097546001600160a01b03163314610c9a5760405162461bcd60e51b81526004016107ec90612336565b60cb55565b610922838383604051806020016040528060008152506111dc565b33610cc482610e66565b6001600160a01b031614610d035760405162461bcd60e51b815260206004820152600660248201526510b7bbb732b960d11b60448201526064016107ec565b600081815260ca60205260409020544261010090910467ffffffffffffffff161115610d5c5760405162461bcd60e51b8152602060048201526008602482015267085b585d1d5c995960c21b60448201526064016107ec565b600081815260ca602052604090205460ff1615610da35760405162461bcd60e51b81526020600482015260056024820152641cdc195b9d60da1b60448201526064016107ec565b600081815260ca60205260409020805460ff19166001179055610dc581611853565b600081815260ca602052604081208054600190910154610df591600160481b90046001600160801b0316906118ee565b9050610e2b730d44cfa6a50e4c16ee311af6edad36e89f90b0a673592e10267af60894086d40dcc55fe7684f8420d53384611424565b604051818152829033907fec239a49076e616b46f7dfad8d4492d165dd18f7194b3e2625b19e9e964ef81b9060200160405180910390a35050565b6000818152606760205260408120546001600160a01b0316806106df5760405162461bcd60e51b815260206004820152602960248201527f4552433732313a206f776e657220717565727920666f72206e6f6e657869737460448201526832b73a103a37b5b2b760b91b60648201526084016107ec565b60006001600160a01b038216610f485760405162461bcd60e51b815260206004820152602a60248201527f4552433732313a2062616c616e636520717565727920666f7220746865207a65604482015269726f206164647265737360b01b60648201526084016107ec565b506001600160a01b031660009081526068602052604090205490565b6097546001600160a01b03163314610f8e5760405162461bcd60e51b81526004016107ec90612336565b610f986000611910565b565b6097546001600160a01b03163314610fc45760405162461bcd60e51b81526004016107ec90612336565b60cd55565b600054610100900460ff16610fe45760005460ff1615610fe8565b303b155b61104b5760405162461bcd60e51b815260206004820152602e60248201527f496e697469616c697a61626c653a20636f6e747261637420697320616c72656160448201526d191e481a5b9a5d1a585b1a5e995960921b60648201526084016107ec565b600054610100900460ff1615801561106d576000805461ffff19166101011790555b6110b760405180604001604052806008815260200167111492541093d39160c21b81525060405180604001604052806008815260200167111492541093d39160c21b815250611962565b66470de4df82000060cb55600060c955660e35fa931a000060cc5562278d0060cd5560405163095ea7b360e01b8152737a250d5630b4cf539739df2c5dacb4c659f2488d60048201526000196024820152730d44cfa6a50e4c16ee311af6edad36e89f90b0a69063095ea7b390604401602060405180830381600087803b15801561114157600080fd5b505af1158015611155573d6000803e3d6000fd5b505050506040513d601f19601f820116820180604052508101906111799190612184565b50801561118c576000805461ff00191690555b50565b6060606680546106f490612495565b6111a9338383611993565b5050565b6097546001600160a01b031633146111d75760405162461bcd60e51b81526004016107ec90612336565b60cc55565b6111e633836115c0565b6112025760405162461bcd60e51b81526004016107ec9061236b565b61120e84848484611a62565b50505050565b6000818152606760205260409020546060906001600160a01b03166112935760405162461bcd60e51b815260206004820152602f60248201527f4552433732314d657461646174613a2055524920717565727920666f72206e6f60448201526e3732bc34b9ba32b73a103a37b5b2b760891b60648201526084016107ec565b60006112aa60408051602081019091526000815290565b905060008151116112ca57604051806020016040528060008152506112f5565b806112d484611a95565b6040516020016112e5929190612265565b6040516020818303038152906040525b9392505050565b60cc546000906106df9061131884670de0b6b3a7640000611baf565b90611bbb565b6097546001600160a01b031633146113485760405162461bcd60e51b81526004016107ec90612336565b6001600160a01b0381166113ad5760405162461bcd60e51b815260206004820152602660248201527f4f776e61626c653a206e6577206f776e657220697320746865207a65726f206160448201526564647265737360d01b60648201526084016107ec565b61118c81611910565b600081815260696020526040902080546001600160a01b0319166001600160a01b03841690811790915581906113eb82610e66565b6001600160a01b03167f8c5be1e5ebec7d5bd14f71427d1e84f3dd0314c0f7b2291e5b200ac8c7c3b92560405160405180910390a45050565b604080516001600160a01b0385811660248301528416604482015260648082018490528251808303909101815260849091019091526020810180516001600160e01b03166323b872dd60e01b17905261120e908590611bc7565b6001600160a01b0382166114d45760405162461bcd60e51b815260206004820181905260248201527f4552433732313a206d696e7420746f20746865207a65726f206164647265737360448201526064016107ec565b6000818152606760205260409020546001600160a01b0316156115395760405162461bcd60e51b815260206004820152601c60248201527f4552433732313a20746f6b656e20616c7265616479206d696e7465640000000060448201526064016107ec565b6001600160a01b0382166000908152606860205260408120805460019290611562908490612407565b909155505060008181526067602052604080822080546001600160a01b0319166001600160a01b03861690811790915590518392907fddf252ad1be2c89b69c2b068fc378daa952ba7f163c4a11628f55a4df523b3ef908290a45050565b6000818152606760205260408120546001600160a01b03166116395760405162461bcd60e51b815260206004820152602c60248201527f4552433732313a206f70657261746f7220717565727920666f72206e6f6e657860448201526b34b9ba32b73a103a37b5b2b760a11b60648201526084016107ec565b600061164483610e66565b9050806001600160a01b0316846001600160a01b0316148061167f5750836001600160a01b031661167484610777565b6001600160a01b0316145b806116af57506001600160a01b038082166000908152606a602090815260408083209388168352929052205460ff165b949350505050565b826001600160a01b03166116ca82610e66565b6001600160a01b03161461172e5760405162461bcd60e51b815260206004820152602560248201527f4552433732313a207472616e736665722066726f6d20696e636f72726563742060448201526437bbb732b960d91b60648201526084016107ec565b6001600160a01b0382166117905760405162461bcd60e51b8152602060048201526024808201527f4552433732313a207472616e7366657220746f20746865207a65726f206164646044820152637265737360e01b60648201526084016107ec565b61179b6000826113b6565b6001600160a01b03831660009081526068602052604081208054600192906117c4908490612452565b90915550506001600160a01b03821660009081526068602052604081208054600192906117f2908490612407565b909155505060008181526067602052604080822080546001600160a01b0319166001600160a01b0386811691821790925591518493918716917fddf252ad1be2c89b69c2b068fc378daa952ba7f163c4a11628f55a4df523b3ef91a4505050565b600061185e82610e66565b905061186b6000836113b6565b6001600160a01b0381166000908152606860205260408120805460019290611894908490612452565b909155505060008281526067602052604080822080546001600160a01b0319169055518391906001600160a01b038416907fddf252ad1be2c89b69c2b068fc378daa952ba7f163c4a11628f55a4df523b3ef908390a45050565b60006112f5670de0b6b3a76400006113186119098286611c99565b8690611baf565b609780546001600160a01b038381166001600160a01b0319831681179093556040519116919082907f8be0079c531659141344cd1fd0a4f28419497f9722a3daafe3b4186f6b6457e090600090a35050565b600054610100900460ff166119895760405162461bcd60e51b81526004016107ec906123bc565b6111a98282611ca5565b816001600160a01b0316836001600160a01b031614156119f55760405162461bcd60e51b815260206004820152601960248201527f4552433732313a20617070726f766520746f2063616c6c65720000000000000060448201526064016107ec565b6001600160a01b038381166000818152606a6020908152604080832094871680845294825291829020805460ff191686151590811790915591519182527f17307eab39ab6107e8899845ad3d59bd9653f200f220920489ca2b5937696c31910160405180910390a3505050565b611a6d8484846116b7565b611a7984848484611cf3565b61120e5760405162461bcd60e51b81526004016107ec906122e4565b606081611ab95750506040805180820190915260018152600360fc1b602082015290565b8160005b8115611ae35780611acd816124d0565b9150611adc9050600a8361241f565b9150611abd565b60008167ffffffffffffffff811115611b0c57634e487b7160e01b600052604160045260246000fd5b6040519080825280601f01601f191660200182016040528015611b36576020820181803683370190505b5090505b84156116af57611b4b600183612452565b9150611b58600a866124eb565b611b63906030612407565b60f81b818381518110611b8657634e487b7160e01b600052603260045260246000fd5b60200101906001600160f81b031916908160001a905350611ba8600a8661241f565b9450611b3a565b60006112f58284612433565b60006112f5828461241f565b6000611c1c826040518060400160405280602081526020017f5361666545524332303a206c6f772d6c6576656c2063616c6c206661696c6564815250856001600160a01b0316611e009092919063ffffffff16565b8051909150156109225780806020019051810190611c3a9190612184565b6109225760405162461bcd60e51b815260206004820152602a60248201527f5361666545524332303a204552433230206f7065726174696f6e20646964206e6044820152691bdd081cdd58d8d9595960b21b60648201526084016107ec565b60006112f58284612407565b600054610100900460ff16611ccc5760405162461bcd60e51b81526004016107ec906123bc565b8151611cdf906065906020850190611f14565b508051610922906066906020840190611f14565b60006001600160a01b0384163b15611df557604051630a85bd0160e11b81526001600160a01b0385169063150b7a0290611d37903390899088908890600401612294565b602060405180830381600087803b158015611d5157600080fd5b505af1925050508015611d81575060408051601f3d908101601f19168201909252611d7e918101906121bc565b60015b611ddb573d808015611daf576040519150601f19603f3d011682016040523d82523d6000602084013e611db4565b606091505b508051611dd35760405162461bcd60e51b81526004016107ec906122e4565b805181602001fd5b6001600160e01b031916630a85bd0160e11b1490506116af565b506001949350505050565b60606116af8484600085856001600160a01b0385163b611e625760405162461bcd60e51b815260206004820152601d60248201527f416464726573733a2063616c6c20746f206e6f6e2d636f6e747261637400000060448201526064016107ec565b600080866001600160a01b03168587604051611e7e9190612249565b60006040518083038185875af1925050503d8060008114611ebb576040519150601f19603f3d011682016040523d82523d6000602084013e611ec0565b606091505b5091509150611ed0828286611edb565b979650505050505050565b60608315611eea5750816112f5565b825115611efa5782518084602001fd5b8160405162461bcd60e51b81526004016107ec91906122d1565b828054611f2090612495565b90600052602060002090601f016020900481019282611f425760008555611f88565b82601f10611f5b57805160ff1916838001178555611f88565b82800160010185558215611f88579182015b82811115611f88578251825591602001919060010190611f6d565b50611f94929150611f98565b5090565b5b80821115611f945760008155600101611f99565b80356001600160a01b0381168114611fc457600080fd5b919050565b600060208284031215611fda578081fd5b6112f582611fad565b60008060408385031215611ff5578081fd5b611ffe83611fad565b915061200c60208401611fad565b90509250929050565b600080600060608486031215612029578081fd5b61203284611fad565b925061204060208501611fad565b9150604084013590509250925092565b60008060008060808587031215612065578081fd5b61206e85611fad565b935061207c60208601611fad565b925060408501359150606085013567ffffffffffffffff8082111561209f578283fd5b818701915087601f8301126120b2578283fd5b8135818111156120c4576120c461252b565b604051601f8201601f19908116603f011681019083821181831017156120ec576120ec61252b565b816040528281528a6020848701011115612104578586fd5b82602086016020830137918201602001949094529598949750929550505050565b60008060408385031215612137578182fd5b61214083611fad565b9150602083013561215081612541565b809150509250929050565b6000806040838503121561216d578182fd5b61217683611fad565b946020939093013593505050565b600060208284031215612195578081fd5b81516112f581612541565b6000602082840312156121b1578081fd5b81356112f58161254f565b6000602082840312156121cd578081fd5b81516112f58161254f565b6000602082840312156121e9578081fd5b5035919050565b600080600060608486031215612204578283fd5b8351925060208401519150604084015190509250925092565b60008151808452612235816020860160208601612469565b601f01601f19169290920160200192915050565b6000825161225b818460208701612469565b9190910192915050565b60008351612277818460208801612469565b83519083019061228b818360208801612469565b01949350505050565b6001600160a01b03858116825284166020820152604081018390526080606082018190526000906122c79083018461221d565b9695505050505050565b6020815260006112f5602083018461221d565b60208082526032908201527f4552433732313a207472616e7366657220746f206e6f6e20455243373231526560408201527131b2b4bb32b91034b6b83632b6b2b73a32b960711b606082015260800190565b6020808252818101527f4f776e61626c653a2063616c6c6572206973206e6f7420746865206f776e6572604082015260600190565b60208082526031908201527f4552433732313a207472616e736665722063616c6c6572206973206e6f74206f6040820152701ddb995c881b9bdc88185c1c1c9bdd9959607a1b606082015260800190565b6020808252602b908201527f496e697469616c697a61626c653a20636f6e7472616374206973206e6f74206960408201526a6e697469616c697a696e6760a81b606082015260800190565b6000821982111561241a5761241a6124ff565b500190565b60008261242e5761242e612515565b500490565b600081600019048311821515161561244d5761244d6124ff565b500290565b600082821015612464576124646124ff565b500390565b60005b8381101561248457818101518382015260200161246c565b8381111561120e5750506000910152565b600181811c908216806124a957607f821691505b602082108114156124ca57634e487b7160e01b600052602260045260246000fd5b50919050565b60006000198214156124e4576124e46124ff565b5060010190565b6000826124fa576124fa612515565b500690565b634e487b7160e01b600052601160045260246000fd5b634e487b7160e01b600052601260045260246000fd5b634e487b7160e01b600052604160045260246000fd5b801515811461118c57600080fd5b6001600160e01b03198116811461118c57600080fdfea2646970667358221220d8beada8443102c6656fba942d43caf278d5ac462aa77638680575d0f8bac4f264736f6c63430008040033",
  "linkReferences": {},
  "deployedLinkReferences": {}
}