{
  "_format": "hh-sol-artifact-1",
  "contractName": "DRIPBOND",
  "sourceName": "contracts/token/DRIPBOND.sol",
  "abi": [
    {
      "anonymous": false,
      "inputs": [
        {
          "indexed": true,
          "internalType": "address",
          "name": "owner",
          "type": "address"
        },
        {
          "indexed": true,
          "internalType": "address",
          "name": "approved",
          "type": "address"
        },
        {
          "indexed": true,
          "internalType": "uint256",
          "name": "tokenId",
          "type": "uint256"
        }
      ],
      "name": "Approval",
      "type": "event"
    },
    {
      "anonymous": false,
      "inputs": [
        {
          "indexed": true,
          "internalType": "address",
          "name": "owner",
          "type": "address"
        },
        {
          "indexed": true,
          "internalType": "address",
          "name": "operator",
          "type": "address"
        },
        {
          "indexed": false,
          "internalType": "bool",
          "name": "approved",
          "type": "bool"
        }
      ],
      "name": "ApprovalForAll",
      "type": "event"
    },
    {
      "anonymous": false,
      "inputs": [
        {
          "indexed": true,
          "internalType": "address",
          "name": "previousOwner",
          "type": "address"
        },
        {
          "indexed": true,
          "internalType": "address",
          "name": "newOwner",
          "type": "address"
        }
      ],
      "name": "OwnershipTransferred",
      "type": "event"
    },
    {
      "anonymous": false,
      "inputs": [
        {
          "indexed": true,
          "internalType": "address",
          "name": "from",
          "type": "address"
        },
        {
          "indexed": true,
          "internalType": "address",
          "name": "to",
          "type": "address"
        },
        {
          "indexed": true,
          "internalType": "uint256",
          "name": "tokenId",
          "type": "uint256"
        }
      ],
      "name": "Transfer",
      "type": "event"
    },
    {
      "inputs": [
        {
          "internalType": "address",
          "name": "to",
          "type": "address"
        },
        {
          "internalType": "uint256",
          "name": "tokenId",
          "type": "uint256"
        }
      ],
      "name": "approve",
      "outputs": [],
      "stateMutability": "nonpayable",
      "type": "function"
    },
    {
      "inputs": [
        {
          "internalType": "address",
          "name": "owner",
          "type": "address"
        }
      ],
      "name": "balanceOf",
      "outputs": [
        {
          "internalType": "uint256",
          "name": "",
          "type": "uint256"
        }
      ],
      "stateMutability": "view",
      "type": "function"
    },
    {
      "inputs": [
        {
          "internalType": "uint256",
          "name": "idx",
          "type": "uint256"
        }
      ],
      "name": "burn",
      "outputs": [],
      "stateMutability": "nonpayable",
      "type": "function"
    },
    {
      "inputs": [],
      "name": "drip",
      "outputs": [
        {
          "internalType": "address",
          "name": "",
          "type": "address"
        }
      ],
      "stateMutability": "view",
      "type": "function"
    },
    {
      "inputs": [
        {
          "internalType": "uint256",
          "name": "tokenId",
          "type": "uint256"
        }
      ],
      "name": "getApproved",
      "outputs": [
        {
          "internalType": "address",
          "name": "",
          "type": "address"
        }
      ],
      "stateMutability": "view",
      "type": "function"
    },
    {
      "inputs": [],
      "name": "initialize",
      "outputs": [],
      "stateMutability": "nonpayable",
      "type": "function"
    },
    {
      "inputs": [
        {
          "internalType": "address",
          "name": "owner",
          "type": "address"
        },
        {
          "internalType": "address",
          "name": "operator",
          "type": "address"
        }
      ],
      "name": "isApprovedForAll",
      "outputs": [
        {
          "internalType": "bool",
          "name": "",
          "type": "bool"
        }
      ],
      "stateMutability": "view",
      "type": "function"
    },
    {
      "inputs": [
        {
          "internalType": "uint256",
          "name": "",
          "type": "uint256"
        }
      ],
      "name": "locked",
      "outputs": [
        {
          "internalType": "uint256",
          "name": "",
          "type": "uint256"
        }
      ],
      "stateMutability": "view",
      "type": "function"
    },
    {
      "inputs": [],
      "name": "maturesAfter",
      "outputs": [
        {
          "internalType": "uint256",
          "name": "",
          "type": "uint256"
        }
      ],
      "stateMutability": "view",
      "type": "function"
    },
    {
      "inputs": [
        {
          "internalType": "uint256",
          "name": "amount",
          "type": "uint256"
        }
      ],
      "name": "mint",
      "outputs": [],
      "stateMutability": "nonpayable",
      "type": "function"
    },
    {
      "inputs": [],
      "name": "name",
      "outputs": [
        {
          "internalType": "string",
          "name": "",
          "type": "string"
        }
      ],
      "stateMutability": "view",
      "type": "function"
    },
    {
      "inputs": [],
      "name": "owner",
      "outputs": [
        {
          "internalType": "address",
          "name": "",
          "type": "address"
        }
      ],
      "stateMutability": "view",
      "type": "function"
    },
    {
      "inputs": [
        {
          "internalType": "uint256",
          "name": "tokenId",
          "type": "uint256"
        }
      ],
      "name": "ownerOf",
      "outputs": [
        {
          "internalType": "address",
          "name": "",
          "type": "address"
        }
      ],
      "stateMutability": "view",
      "type": "function"
    },
    {
      "inputs": [],
      "name": "rate",
      "outputs": [
        {
          "internalType": "uint256",
          "name": "",
          "type": "uint256"
        }
      ],
      "stateMutability": "view",
      "type": "function"
    },
    {
      "inputs": [],
      "name": "renounceOwnership",
      "outputs": [],
      "stateMutability": "nonpayable",
      "type": "function"
    },
    {
      "inputs": [
        {
          "internalType": "address",
          "name": "from",
          "type": "address"
        },
        {
          "internalType": "address",
          "name": "to",
          "type": "address"
        },
        {
          "internalType": "uint256",
          "name": "tokenId",
          "type": "uint256"
        }
      ],
      "name": "safeTransferFrom",
      "outputs": [],
      "stateMutability": "nonpayable",
      "type": "function"
    },
    {
      "inputs": [
        {
          "internalType": "address",
          "name": "from",
          "type": "address"
        },
        {
          "internalType": "address",
          "name": "to",
          "type": "address"
        },
        {
          "internalType": "uint256",
          "name": "tokenId",
          "type": "uint256"
        },
        {
          "internalType": "bytes",
          "name": "_data",
          "type": "bytes"
        }
      ],
      "name": "safeTransferFrom",
      "outputs": [],
      "stateMutability": "nonpayable",
      "type": "function"
    },
    {
      "inputs": [
        {
          "internalType": "address",
          "name": "operator",
          "type": "address"
        },
        {
          "internalType": "bool",
          "name": "approved",
          "type": "bool"
        }
      ],
      "name": "setApprovalForAll",
      "outputs": [],
      "stateMutability": "nonpayable",
      "type": "function"
    },
    {
      "inputs": [
        {
          "internalType": "uint256",
          "name": "_maturesAfter",
          "type": "uint256"
        }
      ],
      "name": "setMaturity",
      "outputs": [],
      "stateMutability": "nonpayable",
      "type": "function"
    },
    {
      "inputs": [
        {
          "internalType": "uint256",
          "name": "_rate",
          "type": "uint256"
        }
      ],
      "name": "setRate",
      "outputs": [],
      "stateMutability": "nonpayable",
      "type": "function"
    },
    {
      "inputs": [
        {
          "internalType": "bytes4",
          "name": "interfaceId",
          "type": "bytes4"
        }
      ],
      "name": "supportsInterface",
      "outputs": [
        {
          "internalType": "bool",
          "name": "",
          "type": "bool"
        }
      ],
      "stateMutability": "view",
      "type": "function"
    },
    {
      "inputs": [],
      "name": "symbol",
      "outputs": [
        {
          "internalType": "string",
          "name": "",
          "type": "string"
        }
      ],
      "stateMutability": "view",
      "type": "function"
    },
    {
      "inputs": [
        {
          "internalType": "uint256",
          "name": "tokenId",
          "type": "uint256"
        }
      ],
      "name": "tokenURI",
      "outputs": [
        {
          "internalType": "string",
          "name": "",
          "type": "string"
        }
      ],
      "stateMutability": "view",
      "type": "function"
    },
    {
      "inputs": [
        {
          "internalType": "address",
          "name": "from",
          "type": "address"
        },
        {
          "internalType": "address",
          "name": "to",
          "type": "address"
        },
        {
          "internalType": "uint256",
          "name": "tokenId",
          "type": "uint256"
        }
      ],
      "name": "transferFrom",
      "outputs": [],
      "stateMutability": "nonpayable",
      "type": "function"
    },
    {
      "inputs": [
        {
          "internalType": "address",
          "name": "newOwner",
          "type": "address"
        }
      ],
      "name": "transferOwnership",
      "outputs": [],
      "stateMutability": "nonpayable",
      "type": "function"
    },
    {
      "inputs": [],
      "name": "treasury",
      "outputs": [
        {
          "internalType": "address",
          "name": "",
          "type": "address"
        }
      ],
      "stateMutability": "view",
      "type": "function"
    },
    {
      "inputs": [
        {
          "internalType": "uint256",
          "name": "",
          "type": "uint256"
        }
      ],
      "name": "unlockAt",
      "outputs": [
        {
          "internalType": "uint256",
          "name": "",
          "type": "uint256"
        }
      ],
      "stateMutability": "view",
      "type": "function"
    }
  ],
  "bytecode": "0x608060405234801561001057600080fd5b50611e6e806100206000396000f3fe608060405234801561001057600080fd5b50600436106101a95760003560e01c806370a08231116100f9578063a0712d6811610097578063b88d4fde11610071578063b88d4fde14610395578063c87b56dd146103a8578063e985e9c5146103bb578063f2fde38b146103f757600080fd5b8063a0712d681461034f578063a22cb46514610362578063b45a3c0e1461037557600080fd5b80638129fc1c116100d35780638129fc1c146103135780638da5cb5b1461031b57806395d89b411461032c5780639f678cca1461033457600080fd5b806370a08231146102e5578063715018a6146102f85780638117a5781461030057600080fd5b806334fcf4371161016657806342966c681161014057806342966c681461029b57806361d027b3146102ae57806362d3f0f6146102c95780636352211e146102d257600080fd5b806334fcf437146102555780633d71a4eb1461026857806342842e0e1461028857600080fd5b806301ffc9a7146101ae57806306fdde03146101d6578063081812fc146101eb578063095ea7b31461021657806323b872dd1461022b5780632c4e722e1461023e575b600080fd5b6101c16101bc366004611aa0565b61040a565b60405190151581526020015b60405180910390f35b6101de61045c565b6040516101cd9190611ba4565b6101fe6101f9366004611ad8565b6104ee565b6040516001600160a01b0390911681526020016101cd565b610229610224366004611a5b565b610588565b005b610229610239366004611915565b61069e565b61024760cc5481565b6040519081526020016101cd565b610229610263366004611ad8565b6106cf565b610247610276366004611ad8565b60cb6020526000908152604090205481565b610229610296366004611915565b6106fe565b6102296102a9366004611ad8565b610719565b6101fe73592e10267af60894086d40dcc55fe7684f8420d581565b61024760cd5481565b6101fe6102e0366004611ad8565b6107c0565b6102476102f33660046118c9565b610837565b6102296108be565b61022961030e366004611ad8565b6108f4565b610229610923565b6097546001600160a01b03166101fe565b6101de610a3c565b6101fe730d44cfa6a50e4c16ee311af6edad36e89f90b0a681565b61022961035d366004611ad8565b610a4b565b610229610370366004611a25565b610ad6565b610247610383366004611ad8565b60ca6020526000908152604090205481565b6102296103a3366004611950565b610ae5565b6101de6103b6366004611ad8565b610b1d565b6101c16103c93660046118e3565b6001600160a01b039182166000908152606a6020908152604080832093909416825291909152205460ff1690565b6102296104053660046118c9565b610c05565b60006001600160e01b031982166380ac58cd60e01b148061043b57506001600160e01b03198216635b5e139f60e01b145b8061045657506301ffc9a760e01b6001600160e01b03198316145b92915050565b60606065805461046b90611d68565b80601f016020809104026020016040519081016040528092919081815260200182805461049790611d68565b80156104e45780601f106104b9576101008083540402835291602001916104e4565b820191906000526020600020905b8154815290600101906020018083116104c757829003601f168201915b5050505050905090565b6000818152606760205260408120546001600160a01b031661056c5760405162461bcd60e51b815260206004820152602c60248201527f4552433732313a20617070726f76656420717565727920666f72206e6f6e657860448201526b34b9ba32b73a103a37b5b2b760a11b60648201526084015b60405180910390fd5b506000908152606960205260409020546001600160a01b031690565b6000610593826107c0565b9050806001600160a01b0316836001600160a01b031614156106015760405162461bcd60e51b815260206004820152602160248201527f4552433732313a20617070726f76616c20746f2063757272656e74206f776e656044820152603960f91b6064820152608401610563565b336001600160a01b038216148061061d575061061d81336103c9565b61068f5760405162461bcd60e51b815260206004820152603860248201527f4552433732313a20617070726f76652063616c6c6572206973206e6f74206f7760448201527f6e6572206e6f7220617070726f76656420666f7220616c6c00000000000000006064820152608401610563565b6106998383610c9d565b505050565b6106a83382610d0b565b6106c45760405162461bcd60e51b815260040161056390611c3e565b610699838383610e02565b6097546001600160a01b031633146106f95760405162461bcd60e51b815260040161056390611c09565b60cc55565b61069983838360405180602001604052806000815250610ae5565b600081815260cb60205260409020544210156107625760405162461bcd60e51b8152602060048201526008602482015267085b585d1d5c995960c21b6044820152606401610563565b61076b81610f9e565b6107bd73592e10267af60894086d40dcc55fe7684f8420d5336107a060ca600086815260200190815260200160002054611039565b730d44cfa6a50e4c16ee311af6edad36e89f90b0a6929190611074565b50565b6000818152606760205260408120546001600160a01b0316806104565760405162461bcd60e51b815260206004820152602960248201527f4552433732313a206f776e657220717565727920666f72206e6f6e657869737460448201526832b73a103a37b5b2b760b91b6064820152608401610563565b60006001600160a01b0382166108a25760405162461bcd60e51b815260206004820152602a60248201527f4552433732313a2062616c616e636520717565727920666f7220746865207a65604482015269726f206164647265737360b01b6064820152608401610563565b506001600160a01b031660009081526068602052604090205490565b6097546001600160a01b031633146108e85760405162461bcd60e51b815260040161056390611c09565b6108f260006110ce565b565b6097546001600160a01b0316331461091e5760405162461bcd60e51b815260040161056390611c09565b60cd55565b600054610100900460ff1661093e5760005460ff1615610942565b303b155b6109a55760405162461bcd60e51b815260206004820152602e60248201527f496e697469616c697a61626c653a20636f6e747261637420697320616c72656160448201526d191e481a5b9a5d1a585b1a5e995960921b6064820152608401610563565b600054610100900460ff161580156109c7576000805461ffff19166101011790555b610a1160405180604001604052806008815260200167111492541093d39160c21b81525060405180604001604052806008815260200167111492541093d39160c21b815250611120565b66470de4df82000060cc55600060c95562278d0060cd5580156107bd576000805461ff001916905550565b60606066805461046b90611d68565b610a573360c954611151565b610a8b730d44cfa6a50e4c16ee311af6edad36e89f90b0a63373592e10267af60894086d40dcc55fe7684f8420d584611074565b60c954600090815260ca6020526040902081905560cd54610aac9042611cda565b60c98054600090815260cb6020526040812092909255805491610ace83611da3565b919050555050565b610ae1338383611293565b5050565b610aef3383610d0b565b610b0b5760405162461bcd60e51b815260040161056390611c3e565b610b1784848484611362565b50505050565b6000818152606760205260409020546060906001600160a01b0316610b9c5760405162461bcd60e51b815260206004820152602f60248201527f4552433732314d657461646174613a2055524920717565727920666f72206e6f60448201526e3732bc34b9ba32b73a103a37b5b2b760891b6064820152608401610563565b6000610bb360408051602081019091526000815290565b90506000815111610bd35760405180602001604052806000815250610bfe565b80610bdd84611395565b604051602001610bee929190611b38565b6040516020818303038152906040525b9392505050565b6097546001600160a01b03163314610c2f5760405162461bcd60e51b815260040161056390611c09565b6001600160a01b038116610c945760405162461bcd60e51b815260206004820152602660248201527f4f776e61626c653a206e6577206f776e657220697320746865207a65726f206160448201526564647265737360d01b6064820152608401610563565b6107bd816110ce565b600081815260696020526040902080546001600160a01b0319166001600160a01b0384169081179091558190610cd2826107c0565b6001600160a01b03167f8c5be1e5ebec7d5bd14f71427d1e84f3dd0314c0f7b2291e5b200ac8c7c3b92560405160405180910390a45050565b6000818152606760205260408120546001600160a01b0316610d845760405162461bcd60e51b815260206004820152602c60248201527f4552433732313a206f70657261746f7220717565727920666f72206e6f6e657860448201526b34b9ba32b73a103a37b5b2b760a11b6064820152608401610563565b6000610d8f836107c0565b9050806001600160a01b0316846001600160a01b03161480610dca5750836001600160a01b0316610dbf846104ee565b6001600160a01b0316145b80610dfa57506001600160a01b038082166000908152606a602090815260408083209388168352929052205460ff165b949350505050565b826001600160a01b0316610e15826107c0565b6001600160a01b031614610e795760405162461bcd60e51b815260206004820152602560248201527f4552433732313a207472616e736665722066726f6d20696e636f72726563742060448201526437bbb732b960d91b6064820152608401610563565b6001600160a01b038216610edb5760405162461bcd60e51b8152602060048201526024808201527f4552433732313a207472616e7366657220746f20746865207a65726f206164646044820152637265737360e01b6064820152608401610563565b610ee6600082610c9d565b6001600160a01b0383166000908152606860205260408120805460019290610f0f908490611d25565b90915550506001600160a01b0382166000908152606860205260408120805460019290610f3d908490611cda565b909155505060008181526067602052604080822080546001600160a01b0319166001600160a01b0386811691821790925591518493918716917fddf252ad1be2c89b69c2b068fc378daa952ba7f163c4a11628f55a4df523b3ef91a4505050565b6000610fa9826107c0565b9050610fb6600083610c9d565b6001600160a01b0381166000908152606860205260408120805460019290610fdf908490611d25565b909155505060008281526067602052604080822080546001600160a01b0319169055518391906001600160a01b038416907fddf252ad1be2c89b69c2b068fc378daa952ba7f163c4a11628f55a4df523b3ef908390a45050565b6000610456670de0b6b3a764000061106e61106760cc54670de0b6b3a76400006114af90919063ffffffff16565b85906114bb565b906114c7565b604080516001600160a01b0385811660248301528416604482015260648082018490528251808303909101815260849091019091526020810180516001600160e01b03166323b872dd60e01b179052610b179085906114d3565b609780546001600160a01b038381166001600160a01b0319831681179093556040519116919082907f8be0079c531659141344cd1fd0a4f28419497f9722a3daafe3b4186f6b6457e090600090a35050565b600054610100900460ff166111475760405162461bcd60e51b815260040161056390611c8f565b610ae182826115a5565b6001600160a01b0382166111a75760405162461bcd60e51b815260206004820181905260248201527f4552433732313a206d696e7420746f20746865207a65726f20616464726573736044820152606401610563565b6000818152606760205260409020546001600160a01b03161561120c5760405162461bcd60e51b815260206004820152601c60248201527f4552433732313a20746f6b656e20616c7265616479206d696e746564000000006044820152606401610563565b6001600160a01b0382166000908152606860205260408120805460019290611235908490611cda565b909155505060008181526067602052604080822080546001600160a01b0319166001600160a01b03861690811790915590518392907fddf252ad1be2c89b69c2b068fc378daa952ba7f163c4a11628f55a4df523b3ef908290a45050565b816001600160a01b0316836001600160a01b031614156112f55760405162461bcd60e51b815260206004820152601960248201527f4552433732313a20617070726f766520746f2063616c6c6572000000000000006044820152606401610563565b6001600160a01b038381166000818152606a6020908152604080832094871680845294825291829020805460ff191686151590811790915591519182527f17307eab39ab6107e8899845ad3d59bd9653f200f220920489ca2b5937696c31910160405180910390a3505050565b61136d848484610e02565b611379848484846115f3565b610b175760405162461bcd60e51b815260040161056390611bb7565b6060816113b95750506040805180820190915260018152600360fc1b602082015290565b8160005b81156113e357806113cd81611da3565b91506113dc9050600a83611cf2565b91506113bd565b60008167ffffffffffffffff81111561140c57634e487b7160e01b600052604160045260246000fd5b6040519080825280601f01601f191660200182016040528015611436576020820181803683370190505b5090505b8415610dfa5761144b600183611d25565b9150611458600a86611dbe565b611463906030611cda565b60f81b81838151811061148657634e487b7160e01b600052603260045260246000fd5b60200101906001600160f81b031916908160001a9053506114a8600a86611cf2565b945061143a565b6000610bfe8284611cda565b6000610bfe8284611d06565b6000610bfe8284611cf2565b6000611528826040518060400160405280602081526020017f5361666545524332303a206c6f772d6c6576656c2063616c6c206661696c6564815250856001600160a01b03166117009092919063ffffffff16565b80519091501561069957808060200190518101906115469190611a84565b6106995760405162461bcd60e51b815260206004820152602a60248201527f5361666545524332303a204552433230206f7065726174696f6e20646964206e6044820152691bdd081cdd58d8d9595960b21b6064820152608401610563565b600054610100900460ff166115cc5760405162461bcd60e51b815260040161056390611c8f565b81516115df906065906020850190611814565b508051610699906066906020840190611814565b60006001600160a01b0384163b156116f557604051630a85bd0160e11b81526001600160a01b0385169063150b7a0290611637903390899088908890600401611b67565b602060405180830381600087803b15801561165157600080fd5b505af1925050508015611681575060408051601f3d908101601f1916820190925261167e91810190611abc565b60015b6116db573d8080156116af576040519150601f19603f3d011682016040523d82523d6000602084013e6116b4565b606091505b5080516116d35760405162461bcd60e51b815260040161056390611bb7565b805181602001fd5b6001600160e01b031916630a85bd0160e11b149050610dfa565b506001949350505050565b6060610dfa8484600085856001600160a01b0385163b6117625760405162461bcd60e51b815260206004820152601d60248201527f416464726573733a2063616c6c20746f206e6f6e2d636f6e74726163740000006044820152606401610563565b600080866001600160a01b0316858760405161177e9190611b1c565b60006040518083038185875af1925050503d80600081146117bb576040519150601f19603f3d011682016040523d82523d6000602084013e6117c0565b606091505b50915091506117d08282866117db565b979650505050505050565b606083156117ea575081610bfe565b8251156117fa5782518084602001fd5b8160405162461bcd60e51b81526004016105639190611ba4565b82805461182090611d68565b90600052602060002090601f0160209004810192826118425760008555611888565b82601f1061185b57805160ff1916838001178555611888565b82800160010185558215611888579182015b8281111561188857825182559160200191906001019061186d565b50611894929150611898565b5090565b5b808211156118945760008155600101611899565b80356001600160a01b03811681146118c457600080fd5b919050565b6000602082840312156118da578081fd5b610bfe826118ad565b600080604083850312156118f5578081fd5b6118fe836118ad565b915061190c602084016118ad565b90509250929050565b600080600060608486031215611929578081fd5b611932846118ad565b9250611940602085016118ad565b9150604084013590509250925092565b60008060008060808587031215611965578081fd5b61196e856118ad565b935061197c602086016118ad565b925060408501359150606085013567ffffffffffffffff8082111561199f578283fd5b818701915087601f8301126119b2578283fd5b8135818111156119c4576119c4611dfe565b604051601f8201601f19908116603f011681019083821181831017156119ec576119ec611dfe565b816040528281528a6020848701011115611a04578586fd5b82602086016020830137918201602001949094529598949750929550505050565b60008060408385031215611a37578182fd5b611a40836118ad565b91506020830135611a5081611e14565b809150509250929050565b60008060408385031215611a6d578182fd5b611a76836118ad565b946020939093013593505050565b600060208284031215611a95578081fd5b8151610bfe81611e14565b600060208284031215611ab1578081fd5b8135610bfe81611e22565b600060208284031215611acd578081fd5b8151610bfe81611e22565b600060208284031215611ae9578081fd5b5035919050565b60008151808452611b08816020860160208601611d3c565b601f01601f19169290920160200192915050565b60008251611b2e818460208701611d3c565b9190910192915050565b60008351611b4a818460208801611d3c565b835190830190611b5e818360208801611d3c565b01949350505050565b6001600160a01b0385811682528416602082015260408101839052608060608201819052600090611b9a90830184611af0565b9695505050505050565b602081526000610bfe6020830184611af0565b60208082526032908201527f4552433732313a207472616e7366657220746f206e6f6e20455243373231526560408201527131b2b4bb32b91034b6b83632b6b2b73a32b960711b606082015260800190565b6020808252818101527f4f776e61626c653a2063616c6c6572206973206e6f7420746865206f776e6572604082015260600190565b60208082526031908201527f4552433732313a207472616e736665722063616c6c6572206973206e6f74206f6040820152701ddb995c881b9bdc88185c1c1c9bdd9959607a1b606082015260800190565b6020808252602b908201527f496e697469616c697a61626c653a20636f6e7472616374206973206e6f74206960408201526a6e697469616c697a696e6760a81b606082015260800190565b60008219821115611ced57611ced611dd2565b500190565b600082611d0157611d01611de8565b500490565b6000816000190483118215151615611d2057611d20611dd2565b500290565b600082821015611d3757611d37611dd2565b500390565b60005b83811015611d57578181015183820152602001611d3f565b83811115610b175750506000910152565b600181811c90821680611d7c57607f821691505b60208210811415611d9d57634e487b7160e01b600052602260045260246000fd5b50919050565b6000600019821415611db757611db7611dd2565b5060010190565b600082611dcd57611dcd611de8565b500690565b634e487b7160e01b600052601160045260246000fd5b634e487b7160e01b600052601260045260246000fd5b634e487b7160e01b600052604160045260246000fd5b80151581146107bd57600080fd5b6001600160e01b0319811681146107bd57600080fdfea2646970667358221220f82fb836d35081de6afdd028cc06e4403669413151e4dd5a38178669a57fe18e64736f6c63430008040033",
  "linkReferences": {},
  "deployedLinkReferences": {}
}